:020000040800F2
:100000000050002071300008892E0008912E000851
:10001000992E0008A12E0008A92E0008000000005B
:10002000000000000000000000000000B12E0008E9
:10003000BD2E000800000000C92E0008D52E0008C3
:10004000B9300008B9300008B9300008B9300008EC
:10005000B9300008B9300008B9300008B9300008DC
:10006000B9300008B9300008B9300008B9300008CC
:10007000B9300008B9300008B9300008B9300008BC
:10008000B9300008B9300008B9300008B9300008AC
:10009000B9300008B9300008B9300008B93000089C
:1000A000B9300008B9300008B9300008B93000088C
:1000B000B9300008B9300008B9300008B93000087C
:1000C000B9300008B9300008B9300008B93000086C
:1000D000B9300008B9300008B9300008B93000085C
:1000E000B9300008B9300008B9300008000000003D
:1000F0000000000000000000000000000000000000
:0C01000000000000000000005FF808F1A3
:1001100010B5054C237833B9044B13B10448AFF341
:1001200000800123237010BDE801002000000000C2
:10013000ACBA000808B5034B1BB103490348AFF341
:10014000008008BD00000000EC010020ACBA0008EF
:10015000034613F8012B002AFBD1181A0138704707
:1001600081F0004102E000BF83F0004330B54FEA68
:1001700041044FEA430594EA050F08BF90EA020FD5
:100180001FBF54EA000C55EA020C7FEA645C7FEA68
:10019000655C00F0E2804FEA5454D4EB5555B8BF8B
:1001A0006D420CDD2C4480EA020281EA030382EAFC
:1001B000000083EA010180EA020281EA0303362D8E
:1001C00088BF30BD11F0004F4FEA01314FF4801C61
:1001D0004CEA113102D0404261EB410113F0004F73
:1001E0004FEA03334CEA133302D0524263EB43032A
:1001F00094EA050F00F0A780A4F10104D5F1200EC8
:100200000DDB02FA0EFC22FA05F2801841F1000122
:1002100003FA0EF2801843FA05F359410EE0A5F1F6
:1002200020050EF1200E012A03FA0EFC28BF4CF027
:10023000020C43FA05F3C01851EBE37101F00045DD
:1002400007D54FF0000EDCF1000C7EEB00006EEBEA
:100250000101B1F5801F1BD3B1F5001F0CD3490874
:100260005FEA30004FEA3C0C04F101044FEA4452CB
:1002700012F5800F80F09A80BCF1004F08BF5FEA52
:10028000500C50F1000041EB045141EA050130BD32
:100290005FEA4C0C404141EB0101013C28BFB1F544
:1002A000801FE9D291F0000F04BF01460020B1FA8F
:1002B00081F308BF2033A3F10B03B3F120020CDA62
:1002C0000C3208DD02F1140CC2F10C0201FA0CF040
:1002D00021FA02F10CE002F11402D8BFC2F1200CA5
:1002E00001FA02F120FA0CFCDCBF41EA0C0190405B
:1002F000E41AA2BF01EB0451294330BD6FEA0404A4
:100300001F3C1CDA0C340EDC04F11404C4F120028E
:1003100020FA04F001FA02F340EA030021FA04F3A0
:1003200045EA030130BDC4F10C04C4F1200220FAF7
:1003300002F001FA04F340EA0300294630BD21FA35
:1003400004F0294630BD94F0000F83F4801306BFFB
:1003500081F480110134013D4EE77FEA645C18BFEF
:100360007FEA655C29D094EA050F08BF90EA020F86
:1003700005D054EA000C04BF1946104630BD91EA7E
:10038000030F1EBF0021002030BD5FEA545C05D181
:100390004000494128BF41F0004130BD14F58004C0
:1003A0003CBF01F5801130BD01F0004545F0FE4134
:1003B00041F470014FF0000030BD7FEA645C1ABF69
:1003C000194610467FEA655C1CBF0B46024650EAA0
:1003D000013406BF52EA033591EA030F41F40021CC
:1003E00030BD00BF90F0000F04BF0021704730B552
:1003F0004FF4806404F132044FF000054FF0000127
:1004000050E700BF90F0000F04BF0021704730B5E7
:100410004FF4806404F1320410F0004548BF4042BC
:100420004FF000013EE700BF42004FEAE2014FEA11
:1004300031014FEA02701FBF12F07F4393F07F4FEC
:1004400081F06051704732F07F4208BF704793F0EF
:100450007F4F04BF41F40021704730B54FF4607402
:1004600001F0004521F000411CE700BF50EA010205
:1004700008BF704730B54FF000050AE050EA0102AE
:1004800008BF704730B511F0004502D5404261EB1E
:1004900041014FF4806404F132045FEA915C3FF45F
:1004A000D8AE4FF003025FEADC0C18BF03325FEAFC
:1004B000DC0C18BF033202EBDC02C2F1200300FAAD
:1004C00003FC20FA02F001FA03FE40EA0E0021FAD2
:1004D00002F11444BDE600BF70B54FF0FF0C4CF4C0
:1004E000E06C1CEA11541DBF1CEA135594EA0C0F72
:1004F00095EA0C0F00F0DEF82C4481EA030621EAAD
:100500004C5123EA4C5350EA013518BF52EA0335E7
:1005100041F4801143F4801338D0A0FB02CE4FF099
:100520000005E1FB02E506F00042E0FB03E54FF0C9
:100530000006E1FB03569CF0000F18BF4EF0010EC1
:10054000A4F1FF04B6F5007F64F5407404D25FEABD
:100550004E0E6D4146EB060642EAC62141EA555170
:100560004FEAC52040EA5E504FEACE2EB4F1FD0CB2
:1005700088BFBCF5E06F1ED8BEF1004F08BF5FEA30
:10058000500E50F1000041EB045170BD06F00046E2
:1005900046EA010140EA020081EA0301B4EB5C048F
:1005A000C2BFD4EB0C0541EA045170BD41F4801187
:1005B0004FF0000E013C00F3AB8014F1360FDEBFAC
:1005C000002001F0004170BDC4F10004203C35DA88
:1005D0000C341BDC04F11404C4F1200500FA05F30B
:1005E00020FA04F001FA05F240EA020001F00042AC
:1005F00021F0004110EBD37021FA04F642EB060122
:100600005EEA430E08BF20EAD37070BDC4F10C044B
:10061000C4F1200500FA04F320FA05F001FA04F20F
:1006200040EA020001F0004110EBD37041F10001FB
:100630005EEA430E08BF20EAD37070BDC4F1200506
:1006400000FA05F24EEA020E20FA04F301FA05F26E
:1006500043EA020321FA04F001F0004121FA04F216
:1006600020EA020000EBD3705EEA430E08BF20EAE6
:10067000D37070BD94F0000F0FD101F00046400020
:1006800041EB010111F4801F08BF013CF7D041EAA2
:10069000060195F0000F18BF704703F000465200A6
:1006A00043EB030313F4801F08BF013DF7D043EA77
:1006B0000603704794EA0C0F0CEA135518BF95EA2D
:1006C0000C0F0CD050EA410618BF52EA4306D1D1B4
:1006D00081EA030101F000414FF0000070BD50EAD3
:1006E000410606BF1046194652EA430619D094EA5D
:1006F0000C0F02D150EA013613D195EA0C0F05D147
:1007000052EA03361CBF104619460AD181EA03019A
:1007100001F0004141F0FE4141F470014FF0000052
:1007200070BD41F0FE4141F4780170BD70B54FF0ED
:10073000FF0C4CF4E06C1CEA11541DBF1CEA13556D
:1007400094EA0C0F95EA0C0F00F0A7F8A4EB05044F
:1007500081EA030E52EA03354FEA013100F0888046
:100760004FEA03334FF0805545EA131343EA12630F
:100770004FEA022245EA111545EA10654FEA0026C4
:100780000EF000419D4208BF964244F1FD0404F57D
:10079000407402D25B084FEA3202B61A65EB0305D9
:1007A0005B084FEA32024FF480104FF4002CB6EB96
:1007B000020E75EB030E22BFB61A754640EA0C0016
:1007C0005B084FEA3202B6EB020E75EB030E22BF56
:1007D000B61A754640EA5C005B084FEA3202B6EB97
:1007E000020E75EB030E22BFB61A754640EA9C0056
:1007F0005B084FEA3202B6EB020E75EB030E22BF26
:10080000B61A754640EADC0055EA060E18D04FEAE3
:10081000051545EA16754FEA06164FEAC30343EA83
:1008200052734FEAC2025FEA1C1CC0D111F4801F50
:100830000BD141EA00014FF000004FF0004CB6E749
:1008400011F4801F04BF01430020B4F1FD0C88BFE8
:10085000BCF5E06F3FF6AFAEB5EB030C04BFB6EBF3
:10086000020C5FEA500C50F1000041EB045170BDE6
:100870000EF0004E4EEA113114EB5C04C2BFD4EB13
:100880000C0541EA045170BD41F480114FF0000E97
:10089000013C90E645EA060E8DE60CEA135594EA13
:1008A0000C0F08BF95EA0C0F3FF43BAF94EA0C0F16
:1008B0000AD150EA01347FF434AF95EA0C0F7FF48B
:1008C00025AF104619462CE795EA0C0F06D152EADF
:1008D00003353FF4FDAE1046194622E750EA4106C3
:1008E00018BF52EA43067FF4C5AE50EA41047FF4D4
:1008F0000DAF52EA43057FF4EBAE12E74FF0FF3C39
:1009000006E000BF4FF0010C02E000BF4FF0010C09
:100910004DF804CD4FEA410C7FEA6C5C4FEA430C82
:1009200018BF7FEA6C5C1BD001B050EA410C0CBFD1
:1009300052EA430C91EA030F02BF90EA020F002033
:10094000704710F1000F91EA030F58BF994208BF9A
:1009500090422CBFD8176FEAE37040F00100704757
:100960004FEA410C7FEA6C5C02D150EA013C07D1AE
:100970004FEA430C7FEA6C5CD6D152EA033CD3D0F9
:100980005DF8040B704700BF8446104662468C46F3
:100990001946634600E000BF01B5FFF7B7FF002826
:1009A00048BF10F1000F01BD4DF808EDFFF7F4FF4F
:1009B0000CBF012000205DF808FB00BF4DF808EDDA
:1009C000FFF7EAFF34BF012000205DF808FB00BFFD
:1009D0004DF808EDFFF7E0FF94BF012000205DF81F
:1009E00008FB00BF4DF808EDFFF7CEFF94BF0120D4
:1009F00000205DF808FB00BF4DF808EDFFF7C4FFCD
:100A000034BF012000205DF808FB00BF4FEA410C15
:100A10007FEA6C5C02D150EA013C0AD14FEA430CF8
:100A20007FEA6C5C02D152EA033C02D14FF0000035
:100A300070474FF0010070474FEA410212F5001273
:100A400015D211D56FF47873B3EB625212D94FEA15
:100A5000C12343F0004343EA505311F0004F23FAFF
:100A600002F018BF404270474FF00000704750EA54
:100A7000013005D111F0004008BF6FF00040704711
:100A80004FF00000704700BF4A0011D212F500126B
:100A900011D20DD56FF47873B3EB62520ED44FEAD6
:100AA000C12343F0004343EA505323FA02F0704756
:100AB0004FF00000704750EA013002D14FF0FF3094
:100AC00070474FF0000070474FEA4102B2F1E04337
:100AD00024BFB3F5001CDCF1FE5C0DD901F0004C25
:100AE0004FEAC0024CEA5070B2F1004F40EB830075
:100AF00008BF20F00100704711F0804F21D113F1A1
:100B00003872BCBF01F00040704741F480114FEAD9
:100B10005252C2F11802C2F1200C10FA0CF320FA62
:100B200002F018BF40F001004FEAC1234FEAD3237F
:100B300003FA0CFC40EA0C0023FA02F34FEA4303E9
:100B4000CCE77FEA625307D150EA01331EBF4FF072
:100B5000FE4040F44000704701F0004040F0FE408D
:100B600040F40000704700BF80F0004002E000BF8A
:100B700081F0004142001FBF5FEA410392EA030F88
:100B80007FEA226C7FEA236C6AD04FEA1262D2EBD2
:100B90001363C1BFD218414048404140B8BF5B42D7
:100BA000192B88BF704710F0004F40F4000020F070
:100BB0007F4018BF404211F0004F41F4000121F086
:100BC0007F4118BF494292EA030F3FD0A2F10102D0
:100BD00041FA03FC10EB0C00C3F1200301FA03F10E
:100BE00000F0004302D5494260EB4000B0F5000F31
:100BF00013D3B0F1807F06D340084FEA310102F1F0
:100C00000102FE2A51D2B1F1004F40EBC25008BFA1
:100C100020F0010040EA03007047490040EB00006B
:100C2000013A28BFB0F5000FEDD2B0FA80FCACF16C
:100C3000080CB2EB0C0200FA0CF0AABF00EBC25099
:100C400052421843BCBFD0401843704792F0000F87
:100C500081F4000106BF80F400000132013BB5E7DA
:100C60004FEA41037FEA226C18BF7FEA236C21D050
:100C700092EA030F04D092F0000F08BF08467047B5
:100C800090EA010F1CBF0020704712F07F4F04D183
:100C9000400028BF40F00040704712F100723CBF96
:100CA00000F50000704700F0004343F0FE4040F4C0
:100CB000000070477FEA226216BF08467FEA23637E
:100CC0000146420206BF5FEA412390EA010F40F469
:100CD000800070474FF0000304E000BF10F00043B5
:100CE00048BF40425FEA000C08BF704743F096439C
:100CF00001464FF000001CE050EA010208BF7047B7
:100D00004FF000030AE000BF50EA010208BF70473D
:100D100011F0004302D5404261EB41015FEA010C52
:100D200002BF84460146002043F0B64308BFA3F14A
:100D30008053A3F50003BCFA8CF2083AA3EBC2532C
:100D400010DB01FA02FC634400FA02FCC2F120024B
:100D5000BCF1004F20FA02F243EB020008BF20F082
:100D60000100704702F1200201FA02FCC2F12002E8
:100D700050EA4C0021FA02F243EB020008BF20EADD
:100D8000DC7070474FF0FF0C1CEAD0521EBF1CEA0B
:100D9000D15392EA0C0F93EA0C0F6FD01A4480EAF9
:100DA000010C400218BF5FEA41211ED04FF00063E2
:100DB00043EA501043EA5111A0FB01310CF000400E
:100DC000B1F5000F3EBF490041EAD3715B0040EA34
:100DD000010062F17F02FD2A1DD8B3F1004F40EB04
:100DE000C25008BF20F00100704790F0000F0CF0D7
:100DF000004C08BF49024CEA502040EA51207F3A9B
:100E0000C2BFD2F1FF0340EAC250704740F4000075
:100E10004FF00003013A5DDC12F1190FDCBF00F066
:100E200000407047C2F10002410021FA02F1C2F114
:100E3000200200FA02FC5FEA310040F1000053EAB0
:100E40004C0308BF20EADC70704792F0000F00F0FE
:100E5000004C02BF400010F4000F013AF9D040EA04
:100E60000C0093F0000F01F0004C02BF490011F498
:100E7000000F013BF9D041EA0C018FE70CEAD15396
:100E800092EA0C0F18BF93EA0C0F0AD030F0004C16
:100E900018BF31F0004CD8D180EA010000F00040CA
:100EA000704790F0000F17BF90F0004F084691F088
:100EB000000F91F0004F14D092EA0C0F01D14202C2
:100EC0000FD193EA0C0F03D14B0218BF084608D18B
:100ED00080EA010000F0004040F0FE4040F40000D5
:100EE000704740F0FE4040F4400070474FF0FF0C68
:100EF0001CEAD0521EBF1CEAD15392EA0C0F93EAAF
:100F00000C0F69D0A2EB030280EA010C49024FEA00
:100F1000402037D04FF0805343EA111143EA1013B9
:100F20000CF000408B4238BF5B0042F17D024FF471
:100F3000000C8B4224BF5B1A40EA0C00B3EB510F4C
:100F400024BFA3EB510340EA5C00B3EB910F24BF35
:100F5000A3EB910340EA9C00B3EBD10F24BFA3EBBA
:100F6000D10340EADC001B0118BF5FEA1C1CE0D182
:100F7000FD2A3FF650AF8B4240EBC25008BF20F035
:100F8000010070470CF0004C4CEA50207F32C2BF89
:100F9000D2F1FF0340EAC250704740F400004FF026
:100FA0000003013A37E792F0000F00F0004C02BF57
:100FB000400010F4000F013AF9D040EA0C0093F021
:100FC000000F01F0004C02BF490011F4000F013B7B
:100FD000F9D041EA0C0195E70CEAD15392EA0C0FE3
:100FE00008D142027FF47DAF93EA0C0F7FF470AF1B
:100FF000084676E793EA0C0F04D14B023FF44CAF5E
:1010000008466EE730F0004C18BF31F0004CCAD1F2
:1010100030F000427FF45CAF31F000437FF43CAF2E
:101020005FE700BF4FF0FF3C06E000BF4FF0010C50
:1010300002E000BF4FF0010C4DF804CD4FEA400232
:101040004FEA41037FEA226C18BF7FEA236C11D07C
:1010500001B052EA530C18BF90EA010F58BFB2EB2F
:10106000030088BFC81738BF6FEAE17018BF40F0AF
:10107000010070477FEA226C02D15FEA402C05D163
:101080007FEA236CE4D15FEA412CE1D05DF8040BE8
:10109000704700BF844608466146FFE70FB5FFF77B
:1010A000C9FF002848BF10F1000F0FBD4DF808ED33
:1010B000FFF7F4FF0CBF012000205DF808FB00BF24
:1010C0004DF808EDFFF7EAFF34BF012000205DF87E
:1010D00008FB00BF4DF808EDFFF7E0FF94BF0120CB
:1010E00000205DF808FB00BF4DF808EDFFF7D2FFC8
:1010F00094BF012000205DF808FB00BF4DF808ED0B
:10110000FFF7C8FF34BF012000205DF808FB00BFD7
:101110007BB972B90029BEBF00204FF0004106E044
:1011200008BF00281CBF6FF000414FF0FF3000F0F7
:10113000F5B9ADF1080C6DE904CE002909DB002BEF
:101140001ADB00F06BF8DDF804E0DDE9022304B0FF
:101150007047404261EB4101002B1BDB00F05EF861
:10116000DDF804E0DDE9022304B0404261EB410117
:10117000524263EB43037047524263EB430300F078
:101180004DF8DDF804E0DDE9022304B0404261EBF4
:1011900041017047524263EB430300F03FF8DDF832
:1011A00004E0DDE9022304B0524263EB43037047DD
:1011B00038B50022002304460D46FFF7FFFB28B98F
:1011C00020462946BDE8384000F00AB8204605F11F
:1011D000004100F005F8404261EB410138BD00BF1D
:1011E000D0B500220B4B06460F46FFF775F9FFF707
:1011F0004BFC0446FFF7F6F80022074BFFF76CF9AB
:1012000002460B4630463946FEF7AEFFFFF73CFC80
:101210002146D0BD0000F03D0000F0412DE9F0472F
:10122000089D8E4604468846002B4AD18A421746BE
:1012300062D9B2FA82F64EB1C6F1200301FA06F87D
:1012400020FA03F3B74043EA0808B4404FEA174EC8
:10125000B8FBFEF11FFA87FC0EFB118801FB0CF2B4
:10126000230C43EA08439A4209D9FB1801F1FF30E5
:1012700080F0EB809A4240F2E88002393B449A1AAF
:10128000B2FBFEF00EFB102200FB0CFCA3B243EA03
:1012900002439C4509D9FB1800F1FF3280F0D7804A
:1012A0009C4540F2D4803B44023840EA0140002192
:1012B000A3EB0C031DB10022F340C5E90032BDE8E9
:1012C000F0878B4205D90DB1C5E900010021084620
:1012D000F5E7B3FA83F1002946D1734502D3824280
:1012E00000F20881841A6EEB030201209046002D63
:1012F000E5D0C5E90048E2E7002A00F09180B2FAA3
:1013000082F6002E40F0A5808A1A0121030C4FEAD4
:10131000174E80B2BCB2B2FBFEFC0EFB1C2243EAAD
:10132000024304FB0CF29A4207D9FB180CF1FF3878
:1013300002D29A4200F2E380C4469B1AB3FBFEF24B
:101340000EFB123302FB04F440EA03439C4207D92C
:10135000FB1802F1FF3002D29C4200F2CD8002461F
:101360001B1B42EA0C40A5E7C1F120068B4022FA84
:1013700006F71F432EFA06FA4FEA1749BAFBF9F8A7
:101380000EFA01FE20FA06F309FB18AA1FFA87FCE1
:1013900043EA0E0300FA01FE08FB0CF01C0C44EAC1
:1013A0000A44A04202FA01F20AD93C1908F1FF3AB4
:1013B00080F09E80A04240F29B80A8F102083C444D
:1013C000241A98B2B4FBF9F309FB134403FB0CFC99
:1013D00040EA0444A44509D93C1903F1FF3080F0E8
:1013E0008580A44540F28280023B3C4443EA0840A9
:1013F000A4EB0C04A0FB028C64454346E14664D395
:1014000061D05DB1BEEB030264EB090404FA06F699
:1014100022FA01F31E43CC40C5E9006400214EE7E7
:10142000B1FBF2FC010C41EA0E4180B240EA0142FC
:101430003B46B1FBF7F138463C46B846BE4620264F
:10144000A2EB080241EA0C4165E7014617E71046A6
:101450002BE7C6F120012EFA01FCB7400EFA06FE7A
:1014600020FA01F141EA0E014FEA174EBCFBFEF8EB
:10147000BCB20EFB18CC08FB04F90A0C42EA0C4281
:10148000B04091454FEA104380B23ED9BA1808F1F6
:10149000FF3C01D291451FD8A2EB0902B2FBFEF935
:1014A00009FB04F80EFB192A8AB242EA0A424245B5
:1014B00029D2BA1809F1FF31C2D24245C0D2A9F1EE
:1014C00002013A44BCE7C6459BD2B8EB02036CEB81
:1014D000070C0138E14694E7A7EB09094A44B2FB3F
:1014E000FEF9A8F1020C09FB04F8DBE703467DE7EF
:1014F000D04665E70846FAE63B44023A30E7ACF1ED
:10150000020C3B4419E749469AE7A2EB0902B2FBF9
:10151000FEF9C44609FB04F8C4E700BF704700BFEA
:1015200080B582B000AF094801F026FF642107486A
:1015300001F0FCFF054802F0FFF87860034801F075
:10154000C9FF7B6818460837BD4680BD04020020ED
:1015500080B58CB004AF494B19884FF0FF3302932C
:101560001A2301933B1D009301238822444803F072
:1015700041FB0346002B01D001237AE07B791BB2AB
:101580001B021AB23B791BB213431BB29AB23D4BFA
:101590001A80FB791BB21B021AB2BB791BB2134330
:1015A0001AB2394B1A807B7A1BB21B021AB23B7AF1
:1015B0001BB213431AB2354B1A80FB7A1BB21B02C3
:1015C0001AB2BB7A1BB213431BB29AB2304B1A80C9
:1015D0007B7B1BB21B021AB23B7B1BB213431AB2BA
:1015E0002C4B1A80FB7B1BB21B021AB2BB7B1BB2BB
:1015F00013431AB2284B1A807B7C1BB21B021AB20F
:101600003B7C1BB213431AB2244B1A80FB7C1BB2E7
:101610001B021AB2BB7C1BB213431AB2204B1A80B6
:101620007B7D1BB21B021AB23B7D1BB213431AB265
:101630001C4B1A80FB7D1BB21B021AB2BB7D1BB276
:1016400013431AB2184B1A807B7E1BB21B021AB2CC
:101650003B7E1BB213431AB2144B1A80FB7E1BB2A3
:101660001B021AB2BB7E1BB213431AB2104B1A8074
:10167000002318462037BD4680BD00BF1000002063
:101680003402002024030020260300202803002029
:101690002A0300202C0300202E030020300300200A
:1016A00032030020340300203603002038030020DA
:1016B0003A03002080B586B004AF1E4B19884FF462
:1016C0007A730293012301931B4B00930123D022D1
:1016D0001A4803F08FFA174B19884FF0FF33029323
:1016E000062301933B4600930123F722134803F09E
:1016F00081FA0346002B01D0012316E03B781A0340
:101700007B781B011343BA781209D2B213430C4AF7
:101710001360FB781A033B791B0113437A79120992
:10172000D2B21343074A1360002318460837BD4658
:1017300080BD00BF100000204803002034020020BC
:10174000440300204003002080B487B000AF7860DD
:101750007B68DA10184B1B885B00D31A174AB2F962
:10176000002002FB03F3DB127B617B681B11124A32
:1017700012889B1A7A6812110F490988521A02FBC3
:1017800003F31B130E4AB2F9002002FB03F39B1371
:101790003B617A693B6913440A4A1360094B1A6832
:1017A00013469B00134480331B12FB60FB681846F2
:1017B0001C37BD4680BC7047240300202603002050
:1017C000280300203C0300202DE9B04FCAB000AF31
:1017D000C7F80C01AE4B1B68DA171C461546B4F56A
:1017E000FA3A45F1FF3BC7E948ABD7F82421D7F8CF
:1017F000203103FB02F1D7F82421D7F8203102FB76
:1018000003F3CA18D7F82031A3FB038902EB0903BD
:101810009946A04BB3F900301BB2DA17C7F8B830BD
:10182000C7F8BC20D7E92E01034603FB09F20B469B
:1018300008FB03F313440246A8FB0221C7F8C410B7
:10184000C7F8C020D7F8C4201344C7F8C430D7E97C
:101850003034C7E94634C7E946348F4BB3F900301A
:101860001BB2DA17C7F8B030C7F8B420D7F8203168
:10187000D7E92C452A4602FB03F2D7F8243121464A
:1018800001FB03F31A44D7F820312146A3FB0131B1
:10189000C7F80411C7F80031D7F80431D318C7F8D6
:1018A00004314FF000004FF00001D7E940452B46CE
:1018B0005904224641EAD23123465804D7E9462347
:1018C00014183C644B417B64D7E91034C7E94634B3
:1018D000724BB3F900301BB2DA17C7F8A830C7F85B
:1018E000AC204FF000004FF00001D7F8A830D9002D
:1018F0000020D7E946231418BC634B41FB63D7E9AA
:101900000E34C7E94634D7F82421D7F8203103FB39
:1019100002F1D7F82421D7F8203102FB03F3CA18CB
:10192000D7F82031A3FB0331C7F8FC10C7F8F83013
:10193000D7F8FC30D318C7F8FC30594BB3F9003056
:101940001BB2DA17C7F8A030C7F8A420D7E93E3495
:101950002246D7E92889414601FB02F24D46184646
:101960002146034603FB05F3134402464146A2FB0E
:101970000121C7F8F410C7F8F020D7F8F420134479
:10198000C7F8F4304FF000004FF00001D7E93C45B4
:101990002346180A2A4640EA02602B461912414B98
:1019A000B3F900301BB2DA17C7F89830C7F89C209B
:1019B000D7F82031D7E926894A4602FB03F2D7F847
:1019C0002431444604FB03F31A44D7F8203144463B
:1019D000A3FB0434C7F8EC40C7F8E830D7F8EC3084
:1019E000D318C7F8EC304FF000024FF00003D7E9EE
:1019F0003A894C462303C44643EA1C534446220317
:101A000084183C6341EB03037B63D7E90C34C7E9DB
:101A10004834D7E9482303F50041C7F89410C7F8C4
:101A20009020214B1B889BB20022C7F88830C7F852
:101A30008C20D7E924342246D7E92289414601FB8C
:101A400002F24D4618462146034603FB05F31344B4
:101A500002464146A2FB0121C7F8E410C7F8E02086
:101A6000D7F8E4201344C7F8E4304FF000024FF0F9
:101A70000003D7E9384529464A102946CB17C7E95C
:101A80004823D7E94823134310D1002352E100BF74
:101A90003C030020340300203203002030030020E8
:101AA0002E0300202C0300202A030020D7F80C313D
:101AB000C3F58013DA17BB62FA62D7E90A34C7E9C3
:101AC0004434D7F810315B10C7F88430D7F81031A0
:101AD000DB07C7F88030D7E94623D7E92001044661
:101AE000A41ABC6761EB0303FB67D7E91E452246D6
:101AF0002B46911839625B417B62D7E90823214666
:101B00005118B96129464B41FB614FF000024FF07B
:101B10000003D7E9068949468B01414643EA9163B0
:101B200041468A01414689183961494643EB010122
:101B300079614FF000024FF00003D7E9048949466C
:101B40008B00C44643EA9C7341468A0010461946FE
:101B5000034622469B18BB600B462A4642EB030312
:101B6000FB604FF000024FF00003D7E902894946BD
:101B70008B00C44643EA9C7341468A0010461946CE
:101B8000034622469B183B672B460A4642EB03035B
:101B90007B67D7E94823D7E91C01FFF7B9FA02466A
:101BA0000B46C7E94423664BB3F900301BB2DA1782
:101BB000BB66FA66D7E944234FF000004FF00001FE
:101BC000500B40EAC3405913D7E91A452B4600FB96
:101BD00003F2234603FB01F313442246A2FB002138
:101BE000C7F8DC10C7F8D820D7F8DC201344C7F8B2
:101BF000DC30D7E944234FF000004FF00001500BD8
:101C000040EAC3405913D7E936452B4600FB03F29F
:101C1000234603FB01F313442246A2FB0021C7F82D
:101C2000D410C7F8D020D7F8D4201344C7F8D43044
:101C30004FF000024FF00003D7E9344521464A0E29
:101C4000204629460C4642EAC4124B16C7E94823EF
:101C50003C4BB3F900301BB2DA173B667A66D7F813
:101C60001031D7E918452A4602FB03F2D7F81431A0
:101C7000214601FB03F31344D7F810212146A2FBB0
:101C80000121C7F8CC10C7F8C820D7F8CC201344DE
:101C9000C7F8CC304FF000024FF00003D7E93245CF
:101CA0002146CA0C204629460C4642EA4432CB144F
:101CB000C7E94623D7E94401D7E948238418BC651E
:101CC00041EB0303FB65D7E94623D7E916452146D7
:101CD00089183965294643EB010179654FF0000009
:101CE0004FF00001D7E914452346180A2A4640EA76
:101CF00002602B461912144BB3F900301BB2DA17ED
:101D0000BB64FA644FF000024FF00003D7E9128978
:101D10004C462301C44643EA1C73444622018418FE
:101D20003C6041EB03037B60D7E90034C7E94434EE
:101D3000D7F81031184607F59477BD46BDE8B08F47
:101D40003A030020380300203603002080B584B019
:101D500000AF78603960FFF7ADFC0346002B25D15A
:101D6000184B1B681846FFF7EFFC03461846FEF7B2
:101D7000B5FF034614491846FFF7B8F803461A465C
:101D80007B681A60114B1B681846FFF71DFDF86051
:101D9000F868FEF79FFF03464FF087411846FFF7AC
:101DA000A5F803461A463B681A6007E07B684FF0C7
:101DB00000021A603B684FF000021A6000BF103743
:101DC000BD4680BD400300200000C84244030020FF
:101DD00090B589B004AF0446084611461A4623461A
:101DE000FB710346BB710B467B7113463B710023AD
:101DF000FB7364230322EC21434803F06FF903468D
:101E0000002B03D1414BEC221A800EE06423032205
:101E1000EE213D4803F062F90346002B03D13B4B12
:101E2000EE221A8001E009236AE0B623FB73374BE8
:101E300019884FF47A7302930123019307F10F037A
:101E400000930123E022304802F0DAFD0346002B24
:101E500001D0022354E0642001F092F9FFF778FBEF
:101E60000346002B01D001234AE097F904305B01BF
:101E70005AB297F920309B005BB213435BB2DBB2DE
:101E8000FB73224B19884FF47A7302930123019359
:101E900007F10F0300930123F5221B4802F0B0FD68
:101EA0000346002B01D003232AE00A2001F068F941
:101EB00097F907305B015AB297F906309B005BB285
:101EC00013435AB297F9053013435BB2DBB2FB738D
:101ED0000E4B19884FF47A7302930123019307F193
:101EE0000F0300930123F422074802F089FD034603
:101EF000002B01D0052303E0642001F041F9002309
:101F000018461437BD4690BD340200201000002052
:101F100080B584B002AF282001F032F90023FB71B4
:101F2000FA1D4FF47A73009301237021154802F0D3
:101F3000FBFA0346002B01D001231EE0FB7903F0DE
:101F40000803002B18D1104A3B1D12681146198056
:101F50000233120C1A703A1D4FF47A730093032364
:101F60007021084802F0E2F90346002B01D0022359
:101F700003E00A2001F004F9002318460837BD46A3
:101F800080BD00BF34020020C8BA000880B58AB006
:101F900002AF78603960394A07F1140312681146BC
:101FA00019800233120C1A7007F114024FF47A737D
:101FB000009303237021324802F0B8F90346002B46
:101FC00001D0012355E0502001F0DAF807F10C02AE
:101FD0004FF47A73009307237021294802F0A4FA82
:101FE0000346002B01D0022343E03B7B5BB2002B76
:101FF00001DA03233DE07B7B1A03BB7B1B01134308
:10200000FA7B1209D2B21343FB61FB7B1B0403F47E
:1020100070223B7C1B0213437A7C1343BB61F8693B
:10202000FEF758FE03464FF093411846FEF75EFF59
:10203000034614491846FEF7A5FE03461A467B6878
:102040001A60B869FEF746FE03464FF09341184602
:10205000FEF74CFF03460C491846FEF793FE034675
:102060000A491846FEF784FD03461A463B681A6083
:10207000002318462037BD4680BD00BFCCBA0008FB
:10208000340200200000C8420000484300004842DB
:1020900090B58BB002AF01F011F800F06BF900F0D1
:1020A000F9FA00F003FA00F02FFA00F0BDF900F0A1
:1020B0007BFA00F023FB04219A4804F065FC4FF002
:1020C00000033B614FF00003FB604FF00003BB6077
:1020D0004FF4FA73FB8300237B77924B1B684FF41A
:1020E000FA729A630423009300230322052102203D
:1020F000FFF76EFE78617B69002B0ED00021002077
:1021000000F064FC01228849884800F0F3FC00F0EC
:10211000B9FB4FF4FA6001F033F8FFF7F9FE03461C
:10212000002B0AD00021002000F050FC01227E4943
:102130007F4800F0DFFC00F0A5FBFFF7F1F9034654
:102140007C4A13607B4B1B6840F6E44203FB02F2BF
:10215000794BA3FB0213D21A52081344DB0A774AC5
:102160001360764B1B681846FEF7B4FD03467449AE
:102170001846FEF7BBFE03461A46724B1A604FF034
:1021800000037B6007F10C023B1D11461846FFF768
:10219000DDFD07F1100207F1080311461846FFF7AD
:1021A000F5FE0346002B01D07B683B613B69664925
:1021B0001846FEF7A3FF0346002B1AD07B7F002BA7
:1021C00017D1FB8B7B8309E0564B1B687A8B9A6394
:1021D000032000F0D5FF7B8B0A337B837B8B40F69B
:1021E000C4129342F0D940F6C413FB8301237B77DA
:1021F00022E03B6954491846FEF76CFF0346002B6A
:102200001AD07B7F002B17D0FB8B3B830AE03A8BE5
:10221000444B1B689A63032000F0B2FF3B8B0A3BE0
:102220009BB23B83B7F91830B3F5FA7FEFDA4FF47E
:10223000FA73FB8300237B77002000F051FB3B699E
:102240001846FEF7F1F802460B464049404805F0B3
:10225000FBFF0021002000F0B9FB01223D493C4872
:1022600000F048FCBB681846FEF7DEF802460B4655
:102270003949374805F0E8FF0C21002000F0A6FBA3
:1022800001223449324800F035FCFB6833491846D6
:10229000FEF72CFE03461846FEF7C6F802460B462C
:1022A0002F492B4805F0D0FF1821002000F08EFBAD
:1022B00001222849264800F01DFC204B1C68214BB8
:1022C0001B681846FEF7B0F802460B46CDE900231E
:1022D000224624491E4805F0B7FF2421002000F0C3
:1022E00075FB01221B491A4800F004FC7B7F002B80
:1022F00001D01D4B00E01D4B1A461D49144805F046
:10230000A3FF3221002000F061FB01221149104897
:1023100000F0F0FB00F0B6FA4FF47A7000F030FFF6
:102320000BE700BFD002002008000020D0BA000850
:10233000E0BA000818030020010110001C0300206F
:1023400000007A44200300200000C841ECBA0008D5
:102350004C03002000000020F8BA00080000C8422A
:1023600004BB000810BB000820BB000828BB000805
:1023700030BB000880B594B000AF07F128032822D5
:102380000021184605F0C5FF07F1140300221A606A
:102390005A609A60DA601A613B1D00221A605A6026
:1023A0009A60DA600123BB624FF48033FB62002342
:1023B0003B630123BB6302237B644FF48033BB6424
:1023C0004FF4E013FB6407F12803184603F0B8FC50
:1023D0000346002B01D000F08BF90F237B61022311
:1023E000BB610023FB614FF480633B6200237B628F
:1023F00007F114030221184603F024FF0346002BC3
:1024000001D000F075F902237B600023FB603B1DC7
:10241000184604F0A5F80346002B01D000F068F937
:1024200000BF5037BD4680BD80B584B000AF3B1DB6
:1024300000221A605A609A601A4B1B4A1A60194BA4
:1024400000229A60174B00221A73164B00221A754D
:10245000144B4FF46022DA61124B00225A60114B88
:1024600001221A610F4800F0AFFE0346002B01D095
:1024700000F03EF900237B600123BB600723FB6073
:102480003B1D1946074801F063F90346002B01D0B4
:1024900000F02EF9034801F0EFFA00BF1037BD46F7
:1024A00080BD00BF040200200024014080B500AFC1
:1024B000124B134A1A60114B124A5A600F4B0022FA
:1024C0009A600E4B0022DA600C4B4FF480421A6186
:1024D0000A4B00225A61094B00229A61074B0022E5
:1024E000DA61064B00221A62044801F0DBFD034664
:1024F000002B01D000F0FCF800BF80BD34020020AA
:1025000000540040801A060080B586B000AF07F185
:10251000080300221A605A609A60DA603B46002283
:102520001A605A601E4B1F4A1A601D4B47225A60A0
:102530001B4B00229A601A4B4FF6FF72DA60184B61
:1025400000221A61164B00225A61154B00229A6133
:10255000134804F071F90346002B01D000F0C8F8CD
:102560004FF48053BB6007F1080319460C4804F090
:102570006FFB0346002B01D000F0BAF800233B604C
:1025800000237B603B461946054804F0D9FE03460C
:10259000002B01D000F0ACF800BF1837BD4680BD5D
:1025A00088020020002C014080B58EB000AF07F1FA
:1025B000280300221A605A609A60DA6007F120034B
:1025C00000221A605A603B1D00221A605A609A600D
:1025D000DA601A615A619A612D4B4FF080421A609D
:1025E0002B4B47225A602A4B00229A60284B44F614
:1025F0001F62DA60264B00221A61254B00229A6185
:10260000234804F019F90346002B01D000F070F8BC
:102610004FF48053BB6207F1280319461C4804F0AD
:1026200017FB0346002B01D000F062F8184804F0B5
:1026300052F90346002B01D000F05AF800233B6208
:1026400000237B6207F120031946114804F078FE4D
:102650000346002B01D000F04BF860237B60002381
:10266000BB600023FB6000237B613B1D04221946F5
:10267000074804F02BFA0346002B01D000F038F88D
:10268000034800F0D1FB00BF3837BD4680BD00BF16
:10269000D002002080B485B000AF144B9B69134A70
:1026A00043F020039361114B9B6903F02003FB600F
:1026B000FB680E4B9B690D4A43F0040393610B4B7F
:1026C0009B6903F00403BB60BB68084B9B69074A26
:1026D00043F008039361054B9B6903F008037B609B
:1026E0007B6800BF1437BD4680BC704700100240B5
:1026F00080B400AF72B600BF00BFFDE780B582B006
:1027000000AF00F01DFA44F62063012278215B48F7
:1027100002F0E4FC0346002B01D00023A9E040F6C0
:10272000C4137B6002E07B68013B7B607B68002B0D
:10273000F9D1AE220021782000F07CFA202200217D
:10274000782000F077FA10220021782000F072FA49
:10275000B0220021782000F06DFAC82200217820F4
:1027600000F068FA00220021782000F063FA1022BD
:102770000021782000F05EFA40220021782000F04D
:1027800059FA81220021782000F054FAFF2200211A
:10279000782000F04FFAA1220021782000F04AFAB8
:1027A000A6220021782000F045FAA82200217820F6
:1027B00000F040FA3F220021782000F03BFAA422EA
:1027C0000021782000F036FAD3220021782000F092
:1027D00031FA00220021782000F02CFAD5220021C5
:1027E000782000F027FAF0220021782000F022FA69
:1027F000D9220021782000F01DFA22220021782021
:1028000000F018FADA220021782000F013FA1222E0
:102810000021782000F00EFADB220021782000F061
:1028200009FA20220021782000F004FA8D220021EC
:10283000782000F0FFF914220021782000F0FAF946
:10284000AF220021782000F0F5F92E220021782017
:1028500000F0F0F9002000F043F800F013F8084B06
:1028600000221A80064B00225A80054B01225A7121
:10287000012318460837BD4680BD00BF3402002042
:102880006007002080B582B000AF0023FB711DE01F
:10289000FB79503BDBB21A460021782000F0CAF9E0
:1028A00000220021782000F0C5F9102200217820B4
:1028B00000F0C0F9FB79DB01084A1A44802340216B
:1028C000782000F051F9FB790133FB71FB79072B7C
:1028D000DED900BF00BF0837BD4680BD60030020C1
:1028E00080B582B000AF0346FB71FB79002B01D1AC
:1028F000002300E0FF234FF480621946034805F0EF
:1029000008FD00BF0837BD4680BD00BF6003002042
:1029100080B483B000AF0346FB800B46BB801346F8
:10292000FB70FB887F2B48D8BB883F2B45D8254BB5
:102930001B79002B06D0FB78002B0CBF0123002352
:10294000DBB2FB70FB78012B1AD1FA88BB88DB085D
:1029500098B20346DB0113441B4AD35C5AB2BB88CE
:1029600003F00703012101FA03F35BB2134359B2E9
:10297000FA880346DB011344C9B2134AD1541DE05F
:10298000FA88BB88DB0898B20346DB0113440E4A81
:10299000D35C5AB2BB8803F00703012101FA03F3A9
:1029A0005BB2DB435BB2134059B2FA880346DB01EA
:1029B0001344C9B2044AD15400E000BF0C37BD46ED
:1029C00080BC7047600700206003002080B483B0A3
:1029D00000AF03460A46FB801346BB80054AFB88CE
:1029E0001380044ABB88538000BF0C37BD4680BCAF
:1029F000704700BF6007002080B586B000AF034677
:102A00003960FB711346BB71394B1B881A463B6812
:102A10001B7813447F2B07DC354B5B881A463B68D9
:102A20005B7813443F2B01DD00235DE000237B61D5
:102A30004BE03B685A68FB79203B3968497801FBD9
:102A400003F319467B690B445B0013441B88FB604E
:102A500000233B6130E0FA683B6902FA03F303F4B8
:102A60000043002B10D0224B1A883B699BB21344C1
:102A700098B21F4B5A887B699BB213449BB2BA79B8
:102A80001946FFF745FF14E0194B1A883B699BB2C2
:102A9000134498B2164B5A887B699BB2134499B27F
:102AA000BB79002B0CBF01230023DBB21A46FFF7D2
:102AB0002FFF3B6901333B613B681B781A463B693A
:102AC0009342C8D37B6901337B613B685B781A46CC
:102AD0007B699342ADD3064B1B883A681278134446
:102AE0009AB2034B1A80FB7918461837BD4680BD51
:102AF0006007002080B584B000AFF860B96013466D
:102B0000FB7112E0FB681B78FA79B9681846FFF789
:102B100073FF03461A46FB681B789A4202D0FB6893
:102B20001B7808E0FB680133FB60FB681B78002B17
:102B3000E8D1FB681B7818461037BD4680BD000001
:102B400080B483B000AF074B7B6002E07B68013B41
:102B50007B607B68002BF9D100BF00BF0C37BD46FE
:102B600080BC704790D0030090B5C7B002AF044658
:102B7000084607F58871A1F588710A60194607F5BE
:102B80008873A3F2091322461A7007F58873A3F518
:102B9000857302461A7007F58873A3F586730A4693
:102BA0001A8007F58873A3F5827307F58872A2F57A
:102BB000857212781A70002387F80F3115E097F8A4
:102BC0000F3107F58872A2F5887212681A4497F8D7
:102BD0000F310133117807F58872A2F58272D15452
:102BE00097F80F31013387F80F3197F80F319BB207
:102BF00007F58872A2F5867212889A42DFD807F527
:102C00008873A3F209131B7899B207F58873A3F5AB
:102C100086731B8801339BB207F10C020A200090D7
:102C2000034801F083FB00BF07F58A77BD4690BDDE
:102C30003402002080B586B002AF0346FB710B461C
:102C4000BB7113467B71BB793B737B797B73FB79DB
:102C500099B207F10C020A2300930223034801F002
:102C600065FB00BF1037BD4680BD00BF34020020A9
:102C700080B485B000AF154B9B69144A43F0010343
:102C80009361124B9B6903F00103BB60BB680F4B60
:102C9000DB690E4A43F08053D3610C4BDB6903F0D0
:102CA00080537B607B680A4B5B68FB60FB6823F0AA
:102CB000E063FB60FB6843F00073FB60044AFB6861
:102CC000536000BF1437BD4680BC704700100240FF
:102CD0000000014080B588B000AF786007F11003B4
:102CE00000221A605A609A60DA607B681B68144A96
:102CF000934221D1134B9B69124A43F400739361B1
:102D0000104B9B6903F40073FB60FB680D4B9B69E0
:102D10000C4A43F0040393610A4B9B6903F00403DC
:102D2000BB60BB6801233B6103237B6107F1100398
:102D30001946054801F032F800BF2037BD4680BD76
:102D400000240140001002400008014080B588B016
:102D500000AF786007F1100300221A605A609A6091
:102D6000DA607B681B68154A934223D1144B9B6938
:102D7000134A43F008039361114B9B6903F0080366
:102D8000FB60FB68C0233B6112237B610323FB6173
:102D900007F1100319460B4801F000F8084BDB69F6
:102DA000074A43F40013D361054BDB6903F40013B6
:102DB000BB60BB6800BF2037BD4680BD00540040EB
:102DC00000100240000C014080B485B000AF786074
:102DD0007B681B68124A93420CD1124B9B69114AC3
:102DE00043F4006393610F4B9B6903F40063FB6042
:102DF000FB6810E07B681B68B3F1804F0BD1094B77
:102E0000DB69084A43F00103D361064BDB6903F039
:102E10000103BB60BB6800BF1437BD4680BC704770
:102E2000002C01400010024080B588B000AF7860EF
:102E300007F1100300221A605A609A60DA607B681A
:102E40001B68B3F1804F17D10D4B9B690C4A43F0BF
:102E5000040393610A4B9B6903F00403FB60FB6866
:102E600002233B6102237B610223FB6107F1100314
:102E70001946044800F092FF00BF2037BD4680BDD0
:102E8000001002400008014080B400AF00BFFDE721
:102E900080B400AF00BFFDE780B400AF00BFFDE726
:102EA00080B400AF00BFFDE780B400AF00BFFDE716
:102EB00080B400AF00BFBD4680BC704780B400AF97
:102EC00000BFBD4680BC704780B400AF00BFBD46A8
:102ED00080BC704780B500AF00F036F900BF80BD00
:102EE00080B400AF01231846BD4680BC704780B552
:102EF00082B000AF7860396005F05EFA03461622B2
:102F00001A604FF0FF3318460837BD4680BD80B5C4
:102F100082B000AF78604FF0FF317868FFF7E7FFCD
:102F200000BFFDE780B586B000AFF860B9607A6099
:102F300000237B610AE0AFF300800146BB685A1CA6
:102F4000BA60CAB21A707B6901337B617A697B68A7
:102F50009A42F0DB7B6818461837BD4680BD80B5C5
:102F600086B000AFF860B9607A6000237B6109E049
:102F7000BB685A1CBA601B781846AFF300807B69A7
:102F800001337B617A697B689A42F1DB7B68184682
:102F90001837BD4680BD80B483B000AF78604FF075
:102FA000FF3318460C37BD4680BC704780B483B0F1
:102FB00000AF786039603B684FF400525A600023DC
:102FC00018460C37BD4680BC704780B483B000AF54
:102FD0007860012318460C37BD4680BC704780B42A
:102FE00085B000AFF860B9607A60002318461437E6
:102FF000BD4680BC7047000080B586B000AF7860E9
:10300000144A154BD31A7B617B693B61134B1B68D8
:10301000002B02D1114B124A1A60104B1A687B68C0
:1030200013443A699A4207D205F0C6F903460C22C6
:103030001A604FF0FF3309E0084B1B68FB60074B39
:103040001A687B681344054A1360FB6818461837F2
:10305000BD4680BD0050002000040000680700202D
:10306000C008002080B400AF00BFBD4680BC7047E0
:10307000FFF7F8FF0B480C490C4A002302E0D45834
:10308000C4500433C4188C42F9D3094A094C0023B4
:1030900001E013600432A242FBD305F093F9FEF77E
:1030A000F7FF704700000020E801002074D40008FA
:1030B000E8010020BC080020FEE7000080B500AF5A
:1030C000084B1B68074A43F010031360032000F00D
:1030D00031FE0F2000F008F8FFF7CAFD0023184664
:1030E00080BD00BF0020024080B582B000AF786094
:1030F000124B1A68124B1B7819464FF47A73B3FBC4
:10310000F1F3B2FBF3F3184600F03BFE0346002B4D
:1031100001D001230EE07B680F2B0AD800227968CA
:103120004FF0FF3000F011FE064A7B681360002369
:1031300000E0012318460837BD4680BD140000207A
:103140001C0000201800002080B400AF054B1B7845
:103150001A46054B1B681344034A136000BFBD4663
:1031600080BC70471C0000206C07002080B400AFBA
:10317000024B1B681846BD4680BC70476C07002098
:1031800080B584B000AF7860FFF7F0FFB8607B686F
:10319000FB60FB68B3F1FF3F05D00A4B1B781A4672
:1031A000FB681344FB6000BFFFF7E0FF0246BB680B
:1031B000D31AFA689A42F7D800BF00BF1037BD464D
:1031C00080BD00BF1C00002080B586B000AF7860D5
:1031D0000023FB7500233B610023BB600023FB60E1
:1031E0007B68002B01D10123BEE07B689B68002B2C
:1031F0007B689B6A002B09D17B680022DA627B68BE
:10320000002283F824207868FFF764FD786800F0D6
:10321000F1FB0346FB757B689B6A03F01003002BF0
:1032200040F09980FB7D002B40F095807B689B6A85
:1032300023F4885323F0020343F002027B689A626E
:103240007B685A687B68DB691A437B681B7B5B0081
:103250001343BA681343BB607B689B68B3F5807FF8
:1032600003D07B689B68012B02D14FF4807300E090
:1032700000233A6913433B617B681B7D012B19D105
:103280007B681B7B002B09D17B689B69013B5A0340
:103290003B69134343F400633B610BE07B689B6A2B
:1032A00043F020027B689A627B68DB6A43F001028C
:1032B0007B68DA627B681B685B6823F469417B6822
:1032C0001B683A690A435A607B681B689A68284BF6
:1032D00013407A681268B9680B4393607B689B68F7
:1032E000B3F5807F03D07B689B68012B04D17B689A
:1032F0001B69013B1B05FB607B681B68DB6A23F4D1
:1033000070017B681B68FA680A43DA627B681B6895
:103310009A68184B1340BA689A420BD17B68002216
:10332000DA627B689B6A23F0030343F001027B6847
:103330009A6218E07B689B6A23F0120343F0100244
:103340007B689A627B68DB6A43F001027B68DA6221
:103350000123FB7507E07B689B6A43F010027B68E2
:103360009A620123FB75FB7D18461837BD4680BD68
:10337000FDF7E1FFFE0E1FFF80B584B000AF78605F
:103380000023FB737B6893F82430012B01D10223C7
:1033900098E07B68012283F82420786800F0D0FA56
:1033A0000346FB73FB7B002B40F087807B689B6AA6
:1033B00023F4407323F0010343F480727B689A6224
:1033C0007B681B68414A934205D1414B5B6803F41B
:1033D0007023002B15D17B689B6A23F480127B68D5
:1033E0009A627B681B685B6803F48063002B26D0BD
:1033F0007B689B6A23F4405343F480527B689A6253
:103400001DE07B689B6A43F480127B689A627B684C
:103410001B682F4A934204D07B681B682B4A934257
:103420000DD12B4B5B6803F48063002B07D07B68C6
:103430009B6A23F4405343F480527B689A627B6812
:103440009B6A03F48053002B06D07B68DB6A23F071
:1034500006027B68DA6202E07B680022DA627B683F
:10346000002283F824207B681B686FF002021A6038
:103470007B681B689B6803F46023B3F5602F13D14E
:103480007B681B68114A934205D1114B5B6803F4BA
:103490007023002B08D17B681B689A687B681B68C7
:1034A00042F4A0029A600CE07B681B689A687B6813
:1034B0001B6842F480129A6003E07B68002283F864
:1034C0002420FB7B18461037BD4680BD00280140F4
:1034D0000024014080B584B000AF78600023FB7306
:1034E0007B6893F82430012B01D102231AE07B681A
:1034F000012283F82420786800F07CFA0346FB73ED
:10350000FB7B002B09D17B689B6A23F4885323F053
:10351000010343F001027B689A627B68002283F812
:103520002420FB7B18461037BD4680BD90B587B080
:1035300000AF7860396000237B610023FB600023CB
:103540003B61FFF713FE78617B681B689B6803F49F
:103550008073002B0BD07B689B6A43F020027B6852
:103560009A627B68002283F824200123D3E07B68E1
:103570001B685B6803F48073002B31D17B681B6888
:10358000DB6A03F47003002B2AD121E03B68B3F11E
:10359000FF3F1DD03B68002B07D0FFF7E7FD024639
:1035A0007B69D31A3A689A4212D27B681B681B68FF
:1035B00003F00203002B0BD17B689B6A43F00402EB
:1035C0007B689A627B68002283F824200323A2E0B0
:1035D0007B681B681B6803F00203002BD6D070E0E9
:1035E0004F4B1C68022003F071F80346B4FBF3F262
:1035F0007B681B6819694B4B0B40002B18D17B680B
:103600001B68D968484B0B40002B11D17B681B68A5
:103610001969464B0B40002B08D17B681B68D968A1
:10362000434B0B40002B01D1142320E029231EE043
:103630007B681B6819693D4B0B40002B06D17B68EA
:103640001B68D9683A4B0B40002B0DD07B681B6878
:103650001969384B0B40002B08D17B681B68D9686F
:10366000344B0B40002B01D1542300E0FC2302FB20
:1036700003F33B6121E03B68B3F1FF3F1AD03B68A5
:10368000002B07D0FFF772FD02467B69D31A3A6818
:103690009A420FD2FB683A699A420BD97B689B6ABF
:1036A00043F004027B689A627B68002283F824203E
:1036B000032330E0FB680133FB60FB683A699A4200
:1036C000D9D87B681B686FF012021A607B689B6A0E
:1036D00043F400727B689A627B681B689B6803F402
:1036E0006023B3F5602F15D17B681B7B002B11D1B4
:1036F0007B689B6A23F480727B689A627B689B6A12
:1037000003F48053002B05D17B689B6A43F00102D0
:103710007B689A62002318461C37BD4690BD00BFE7
:103720001400002024499224244992009224491232
:10373000922449004992240080B483B000AF78609D
:103740007B681B68DB6C18460C37BD4680BC704735
:1037500080B485B000AF786039600023FB7300232C
:10376000BB607B6893F82430012B01D10223DCE09D
:103770007B68012283F824203B685B68062B1CD8F9
:103780007B681B68596B3B685A6813469B0013445F
:10379000053B1F2202FA03F3DB4319403B6818681C
:1037A0003B685A6813469B001344053B00FA03F23A
:1037B0007B681B680A435A633CE03B685B680C2BE0
:1037C0001CD87B681B68196B3B685A6813469B00C2
:1037D0001344233B1F2202FA03F3DB4319403B68E7
:1037E00018683B685A6813469B001344233B00FA51
:1037F00003F27B681B680A431A631BE07B681B6843
:10380000D96A3B685A6813469B001344413B1F2208
:1038100002FA03F3DB4319403B6818683B685A68B7
:1038200013469B001344413B00FA03F27B681B687C
:103830000A43DA623B681B68092B1CD97B681B684A
:10384000D9683B681A6813465B0013441E3B072285
:1038500002FA03F3DB4319403B6898683B681A6837
:1038600013465B0013441E3B00FA03F27B681B689F
:103870000A43DA6019E07B681B6819693B681A68BB
:1038800013465B001344072202FA03F3DB4319409B
:103890003B6898683B681A6813465B00134400FA5B
:1038A00003F27B681B680A431A613B681B68102B94
:1038B00003D03B681B68112B32D17B681B681D4A03
:1038C000934225D17B681B689B6803F40003002B9F
:1038D00026D17B681B689A687B681B6842F40002EB
:1038E0009A603B681B68102B1AD1134B1B68134A54
:1038F000A2FB03239A0C13469B0013445B00BB609E
:1039000002E0BB68013BBB60BB68002BF9D107E05C
:103910007B689B6A43F020027B689A620123FB73F9
:103920007B68002283F82420FB7B18461437BD46B1
:1039300080BC7047002401401400002083DE1B433C
:1039400080B584B000AF78600023FB600023BB60CB
:103950007B681B689B6803F00103012B40D07B68E8
:103960001B689A687B681B6842F001029A601F4BD3
:103970001B681F4AA2FB03239B0CBB6002E0BB68D1
:10398000013BBB60BB68002BF9D1FFF7EFFBF86090
:103990001FE0FFF7EBFB0246FB68D31A022B18D996
:1039A0007B681B689B6803F00103012B11D07B68C7
:1039B0009B6A43F010027B689A627B68DB6A43F083
:1039C00001027B68DA627B68002283F824200123ED
:1039D00007E07B681B689B6803F00103012BD8D1CB
:1039E000002318461037BD4680BD00BF14000020DC
:1039F00083DE1B4380B584B000AF78600023FB609A
:103A00007B681B689B6803F00103012B2ED17B6848
:103A10001B689A687B681B6822F001029A60FFF7B6
:103A2000A5FBF8601BE0FFF7A1FB0246FB68D31A79
:103A3000022B14D97B681B689B6803F00103012BE0
:103A40000DD17B689B6A43F010027B689A627B68A9
:103A5000DB6A43F001027B68DA62012307E07B68DE
:103A60001B689B6803F00103012BDCD00023184680
:103A70001037BD4680BD000090B587B000AF7860BC
:103A80000023FB750023FB607B6893F82430012B37
:103A900001D1022397E07B68012283F82420786813
:103AA000FFF7A8FF0346FB757868FFF749FF034659
:103AB000FB75FB7D002B40F081807B689B6A23F4C3
:103AC000885323F0020343F002027B689A62404B62
:103AD0001C68022002F0FAFD0346B4FBF3F35B001E
:103AE000FB6002E0FB68013BFB60FB68002BF9D147
:103AF0007B681B689A687B681B6842F008029A60C2
:103B0000FFF734FB38611BE0FFF730FB02463B69EF
:103B1000D31A0A2B14D97B681B689B6803F008032F
:103B2000002B0DD07B689B6A23F0120343F0100238
:103B30007B689A627B68002283F82420012342E09C
:103B40007B681B689B6803F00803002BDCD17B6853
:103B50001B689A687B681B6842F004029A60FFF752
:103B600005FB38611BE0FFF701FB02463B69D31AF6
:103B70000A2B14D97B681B689B6803F00403002B95
:103B80000DD07B689B6A23F0120343F010027B6820
:103B90009A627B68002283F82420012313E07B686B
:103BA0001B689B6803F00403002BDCD17B689B6AD5
:103BB00023F0030343F001027B689A627B680022D2
:103BC00083F82420FB7D18461C37BD4690BD00BFFE
:103BD0001400002080B485B000AF78607B6803F0EB
:103BE0000703FB600C4BDB68BB60BA684FF6FF0352
:103BF0001340BB60FB681A02BB68134343F0BF630A
:103C000043F40033BB60044ABB68D36000BF143781
:103C1000BD4680BC704700BF00ED00E080B400AF3F
:103C2000044BDB681B0A03F007031846BD4680BC43
:103C3000704700BF00ED00E080B483B000AF0346E2
:103C40003960FB7197F90730002B0ADB3B68DAB269
:103C50000C4997F907301201D2B20B4483F80023C4
:103C60000AE03B68DAB20849FB7903F00F03043B32
:103C70001201D2B20B441A7600BF0C37BD4680BC8D
:103C8000704700BF00E100E000ED00E080B489B0C3
:103C900000AFF860B9607A60FB6803F00703FB616E
:103CA000FB69C3F10703042B28BF0423BB61FB6935
:103CB0000433062B02D9FB69033B00E000237B6140
:103CC0004FF0FF32BB6902FA03F3DA43BB681A40D4
:103CD0007B699A404FF0FF317B6901FA03F3D943C6
:103CE0007B680B40134318462437BD4680BC7047A1
:103CF00080B582B000AF78607B68013BB3F1807F14
:103D000001D301230FE00A4A7B68013B53600F2176
:103D10004FF0FF30FFF790FF054B00229A60044BF5
:103D200007221A60002318460837BD4680BD00BF31
:103D300010E000E080B582B000AF78607868FFF7EF
:103D400049FF00BF0837BD4680BD80B586B000AFD3
:103D50000346B9607A60FB7300237B61FFF75EFF67
:103D600078617A68B9687869FFF790FF024697F939
:103D70000F3011461846FFF75FFF00BF1837BD46EA
:103D800080BD80B582B000AF78607868FFF7B0FF83
:103D9000034618460837BD4680BD000080B48BB08E
:103DA00000AF7860396000237B6200233B6269E1E9
:103DB00001227B6A02FA03F3FB613B681B68FA6924
:103DC0001340BB61BA69FB699A4240F058813B6875
:103DD0005B689A4A93425ED0984A934275D8984A53
:103DE000934258D0964A93426FD8964A934252D003
:103DF000944A934269D8944A93424CD0924A93424F
:103E000063D8924A934246D0904A93425DD8122B8F
:103E10002AD8122B59D801A252F823F0973E000855
:103E2000713E0008833E0008C53E0008CB3E0008F6
:103E3000CB3E0008CB3E0008CB3E0008CB3E00083E
:103E4000CB3E0008CB3E0008CB3E0008CB3E00082E
:103E5000CB3E0008CB3E0008CB3E0008CB3E00081E
:103E6000793E00088D3E0008794A934213D02CE039
:103E70003B68DB683B6229E03B68DB6804333B62FC
:103E800024E03B68DB6808333B621FE03B68DB688B
:103E90000C333B621AE03B689B68002B02D1042381
:103EA0003B6213E03B689B68012B05D108233B6212
:103EB0007B68FA691A6109E008233B627B68FA694A
:103EC0005A6103E000233B6200E000BFBB69FF2BA7
:103ED00001D87B6801E07B6804337B61BB69FF2B01
:103EE00002D87B6A9B0002E07B6A083B9B003B6137
:103EF0007B691A680F213B6901FA03F3DB431A401F
:103F0000396A3B6901FA03F31A437B691A603B681B
:103F10005B6803F08053002B00F0B1804D4B9B6930
:103F20004C4A43F0010393614A4B9B6903F0010340
:103F3000BB60BB68484A7B6A9B08023352F8233057
:103F4000FB607B6A03F003039B000F2202FA03F37A
:103F5000DB43FA681340FB607B68404A934213D00E
:103F60007B683F4A93420DD07B683E4A934207D01C
:103F70007B683D4A934201D1032306E0042304E019
:103F8000022302E0012300E000237A6A02F0030228
:103F900092009340FA681343FB602F497B6A9B08A9
:103FA0000233FA6841F823203B685B6803F480130E
:103FB000002B06D02D4B9A682C49BB6913438B60AC
:103FC00006E02A4B9A68BB69DB43284913408B60A3
:103FD0003B685B6803F40013002B06D0234BDA68C0
:103FE0002249BB691343CB6006E0204BDA68BB690A
:103FF000DB431E491340CB603B685B6803F400332E
:10400000002B06D0194B5A681849BB6913434B6003
:1040100006E0164B5A68BB69DB43144913404B60FA
:104020003B685B6803F48033002B21D00F4B1A6888
:104030000E49BB6913430B6021E000BF0000321042
:1040400000003110000022100000211000001210AA
:104050000000111000100240000001400008014063
:10406000000C014000100140001401400004014018
:104070000B4B1A68BB69DB43094913400B607B6A31
:1040800001337B623B681A687B6A22FA03F3002BD8
:104090007FF48EAE00BF00BF2C37BD4680BC70479A
:1040A0000004014080B584B000AF78607B68002BCD
:1040B00001D101232BE17B6893F83D30DBB2002B6B
:1040C00006D17B68002283F83C207868FEF73EFE2C
:1040D0007B68242283F83D207B681B681A687B6814
:1040E0001B6822F001021A607B681B681A687B68F3
:1040F0001B6842F400421A607B681B681A687B6880
:104100001B6822F400421A6002F0E4F9F8607B6850
:104110005B68814A934207D8FB68804A934294BF08
:1041200001230023DBB206E0FB687D4A934294BF83
:1041300001230023DBB2002B01D00123E7E0FB6861
:10414000784AA2FB03239B0CBB607B681B685B68FF
:1041500023F03F017B681B68BA680A435A607B689A
:104160001B681B6A23F03F017B685B686A4A9342C5
:1041700002D8BB68013309E0BB684FF4967202FBBA
:1041800003F3694AA2FB03239B0901337A6812688F
:104190000B4313627B681B68DB6923F44F4222F0F8
:1041A000FF027B685B685C498B4219D8FB68591E2B
:1041B0007B685B685B00B1FBF3F3591C40F6FC7352
:1041C0000B40002B0AD0FB68591E7B685B685B00C4
:1041D000B1FBF3F30133C3F30B0351E004234FE0CE
:1041E0007B689B68002B11D1FB68581E7B6859685F
:1041F0000B465B000B44B0FBF3F30133C3F30B033B
:10420000002B0CBF01230023DBB212E0FB68581E19
:104210007B6859680B469B000B4499000B44B0FB2C
:10422000F3F30133C3F30B03002B0CBF0123002373
:10423000DBB2002B01D0012322E07B689B68002BBE
:104240000ED1FB68581E7B6859680B465B000B4417
:10425000B0FBF3F30133C3F30B0343F400430FE06C
:10426000FB68581E7B6859680B469B000B449900FD
:104270000B44B0FBF3F30133C3F30B0343F44043AC
:10428000796809681343CB617B681B681B6823F05E
:10429000C0017B68DA697B681B6A1A437B681B680C
:1042A0000A431A607B681B689B6823F4034323F06E
:1042B000FF037A6811697A68D26811437A681268D4
:1042C0000B4393607B681B68DB6823F0FF017B680E
:1042D0005A697B689B691A437B681B680A43DA60EA
:1042E0007B681B681A687B681B6842F001021A60D1
:1042F0007B6800221A647B68202283F83D207B685B
:1043000000221A637B68002283F83E2000231846AF
:104310001037BD4680BD00BFA08601007F841E000F
:10432000FF083D0083DE1B43D34D621080B588B08B
:1043300002AFF8607A601A460B467B8113463B81D8
:10434000FEF714FF7861FB6893F83D30DBB2202B59
:1043500040F0E0807B690093192301227049F868DE
:1043600001F0B8FA0346002B01D00223D3E0FB682A
:1043700093F83C30012B01D10223CCE0FB680122F1
:1043800083F83C20FB681B681B6803F00103012BCA
:1043900007D0FB681B681A68FB681B6842F00102C3
:1043A0001A60FB681B681A68FB681B6822F40062CD
:1043B0001A60FB68212283F83D20FB68102283F8F5
:1043C0003E20FB6800221A64FB687A685A62FB6828
:1043D0003A895A85FB685B8D9AB2FB681A85FB683F
:1043E000504ADA6279897B693A6AF86800F0A4FF7A
:1043F0000346002B01D001238DE000233B61FB68C5
:104400001B685B693B61FB681B689B693B613B699F
:1044100066E07A69396AF86801F076FB0346002B9A
:104420000DD0FB681B6C042B07D1FB681B681A6856
:10443000FB681B6842F400721A6001236BE0FB68A2
:104440005B6A1A78FB681B681A61FB685B6A5A1C16
:10445000FB685A62FB685B8D9BB2013B9AB2FB68BA
:104460005A85FB681B8D013B9AB2FB681A85FB6875
:104470001B685B6903F00403042B1BD1FB681B8DD5
:10448000002B17D0FB685B6A1A78FB681B681A61FF
:10449000FB685B6A5A1CFB685A62FB685B8D9BB2C7
:1044A000013B9AB2FB685A85FB681B8D013B9AB2AF
:1044B000FB681A857A69396AF86801F06DFB034672
:1044C000002B0DD0FB681B6C042B07D1FB681B680D
:1044D0001A68FB681B6842F400721A6001231AE034
:1044E000FB681B8D002B94D1FB681B681A68FB6866
:1044F0001B6842F400721A60FB68202283F83D209A
:10450000FB68002283F83E20FB68002283F83C20F1
:10451000002300E0022318461837BD4680BD00BFC7
:10452000020010000000FFFF80B58CB002AFF86001
:104530007A601A460B467B8113463B8100233B621F
:10454000FEF714FE7862FB6893F83D30DBB2202B57
:1045500040F04B827B6A0093192301227F49F8685F
:1045600001F0B8F90346002B01D002233EE2FB68BC
:1045700093F83C30012B01D1022337E2FB68012282
:1045800083F83C20FB681B681B6803F00103012BC8
:1045900007D0FB681B681A68FB681B6842F00102C1
:1045A0001A60FB681B681A68FB681B6822F40062CB
:1045B0001A60FB68222283F83D20FB68102283F8F2
:1045C0003E20FB6800221A64FB687A685A62FB6826
:1045D0003A895A85FB685B8D9AB2FB681A85FB683D
:1045E0005F4ADA6279897B6A3A6BF86800F026FFE5
:1045F0000346002B01D00123F8E1FB681B8D002B43
:1046000013D10023FB61FB681B685B69FB61FB68DE
:104610001B689B69FB61FB69FB681B681A68FB6888
:104620001B6842F400721A60CCE1FB681B8D012B01
:104630001ED1FB681B681A68FB681B6822F4806245
:104640001A6072B600BF0023BB61FB681B685B6920
:10465000BB61FB681B689B69BB61BB69FB681B682E
:104660001A68FB681B6842F400721A6062B635E093
:10467000FB681B8D022B1ED1FB681B681A68FB6848
:104680001B6842F400621A6072B600BF00237B61AF
:10469000FB681B685B697B61FB681B689B697B61CE
:1046A0007B69FB681B681A68FB681B6822F48062E0
:1046B0001A6062B612E0FB681B681A68FB681B6828
:1046C00042F480621A6000233B61FB681B685B69EF
:1046D0003B61FB681B689B693B613B6972E1FB685E
:1046E0001B8D032B00F21F81FB681B8D012B23D137
:1046F0007A6A396BF86801F097FA0346002B01D00B
:10470000012373E1FB681B681A69FB685B6AD2B21C
:104710001A70FB685B6A5A1CFB685A62FB681B8D47
:10472000013B9AB2FB681A85FB685B8D9BB2013B2B
:104730009AB2FB685A8545E1FB681B8D022B52D16A
:104740007B6A00933B6B00220649F86801F0C2F8CF
:104750000346002B08D0012348E100BF02001000EF
:104760000000FFFF0400010072B600BFFB681B6879
:104770001A68FB681B6842F400721A60FB681B68C9
:104780001A69FB685B6AD2B21A70FB685B6A5A1CD2
:10479000FB685A62FB681B8D013B9AB2FB681A8565
:1047A000FB685B8D9BB2013B9AB2FB685A8562B68F
:1047B00000BFFB681B681A69FB685B6AD2B21A709B
:1047C000FB685B6A5A1CFB685A62FB681B8D013BE5
:1047D0009AB2FB681A85FB685B8D9BB2013B9AB26B
:1047E000FB685A85EEE07B6A00933B6B00228149AF
:1047F000F86801F06FF80346002B01D00123F5E0C3
:10480000FB681B681A68FB681B6822F480621A60E8
:1048100072B600BFFB681B681A69FB685B6AD2B29C
:104820001A70FB685B6A5A1CFB685A62FB681B8D36
:10483000013B9AB2FB681A85FB685B8D9BB2013B1A
:104840009AB2FB685A856C4B1B68DB086B4AA2FB6B
:1048500003231A0A13469B001344DA00D31A3B625F
:104860003B6A013B3B623B6A002B18D1FB6800228C
:104870001A63FB68202283F83D20FB68002283F83E
:104880003E20FB681B6C43F02002FB681A6462B692
:1048900000BFFB68002283F83C200123A6E0FB68F0
:1048A0001B685B6903F00403042BD9D1FB681B6808
:1048B0001A68FB681B6842F400721A60FB681B6888
:1048C0001A69FB685B6AD2B21A70FB685B6A5A1C91
:1048D000FB685A62FB681B8D013B9AB2FB681A8524
:1048E000FB685B8D9BB2013B9AB2FB685A8562B64E
:1048F00000BFFB681B681A69FB685B6AD2B21A705A
:10490000FB685B6A5A1CFB685A62FB681B8D013BA3
:104910009AB2FB681A85FB685B8D9BB2013B9AB229
:10492000FB685A854EE07A6A396BF86801F07CF9C9
:104930000346002B01D0012358E0FB681B681A696D
:10494000FB685B6AD2B21A70FB685B6A5A1CFB6830
:104950005A62FB681B8D013B9AB2FB681A85FB68A3
:104960005B8D9BB2013B9AB2FB685A85FB681B6862
:104970005B6903F00403042B24D1FB681B8D032B1C
:1049800007D1FB681B681A68FB681B6822F4806209
:104990001A60FB681B681A69FB685B6AD2B21A70FE
:1049A000FB685B6A5A1CFB685A62FB681B8D013B03
:1049B0009AB2FB681A85FB685B8D9BB2013B9AB289
:1049C000FB685A85FB681B8D002B7FF488AEFB6863
:1049D000202283F83D20FB68002283F83E20FB68FC
:1049E000002283F83C20002300E0022318462837E9
:1049F000BD4680BD040001001400002089B5F814F4
:104A000080B588B002AFF860084611461A460346E2
:104A10007B810B463B811346FB80FEF7A7FB786149
:104A2000FB6893F83D30DBB2202B40F0D9807B69E6
:104A30000093192301226D49F86800F04BFF0346EB
:104A4000002B01D00223CCE0FB6893F83C30012B13
:104A500001D10223C5E0FB68012283F83C20FB68FA
:104A60001B681B6803F00103012B07D0FB681B6860
:104A70001A68FB681B6842F001021A60FB681B6839
:104A80001A68FB681B6822F400621A60FB68212226
:104A900083F83D20FB68402283F83E20FB6800221B
:104AA0001A64FB683A6A5A62FB68BA8C5A85FB68DA
:104AB0005B8D9AB2FB681A85FB684D4ADA62F8880A
:104AC0003A8979897B690193BB6A00930346F86848
:104AD00000F082FD0346002B52D0012381E07A6969
:104AE000B96AF86801F010F80346002B0DD0FB6896
:104AF0001B6C042B07D1FB681B681A68FB681B68DA
:104B000042F400721A6001236BE0FB685B6A1A785A
:104B1000FB681B681A61FB685B6A5A1CFB685A6277
:104B2000FB681B8D013B9AB2FB681A85FB685B8DA5
:104B30009BB2013B9AB2FB685A85FB681B685B69B4
:104B400003F00403042B1BD1FB681B8D002B17D033
:104B5000FB685B6A1A78FB681B681A61FB685B6A12
:104B60005A1CFB685A62FB681B8D013B9AB2FB68BA
:104B70001A85FB685B8D9BB2013B9AB2FB685A8534
:104B8000FB681B8D002BAAD17A69B96AF86801F01D
:104B900003F80346002B0DD0FB681B6C042B07D1D8
:104BA000FB681B681A68FB681B6842F400721A6095
:104BB000012316E0FB681B681A68FB681B6842F457
:104BC00000721A60FB68202283F83D20FB680022F7
:104BD00083F83E20FB68002283F83C20002300E09D
:104BE000022318461837BD4680BD00BF02001000E2
:104BF0000000FFFF80B58CB002AFF8600846114698
:104C00001A4603467B810B463B811346FB800023FB
:104C10003B62FEF7ABFA7862FB6893F83D30DBB29B
:104C2000202B40F050827B6A009319230122824995
:104C3000F86800F04FFE0346002B01D0022343E248
:104C4000FB6893F83C30012B01D102233CE2FB6866
:104C5000012283F83C20FB681B681B6803F00103FA
:104C6000012B07D0FB681B681A68FB681B6842F0C1
:104C700001021A60FB681B681A68FB681B6822F453
:104C800000621A60FB68222283F83D20FB68402204
:104C900083F83E20FB6800221A64FB683A6B5A6274
:104CA000FB68BA8E5A85FB685B8D9AB2FB681A85E1
:104CB000FB68624ADA62F8883A8979897B6A0193EB
:104CC000BB6B00930346F86800F01CFD0346002B05
:104CD00001D00123F8E1FB681B8D002B13D10023C9
:104CE000FB61FB681B685B69FB61FB681B689B6978
:104CF000FB61FB69FB681B681A68FB681B6842F470
:104D000000721A60CCE1FB681B8D012B1ED1FB6881
:104D10001B681A68FB681B6822F480621A6072B60E
:104D200000BF0023BB61FB681B685B69BB61FB685C
:104D30001B689B69BB61BB69FB681B681A68FB68E1
:104D40001B6842F400721A6062B635E0FB681B8D86
:104D5000022B1ED1FB681B681A68FB681B6842F4B3
:104D600000621A6072B600BF00237B61FB681B689B
:104D70005B697B61FB681B689B697B617B69FB6886
:104D80001B681A68FB681B6822F480621A6062B6AE
:104D900012E0FB681B681A68FB681B6842F48062BB
:104DA0001A6000233B61FB681B685B693B61FB6821
:104DB0001B689B693B613B6972E1FB681B8D032BA0
:104DC00000F21F81FB681B8D012B23D17A6AB96B1E
:104DD000F86800F029FF0346002B01D0012373E19E
:104DE000FB681B681A69FB685B6AD2B21A70FB68C1
:104DF0005B6A5A1CFB685A62FB681B8D013B9AB2C6
:104E0000FB681A85FB685B8D9BB2013B9AB2FB681D
:104E10005A8545E1FB681B8D022B52D17B6A0093BA
:104E2000BB6B00220649F86800F054FD0346002BD6
:104E300008D0012348E100BF020010000000FFFF7E
:104E40000400010072B600BFFB681B681A68FB68AB
:104E50001B6842F400721A60FB681B681A69FB68E1
:104E60005B6AD2B21A70FB685B6A5A1CFB685A62B2
:104E7000FB681B8D013B9AB2FB681A85FB685B8D52
:104E80009BB2013B9AB2FB685A8562B600BFFB68D1
:104E90001B681A69FB685B6AD2B21A70FB685B6AAE
:104EA0005A1CFB685A62FB681B8D013B9AB2FB6877
:104EB0001A85FB685B8D9BB2013B9AB2FB685A85F1
:104EC000EEE07B6A0093BB6B00228149F86800F03A
:104ED00001FD0346002B01D00123F5E0FB681B68B0
:104EE0001A68FB681B6822F480621A6072B600BF01
:104EF000FB681B681A69FB685B6AD2B21A70FB68B0
:104F00005B6A5A1CFB685A62FB681B8D013B9AB2B4
:104F1000FB681A85FB685B8D9BB2013B9AB2FB680C
:104F20005A856C4B1B68DB086B4AA2FB03231A0AE9
:104F300013469B001344DA00D31A3B623B6A013BE1
:104F40003B623B6A002B18D1FB6800221A63FB68A6
:104F5000202283F83D20FB68002283F83E20FB6876
:104F60001B6C43F02002FB681A6462B600BFFB684A
:104F7000002283F83C200123A6E0FB681B685B69E4
:104F800003F00403042BD9D1FB681B681A68FB6883
:104F90001B6842F400721A60FB681B681A69FB68A0
:104FA0005B6AD2B21A70FB685B6A5A1CFB685A6271
:104FB000FB681B8D013B9AB2FB681A85FB685B8D11
:104FC0009BB2013B9AB2FB685A8562B600BFFB6890
:104FD0001B681A69FB685B6AD2B21A70FB685B6A6D
:104FE0005A1CFB685A62FB681B8D013B9AB2FB6836
:104FF0001A85FB685B8D9BB2013B9AB2FB685A85B0
:105000004EE07A6AB96BF86800F00EFE0346002B9A
:1050100001D0012358E0FB681B681A69FB685B6AD2
:10502000D2B21A70FB685B6A5A1CFB685A62FB6852
:105030001B8D013B9AB2FB681A85FB685B8D9BB2A6
:10504000013B9AB2FB685A85FB681B685B6903F0F9
:105050000403042B24D1FB681B8D032B07D1FB68B1
:105060001B681A68FB681B6822F480621A60FB6880
:105070001B681A69FB685B6AD2B21A70FB685B6ACC
:105080005A1CFB685A62FB681B8D013B9AB2FB6895
:105090001A85FB685B8D9BB2013B9AB2FB685A850F
:1050A000FB681B8D002B7FF488AEFB68202283F801
:1050B0003D20FB68002283F83E20FB68002283F835
:1050C0003C20002300E0022318462837BD4680BD5F
:1050D000040001001400002089B5F81480B58AB0DE
:1050E00002AFF8607A603B600B467B81FEF73EF8CA
:1050F000F8610023BB61FB6893F83D30DBB2202BE5
:1051000040F01181FB690093192301228849F86856
:1051100000F0E0FB0346002B01D0022304E1FB6812
:1051200093F83C30012B01D10223FDE0FB68012202
:1051300083F83C20FB681B681B6803F00103012B0C
:1051400007D0FB681B681A68FB681B6842F0010205
:105150001A60FB681B681A68FB681B6822F400620F
:105160001A60FB68242283F83D20FB6800221A6441
:10517000FB68704ADA62FB681B681A68FB681B6888
:1051800042F480721A60FB6900933B6800224FF082
:105190000111F86800F09EFB0346002B0DD0FB6860
:1051A0001B681B6803F48073B3F5807F03D1FB6831
:1051B0004FF400721A640323B6E07B89DBB21A460F
:1051C000FB681B6802F0FE021A61FDF7CFFFF86171
:1051D000FB681B685B6903F00203022B0CBF012311
:1051E0000023DBB2FB75FB681B685B6903F480631B
:1051F000B3F5806F0CBF01230023DBB2BB7525E044
:10520000FDF7B4FF0246FB69D31A3A689A4202D30B
:105210003B68002B03D1FB68A02283F83D20FB688C
:105220001B685B6903F00203022B0CBF0123002300
:10523000DBB2FB75FB681B685B6903F48063B3F545
:10524000806F0CBF01230023DBB2BB75FB6893F8B2
:105250003D30DBB2A02B05D0FB7D002B02D1BB7D06
:10526000002BCDD0FB68202283F83D20FB681B6813
:105270005B6903F00203022B29D1FB681B681A68E3
:10528000FB681B6842F400721A6000233B61FB68F4
:105290001B685B693B61FB681B689B693B613B6901
:1052A000FB690093192301222149F86800F012FBE1
:1052B0000346002B01D0012336E0FB68202283F84F
:1052C0003D20FB68002283F83C2000232CE0FB6893
:1052D0001B681A68FB681B6842F400721A60FB685E
:1052E0001B686FF480625A61FB69009319230122E5
:1052F0000F49F86800F0EEFA0346002B01D00123B5
:1053000012E0BB690133BB61BA697B689A42FFF462
:1053100032AFFB68202283F83D20FB68002283F82F
:105320003C20012300E0022318462037BD4680BD03
:10533000020010000000FFFF80B588B002AFF860E7
:105340007A603B600B467B81FB68DB6A7B617B6933
:10535000082B06D07B69012B03D07B6913F5803FB6
:1053600008D1FB681B681A68FB681B6842F48072EE
:105370001A600BE0FB681B6B122B07D1FB681B68E4
:105380001A68FB681B6842F480721A603B680093DD
:105390007B6800224FF00111F86800F09BFA034689
:1053A000002B0DD0FB681B681B6803F48073B3F5FA
:1053B000807F03D1FB684FF400721A64032335E049
:1053C000FB681B69B3F5804F08D17B89DBB21A46B5
:1053D000FB681B6802F0FE021A611BE07B89DB118F
:1053E000DBB203F00603DBB263F00F03DAB2FB6853
:1053F0001B681A613B687A680E49F86800F0E4FAA5
:105400000346002B01D0012310E07B89DAB2FB6850
:105410001B681A613B687A680749F86800F0D4FA9B
:105420000346002B01D0012300E000231846183763
:10543000BD4680BD080001000200010080B588B0B3
:1054400002AFF8607A603B600B467B81FB68DB6AE9
:105450007B61FB681B681A68FB681B6842F480620A
:105460001A607B69082B06D07B69012B03D07B690E
:1054700013F5803F08D1FB681B681A68FB681B683E
:1054800042F480721A600BE0FB681B6B112B07D192
:10549000FB681B681A68FB681B6842F480721A601C
:1054A0003B6800937B6800224FF00111F86800F020
:1054B00011FA0346002B0DD0FB681B681B6803F430
:1054C0008073B3F5807F03D1FB684FF400721A64D8
:1054D000032379E0FB681B69B3F5804F08D17B8912
:1054E000DBB243F00103DAB2FB681B681A615FE0CC
:1054F0007B89DB11DBB203F00603DBB263F00F0341
:10550000DAB2FB681B681A613B687A683049F86850
:1055100000F05AFA0346002B01D0012354E07B89A6
:10552000DAB2FB681B681A613B687A682949F86837
:1055300000F04AFA0346002B01D0012344E0002387
:105540003B61FB681B685B693B61FB681B689B698F
:105550003B613B69FB681B681A68FB681B6842F487
:1055600080721A603B6800937B6800224FF0011143
:10557000F86800F0AFF90346002B0DD0FB681B68FC
:105580001B6803F48073B3F5807F03D1FB684FF48D
:1055900000721A64032317E07B89DB11DBB203F08E
:1055A0000603DBB263F00E03DAB2FB681B681A6114
:1055B0003B687A680749F86800F006FA0346002B52
:1055C00001D0012300E0002318461837BD4680BDF6
:1055D000080001000200010080B588B002AFF86049
:1055E000084611461A4603467B810B463B8113460B
:1055F000FB80FB681B681A68FB681B6842F48072BA
:105600001A607B6A00933B6A00224FF00111F86830
:1056100000F060F90346002B0DD0FB681B681B6887
:1056200003F48073B3F5807F03D1FB684FF40072FD
:105630001A6403235FE07B89DBB21A46FB681B68B0
:1056400002F0FE021A617B6A3A6A2D49F86800F09E
:10565000BBF90346002B01D001234CE000237B6102
:10566000FB681B685B697B61FB681B689B697B61EE
:105670007B697A6A396AF86800F046FA0346002BBB
:105680000DD0FB681B6C042B07D1FB681B681A68E4
:10569000FB681B6842F400721A6001232BE0FB8850
:1056A000012B05D13B89DAB2FB681B681A6121E046
:1056B0003B891B0A9BB2DAB2FB681B681A617A6AE3
:1056C000396AF86800F020FA0346002B0DD0FB6819
:1056D0001B6C042B07D1FB681B681A68FB681B68EE
:1056E00042F400721A60012305E03B89DAB2FB68DC
:1056F0001B681A61002318461837BD4680BD00BFDD
:105700000200010080B588B002AFF860084611467B
:105710001A4603467B810B463B811346FB80FB68A0
:105720001B681A68FB681B6842F480621A60FB6899
:105730001B681A68FB681B6842F480721A607B6AF7
:1057400000933B6A00224FF00111F86800F0C2F8A4
:105750000346002B0DD0FB681B681B6803F48073A5
:10576000B3F5807F03D1FB684FF400721A64032302
:10577000AAE07B89DBB21A46FB681B6802F0FE02D6
:105780001A617B6A3A6A5249F86800F01DF90346CB
:10579000002B01D0012397E000237B61FB681B688D
:1057A0005B697B61FB681B689B697B617B697A6ACB
:1057B000396AF86800F0A8F90346002B0DD0FB68A1
:1057C0001B6C042B07D1FB681B681A68FB681B68FD
:1057D00042F400721A60012376E0FB88012B05D1A8
:1057E0003B89DAB2FB681B681A6121E03B891B0A1E
:1057F0009BB2DAB2FB681B681A617A6A396AF86888
:1058000000F082F90346002B0DD0FB681B6C042BC3
:1058100007D1FB681B681A68FB681B6842F40072BA
:105820001A60012350E03B89DAB2FB681B681A61F9
:105830007A6A396AF86800F067F90346002B0DD0E0
:10584000FB681B6C042B07D1FB681B681A68FB689C
:105850001B6842F400721A60012335E0FB681B6884
:105860001A68FB681B6842F480721A607B6A0093B6
:105870003B6A00224FF00111F86800F02BF8034654
:10588000002B0DD0FB681B681B6803F48073B3F515
:10589000807F03D1FB684FF400721A64032313E086
:1058A0007B89DBB243F00103DAB2FB681B681A6143
:1058B0007B6A3A6A0649F86800F086F80346002BCE
:1058C00001D0012300E0002318461837BD4680BDF3
:1058D0000200010080B584B000AFF860B9603B60A1
:1058E0001346FB7148E03B68B3F1FF3F44D0FDF73E
:1058F0003DFC0246BB69D31A3A689A4202D33B6820
:10590000002B39D1BB681B0CDBB2012B0DD1FB681E
:105910001B685B69DA43BB6813409BB2002B0CBF6A
:1059200001230023DBB21A460CE0FB681B689B696D
:10593000DA43BB6813409BB2002B0CBF012300234A
:10594000DBB21A46FB799A4216D1FB6800221A6331
:10595000FB68202283F83D20FB68002283F83E206C
:10596000FB681B6C43F02002FB681A64FB68002292
:1059700083F83C20012323E0BB681B0CDBB2012B26
:105980000DD1FB681B685B69DA43BB6813409BB2AF
:10599000002B0CBF01230023DBB21A460CE0FB688E
:1059A0001B689B69DA43BB6813409BB2002B0CBF9A
:1059B00001230023DBB21A46FB799A4293D00023DD
:1059C00018461037BD4680BD80B584B000AFF86082
:1059D000B9607A603B6071E0FB681B685B6903F447
:1059E0008063B3F5806F23D1FB681B681A68FB687E
:1059F0001B6842F400721A60FB681B686FF48062D7
:105A00005A61FB6800221A63FB68202283F83D205C
:105A1000FB68002283F83E20FB681B6C43F0040205
:105A2000FB681A64FB68002283F83C20012367E0CE
:105A30007B68B3F1FF3F41D0FDF798FB02463B681E
:105A4000D31A7A689A4202D37B68002B36D1BB689E
:105A50001B0CDBB2012B0CD1FB681B685B69DA43C2
:105A6000BB6813409BB2002B14BF01230023DBB2A1
:105A70000BE0FB681B689B69DA43BB6813409BB271
:105A8000002B14BF01230023DBB2002B16D0FB68D0
:105A900000221A63FB68202283F83D20FB68002265
:105AA00083F83E20FB681B6C43F02002FB681A64FD
:105AB000FB68002283F83C20012321E0BB681B0C1B
:105AC000DBB2012B0CD1FB681B685B69DA43BB6856
:105AD00013409BB2002B14BF01230023DBB20BE069
