:020000040800F2
:10000000F00B0020D1010008E1500008514A00081F
:10001000DD500008E51000087955000800000000D8
:100020000000000000000000000000008D540008E7
:10003000E910000800000000E550000871550008B4
:10004000EB010008EB010008EB010008EB010008E0
:10005000EB010008EB010008EB010008EB010008D0
:10006000EB010008EB010008EB010008EB010008C0
:10007000EB010008EB010008EB010008EB010008B0
:10008000EB010008EB010008EB010008EB010008A0
:10009000EB010008EB010008EB010008EB01000890
:1000A000EB010008EB010008EB010008EB01000880
:1000B000EB010008EB010008EB010008EB01000870
:1000C000EB010008EB010008EB010008EB01000860
:1000D000EB010008EB010008EB010008EB01000850
:1000E000EB010008EB010008EB01000800F002F84A
:1000F00000F05EF814A696E8000CB244B344DA456A
:1001000001D100F055F8BAE80F000FA696E83000CC
:10011000A5EB040504EB0607AAEB0704A7F101070A
:100120004FEA15154FEA3414A4F10104AC4201D38F
:1001300000F03EF813F0010F18BFFB1A43F0010363
:1001400000F001F8DBE71847745A0000945A0000E9
:10015000103A24BF78C878C1FAD8520724BF30C8F3
:1001600030C144BF04680C60704700007047000055
:100170000023002400250026103A28BF78C1FBD8B0
:10018000520728BF30C148BF0B607047642900F098
:10019000C380752900F0C080632900F0E1827329D3
:1001A00000F0E682002070471FB51FBD10B510BDDE
:1001B00000F014FB1146FFF7F7FF05F017FA00F007
:1001C00032FB03B4FFF7F2FF03BC00F039FB000081
:1001D0000948804709480047FEE7FEE7FEE7FEE7DB
:1001E000FEE7FEE7FEE7FEE7FEE7FEE70448054917
:1001F000054A064B7047000075550008ED000008E1
:10020000F0050020F00B0020F0070020F007002090
:1002100053EA020C23D010B54C1084EA530404D5E1
:100220004042C1F1000138BF491E1B4204D5524271
:10023000C3F1000338BF5B1E00F097F914F0804F44
:1002400004D04042C1F1000138BF491E14F0004FF4
:1002500004D05242C3F1000338BF5B1E10BD13B57A
:1002600040424FF0000070EB0104B8BF012001F0E4
:10027000004100281CBF6FF000414FF0FF30AFF38A
:1002800000801CBD0FB41CB50C0007AA009007D05D
:100290004142A14202D32044401E01E04FF0FF3012
:1002A000074B7B4469460190069800F034FA002021
:1002B000002C01D0009908701CBC5DF814FB0000F4
:1002C0009704000070B50C460546012A05D0287831
:1002D000800600D5EA69002302E0012305E05B1CEB
:1002E000934202D2E05C0028F9D1A869E618C01A4E
:1002F000A861286A184428622846AFF3008004E009
:10030000D5E9012114F8010B9047B442F8D32846EF
:10031000AFF3008070BD00002DE9F04106460024D7
:1003200010687529314616A510D0AFF3008000285B
:1003300002DA404213A507E031688A0701D512A509
:1003400002E0490704D511A5012401E0AFF30080C4
:1003500000210A2206F1240709E0B0FBF2FCB0FB01
:10036000F2F302FB1C00303078541846491C002878
:10037000F3D123462A463046BDE8F04100F06DB97E
:10038000000000002D0000002B00000020000000F5
:100390002DE9F0410F460546002028622846E9680D
:1003A000884770B3252805D0D5E901219047286AF0
:1003B000401CF2E7E9682846002688476C28044676
:1003C0000AD0682C08D04C2C35D06A2C31D0742C33
:1003D00031D07A2C2FD016E0E968064628468847A7
:1003E000B042044608D16C2E23D04FF480662846D4
:1003F000E9688847044606E06C2E03D04FF4807607
:1004000001E01EE04026E4B1A4F14100192802D821
:10041000203446F400663A46214628462E60FFF70F
:10042000B5FE60B1012808D0FF1D27F00707083787
:10043000B4E78026DBE70026D9E73F1DAEE720467C
:10044000B2E7286ABDE8F081032A40F2308010F05C
:10045000030C00F0158011F8013BBCF1020F62445F
:1004600098BF11F801CB00F8013B38BF11F8013BF0
:10047000A2F1040298BF00F801CB38BF00F8013B9D
:1004800011F0030300F07881083AC0F0088051F8B9
:10049000043B083A51F804CBA0E80810F5E7121D18
:1004A0005CBF51F8043B40F8043BAFF30080D20737
:1004B00024BF11F8013B11F801CB48BF11F8012B03
:1004C00024BF00F8013B00F801CB48BF00F8012B26
:1004D00070474FF000020429C0F0128010F0030CA6
:1004E00000F01B80CCF1040CBCF1020F18BF00F827
:1004F000012BA8BF20F8022BA1EB0C0100F00DB8D6
:100500005FEAC17C24BF00F8012B00F8012B48BF33
:1005100000F8012B70474FF0000200B513469446D7
:100520009646203922BFA0E80C50A0E80C50B1F14B
:100530002001BFF4F7AF090728BFA0E80C5048BF5F
:100540000CC05DF804EB890028BF40F8042B08BFFD
:10055000704748BF20F8022B11F0804F18BF00F8F9
:10056000012B704770477047704753EA020C00F048
:1005700069802DE9F04B4FF00006002B1FBFB3FA46
:1005800083F503FA05F424FA05F65E4012BF16431C
:10059000B2FA82F502FA05F4C5F120051EBF22FA6F
:1005A00005FC44EA0C04203556EA044C4FEA144496
:1005B00018BF641C4FF000084FF00009904271EB27
:1005C000030C39D3002919BFB1FA81F701FA07F6F4
:1005D000B0FA80F700FA07F6C7F120071EBF20FA2D
:1005E00007FC46EA0C062037B6FBF4FCA7EB050730
:1005F000103F07F01F0BCBF120062CFA06F60CFA81
:100600000BFB44BFB3460026202FA4BF5E464FF02D
:10061000000B5BEA060C08BF4FF0010B19EB0B094E
:1006200048EB0608ABFB027C06FB02CC0BFB03CCC1
:10063000C01B71EB0C01C1E70B4602464146484620
:10064000BDE8F08B13B5084318BF4FF0FF300146EB
:10065000AFF30080BDE81C4070472DE9F0470D4620
:1006600099469246044600F124080168880604D59C
:10067000E06921F01001216000E00120A84201DDC5
:10068000471B00E00027A1697A1902EB0900081A4C
:10069000A0612078C00602D42046AFF30080002677
:1006A00008E0D4E901211AF806009047206A401CAE
:1006B000761C20624E45F4DB2078C0060AD5204621
:1006C000AFF3008006E0D4E9012130209047206A92
:1006D000401C2062381EA7F10107F4DC07E0D4E9D2
:1006E000012118F805009047206A401C2062281E4E
:1006F000A5F10105F3DC2046AFF300802078000669
:1007000002D50220BDE8F0870120FBE701694A1C01
:1007100002610878704700B58FB0CDE90131002142
:10072000059105497944CDE9031011466846FFF764
:100730002FFE0FB000BD0000E5FFFFFFD1E9002351
:100740009A4202D2531C0B601070704710B5436977
:1007500013B1AFF3008001E0FFF7B4FD012010BD3D
:10076000127800F124010A7000224A700122EDE79C
:1007700011684FF0FF32E9E710B5203AC0F00B8066
:10078000B1E81850A0E81850B1E81850A0E8185087
:10079000203ABFF4F5AF5FEA027C24BFB1E81850FD
:1007A000A0E8185044BF18C918C0BDE810405FEA5F
:1007B000827C24BF51F8043B40F8043B08BF7047DB
:1007C000D20728BF31F8023B48BF11F8012B28BFE0
:1007D00020F8023B48BF00F8012B7047754600F037
:1007E0002BF8AE4605006946534620F007008546C3
:1007F00018B020B5FFF7FAFCBDE820404FF0000626
:100800004FF000074FF000084FF0000BAC46ACE88B
:10081000C009ACE8C009ACE8C009ACE8C00921F0E7
:1008200007018D46704710B50446AFF3008020469F
:10083000BDE81040FFF7C5BC00487047100000201D
:1008400001491820ABBEFEE72600020070470000F9
:10085000B0B5044600688168C90709D0816821F0F5
:100860000101816002F036FA21688968C90701D167
:100870000020B0BD054602E08068C007F8D002F055
:1008800029FA411B20680329F6D38168C907F3D0F0
:10089000A06A40F01000A062E06A40F00100E0624F
:1008A0000120B0BDB0B582B004460020019021689F
:1008B0008A68D2074BD1886840F00100886040F216
:1008C0000800C2F2000000684DF68361C4F21B31DB
:1008D000A0FB0101880C01900198A0B1019801389A
:1008E0000190019878B1019801380190019850B1B8
:1008F000019801380190019828B1019801380190C0
:1009000001980028EAD102F0E5F921688968C90751
:100910001CD1054603E000BF8068C00716D102F075
:10092000D9F9411B20680329F6D38168C907F3D19F
:10093000A06A40F01000A062E06A40F00100E062AE
:10094000002084F82400012002B0B0BD002002B0D5
:10095000B0BD000070B584B0054600284FF001001E
:100960001AD00C46C1B128202C6002F091F8204624
:10097000702102221423142602F064FA58B971215E
:1009800028688DF80F100DF10F02702101230096D9
:1009900002F062FD10B1012004B070BD286814217E
:1009A00000910DF10B027021012302F055FB01466D
:1009B00001200029F0D19DF80B0000074FF0000046
:1009C000EAD440F6BE01ADF80C108DF80E001426E6
:1009D00003AA204670210323009602F03DFD002863
:1009E000D9D10A2002F054F80DF10B01284600F08D
:1009F000A1F918B99DF80B0000070BD4BA208DF8A7
:100A00000C001420009003AA20467021012302F05C
:100A100023FDC0E7002004B070BD000040B10346D4
:100A2000002A4FF0020018BF002903D1704700BF11
:100A3000022070471B68002B08BF70472DE9F0416A
:100A400084B016460D4614240DF109021846702193
:100A50000723009402F000FB20B1022004B0BDE89F
:100A6000F08100BF9DF90900002800F15F81C043BB
:100A700081004AB241064FF0530158BF622181EA1A
:100A8000800043003121002A48BF81EA400358B268
:100A90005A00002848BF81EA430250B253000028A0
:100AA00048BF81EA420358B25A00002848BF81EA91
:100AB000430250B25300002848BF81EA420358B2B3
:100AC0005C00002848BF81EA43049DF80A80AC46D8
:100AD00084EA080465B267009DF80B309DF80C208D
:100AE0009DF80DE0002D48BF81EA44077CB27D00EF
:100AF000002C48BF81EA47056CB26F00002C48BF4C
:100B000081EA45077CB27D00002C48BF81EA470599
:100B10006CB26F00002C48BF81EA45077CB27D00B3
:100B2000002C48BF81EA47056CB26F00002C48BF1B
:100B300081EA45077CB27D00002C48BF81EA470569
:100B400085EA030465B26700002D48BF81EA4407C7
:100B50007CB27D00002C48BF81EA47056CB26F0073
:100B6000002C48BF81EA45077CB27D00002C48BFBD
:100B700081EA47056CB26F00002C48BF81EA450747
:100B80007CB27D00002C48BF81EA47056CB26F0043
:100B9000002C48BF81EA45077CB27D00002C48BF8D
:100BA00081EA470585EA020465B26700002D48BF67
:100BB00081EA44077CB27D00002C48BF81EA4705EA
:100BC0006CB26F00002C48BF81EA45077CB27D0003
:100BD000002C48BF81EA47056CB26F00002C48BF6B
:100BE00081EA45077CB27D00002C48BF81EA4705B9
:100BF0006CB26F00002C48BF81EA45077CB27D00D3
:100C0000002C48BF81EA470585EA0E0465B26700FB
:100C1000002D48BF81EA44077CB27D00002C48BF0C
:100C200081EA47056CB26F00002C48BF81EA450796
:100C30007CB27D00002C48BF81EA47056CB26F0092
:100C4000002C48BF81EA45077CB27D00002C48BFDC
:100C500081EA47056CB26F00002C48BF81EA450766
:100C60007CB278009DF80E50002C48BF81EA470006
:100C7000684044B24700002C48BF81EA400778B280
:100C80007C00002848BF81EA470460B26700002862
:100C900048BF81EA440778B27C00002848BF81EA57
:100CA000470460B26700002848BF81EA440778B271
:100CB0007C00002848BF81EA470460B26700002832
:100CC00048BF81EA440778B27C00002848BF81EA27
:100CD00047049DF80F00E1B281427FF4BEAE1801D7
:100CE00040EA083048F2A0614FEA0E2340EA1210B1
:100CF000C0F2010162F31343A0FB01015A1940F64F
:100D00004053C0F20303000DA2FB032340EA01306D
:100D10003060100D40EA03304CF25031401ACCF8EC
:100D20000000002004B0BDE8F08100BF012004B045
:100D3000BDE8F081F0B583B00C460546712100682E
:100D40008DF80B1014270DF10B0270210123009771
:100D5000012602F081FB18B1304603B0F0BD00BFA0
:100D60002868702122460123009702F075F9064693
:100D7000304603B0F0BD0000B0B10068A0B180B54E
:100D800082B043F2AC31ADF8051000218DF80710A8
:100D90004FF0140C0DF1050270210323CDF800C0B3
:100DA00002F05AFB02B080BD01207047F0B58BB055
:100DB0004FF00105B8B10E46A9B104460660EC201B
:100DC000A0803046EC2102221423142702F03AF8C6
:100DD00060B1EE20A0803046EE210222142302F002
:100DE00031F818B1012528460BB0F0BD2068A18864
:100DF0000DF12A0201250092D022012302970195CC
:100E000002F018FC0028EED19DF82A005828EAD1FB
:100E10002068A188B6228DF81220142601250DF134
:100E20001207E0220123CDE90075029602F0A8FD29
:100E30000028D8D1032001F02BFE2068A1881822B9
:100E4000CDE90072882201230296012502F0F2FB0F
:100E50000028C8D1BDF81200DDF81A10E08005980E
:100E6000DDF81E20A060BDF81800DDF82230C4F8BF
:100E70000E10DDF8261000284FF00105A081C4F8FF
:100E80001220C4F81630C4F81A10ACD02068A1881B
:100E9000A0228DF82B2014260DF12B07F52201231B
:100EA000CDE90075029602F06BFD00289BD1272248
:100EB0002068A1888DF82B200122CDE90072F42250
:100EC0000123029602F05CFD054628460BB0F0BDFA
:100ED00040B10346002A4FF0010018BF002903D19A
:100EE000704700BF012070472DE9F04F8BB008928A
:100EF0001A688AB10E469988142006270DF1260536
:100F000002901C461046F7220123CDE9005702F05B
:100F100091FB0146012019B10BB0BDE8F08F00BF75
:100F20009DF82A009DF829109DF82B20000140EA29
:100F30000130D109E28841EAD001C2EB1010B4F9C6
:100F40000A704043B4F90830000BA1EB420178432A
:100F50005943801300EBE120206200EB80008030D9
:100F600000123060226AB4F91070B2F5FA304FEA1C
:100F7000E272A0FB00A662F1000800FB0862AAFB77
:100F8000075100FB082EFA170AFB0211B4F90E6094
:100F90000EFB07112F0AA0FB062C47EA0167A58963
:100FA00017EB0237A7FB05734FEAE67700FB07C78D
:100FB0009DF826B008FB06769DF827704FEA0636A6
:100FC00046EA125242EB212101F5004101FB0535B1
:100FD0009DF828306A1052EAE57107977ED0049395
:100FE000B4F91630B4F91410AAFB03764FEAE3798A
:100FF000CDE905727246A0FB01CE0AFB0966CF1748
:1010000000FB07E002FB036E049A08FB01004FEAB5
:101010000B3141EA1211079A400441EA0211C1F56D
:101020008011CF0740EADC30B7EB4C474FEA510163
:10103000B4F91260814105980EEBC606381A40F6E5
:101040003547A0FB0703B14101FB0731069AB4F90C
:101050001880EB17FFF7DCF8420B42EAC142A2FB13
:1010600002374E13B4F91C5002FB0677A3FB05CEE2
:1010700002FB0672EE1703FB06E302FB0532B4F92E
:101080001A304FEA5C64A0FB0376DD1700FB0566AF
:101090004FEA626E01FB036344EAC212FF0C47EAA7
:1010A0004337801841EB0E01C01941EBE341000AC0
:1010B0000A1240EA01604FEAE871090141EA187139
:1010C00010EB0810514109D4000A40EA0161089868
:1010D000016000200BB0BDE8F08F00BF01200BB015
:1010E000BDE8F08FFEE7000070470000F0B581B06A
:1010F000064640F2E800C2F2000000F14C07384614
:1011000014460D4603F0F0FF38460021324604F045
:1011100071F9384602212A4604F06CF93846042158
:10112000224601B0BDE8F04004F064B940F2E802A4
:10113000C2F20002D2F85414D2F858C40A46002968
:1011400048BF4A4210B584B044F6D35EC1F2620E85
:10115000A2FB0E3400294FEA94114FF47A7401FB7C
:10116000142241F27B4492B24FEA9202ACFB0E3C55
:1011700004FB02F24FF020034FEA524248BF2D23F6
:101180004FEA9C14CDE9001203A218210294FFF744
:1011900079F804B010BD00BF543A2563256C752E54
:1011A000256C754320483A256C7525250000000004
:1011B0002DE9F047824600284FF0010000F0C8807A
:1011C0000C46002900F0C4809046002A00F0C08040
:1011D0001F46002B08BFBDE8F08740F2E805C2F2C9
:1011E0000005DDF8209005F10C0040F2A441FFF766
:1011F00092F9C5E900A4C5F808803B6987CFEB6187
:1012000005F10C0387C340F60007C4F2010700266E
:1012100038464FF48061002285F8209085F880647C
:1012200085F88264C5E90944EC6401F04DFD384657
:101230004FF40071002285F8716401F045FD3846D5
:101240004FF48071002285F8726401F03DFD404644
:10125000002185F87C6403F0A7FB504601F028F8D4
:10126000B0FA80F04009B9F1040F85F86A0471D82A
:10127000012000FA09F010F0160F6BD0A9F104005C
:1012800010F1040F09D805F128002146FFF78EFD63
:10129000B0FA80F0400985F8690405F14C06304643
:1012A000214603F02BFFB0FA80F0400985F8700466
:1012B00001F010FD95F820100446481F4FF60C6110
:1012C000CFF6FF710A4610F1040F38BFA2F2DC52CC
:1012D0002244C5F88424C5F88C44C5F8904410F124
:1012E000040F38BFA1F5FA610819C5F8A004B9F1D7
:1012F000090F4FF00100C5F8AC440BD1214604F0B2
:10130000E5F848B940F20110A5F87804C5F8A444FE
:1013100002E000BF85F8780495F87004B8B1304653
:1013200003F0E2FE13A23046002104F063F815A298
:101330003046022104F05EF845F6B832C0F60002ED
:101340003046042104F056F8304603F021FF002017
:10135000BDE8F08705F124002146FFF7FBFAB0FA5B
:1013600080F0400985F86804A9F1040010F1040F29
:1013700089D992E753595354454D205354415254FF
:10138000494E470053454E534F525320494E4954FE
:1013900049414C495A4544002DE9F04F89B001F0CC
:1013A00099FC40F2E807C2F2000797F8731404466C
:1013B000C9B1D7F89404B969201A884213D3B86820
:1013C0000021002503F0F0FA97F8780497F88114CB
:1013D00087F8735487F8801428B940F20110A7F8F1
:1013E0007804C7F8A44497F8820440F6000801285E
:1013F000C4F2010813D1D7F89804F969201A884279
:101400000DD340464FF400710022002501F05CFC32
:10141000022087F8725487F88204C7F8984497F836
:101420006B0408B3D7F88804201A55281CD307F199
:10143000240007F2544107F58B62FFF7EFFA022808
:101440000BD028B94FF48070A7F86B040CE000BFF4
:10145000D7F88804201AFA2806D30020A7F86B04CE
:1014600087F86804C7F88C4497F82000D7F88434CC
:10147000411FCAB24FF4FA76FC2AA4EB030338BF2B
:101480004FF4FA66B342C0F01181FC2AC7F88444D5
:1014900006D24FF0010A00264FF001090FE000BF0D
:1014A000C11EB1FA81F14FEA5119011FB1FA81F160
:1014B000861E18BF012601284FEA511A14D197F849
:1014C0006A04002548B1012004900521386805917F
:1014D00003A9039500F07AFF60B187F86F5446B313
:1014E000002D3FD155E000BF022822D097F86F545D
:1014F000C5BB4EE0386801F023FA28B1002587F813
:101500006F54B6B1ECE700BF38680A2101F0E0F88B
:10151000B0FA80F14FEA511520B9386800F0F6FFB3
:10152000A7F86204386801F073FA002E87F86F5448
:10153000D6D197F86A0478B10120CDE903000521DE
:101540003868059103A900F041FF28B9386801F017
:10155000F7F9002800F06884002587F86E5497F8A2
:101560006F54B5B1388A798A884218BF002810D0E4
:1015700079B1B7F86224091A101A6422504390FB1B
:10158000F1F0642838BF0246002848BF0022A7F8BF
:10159000662497F86E04B0B1B889F989884218BFFB
:1015A000002810D079B1B7F86024091A101A642203
:1015B000504390FBF1F0642838BF0246002848BF32
:1015C0000022A7F8642497F86904C0B2B0FA80F149
:1015D000490901EA0A01012912D1D7F8900442F21F
:1015E0001071201A884226D3796807F12800C7F8BD
:1015F0009044FFF7DBFBB0FA80F0400987F86904FC
:10160000C0B2002818BF012000EA0A00012812D148
:1016100007F1280007F25C4203A9FFF759FCB0FA72
:1016200080F14909002887F86D141EBF002087F853
:101630006904C7F8904497F86804C0B2B0FA80F122
:10164000490901EA0901012912D1D7F88C0442F2B3
:101650001071201A884223D3796807F12400C7F853
:101660008C44FFF777F9B0FA80F0400987F86804F6
:10167000C0B2002818BF012000EA090001280FD1DC
:1016800007F12400FFF778FB002800F0CD8100204F
:1016900087F86C0487F86804C7F88C4403E000BF3F
:1016A000002087F86C0497F82000411FC9B2FB297D
:1016B00000F28A8097F86F1431B13A8A798A8A42A7
:1016C00018BF002A40F0EE800021A7F8761497F8A2
:1016D0006E2497F86C14D2B2B1FA81F1B2FA82F2A8
:1016E00049095209114301291BD197F87E24C2B937
:1016F00097F8751400294FF0010112D197F8822450
:10170000032A0ED097F87D24022A0AD897F87C1471
:10171000032200294FF0010187F87D2408BFC7F894
:10172000A844092887F87E1453D197F86C0449F629
:101730003F430246002818BF0122D7F85414002660
:101740009942C8BF01263240002887F8752400F06E
:101750008180D7F8582447F22F5081424FF0010082
:1017600010DC43F67F03C0F201039A420AD846F622
:101770006050814208DC42F2F840C0F2010082422F
:1017800002D8002087F8740497F87804002800F045
:101790007B8097F88034B1F5FA4F4FF0020062DA9F
:1017A00044F60746C0F20106B2425CD843F2B100EB
:1017B000C0F201008242184638BF012047F24912A8
:1017C0009142A8BF18464EE00021092887F87E14F0
:1017D000ABD040464FF480610022002501F074FA3E
:1017E00040464FF40071002287F8715401F06CFA02
:1017F00097F8200087F87254082887F8755400F28B
:101800005581DFE810F009005301530153015301E2
:101810005301AF008500C700D7F8AC04201AB0F51B
:10182000FA6FC0F0438197F88204C7F8AC440328EC
:1018300000F03C8197F87D04002840F0378197F84C
:101840007C040121002887F87D1408BFC7F8A8444C
:101850002CE100BF97F87804012187F8741498B13F
:1018600097F88034022097F8731451B948B1984220
:1018700007D0214603F02AFE002840F0178197F890
:101880007314002900F0A68040464FF480610022C6
:10189000002501F019FA87F8715440464FF40071A1
:1018A0000022FFE000293FF40FAFB7F966141329B7
:1018B00000F3C08097F87614002900F0CF8297F8E3
:1018C000771400297FF403AFD7F89C1447F2305205
:1018D000611A9142FFF4FBAE97F8751401220029BA
:1018E00087F877247FF4F3AE97F8821403293FF446
:1018F000EEAE97F87D1401293FF6E9AE97F87C1417
:101900000222002987F87D2408BFC7F8A844DEE634
:10191000D7F8AC0497F87F54201AB0F5FA6F22BFBD
:10192000C7F8AC4485F0010587F87F544FF00006F6
:101930005DB197F8730440B940464FF4007100223E
:1019400001F0C2F987F872642E46324640464FF4E1
:101950008061002E18BF012201F0B6F987F871648A
:10196000A4E000BF97F87304002840F09F80D7F8E8
:10197000AC04201AB0F5FA6FC0F0988097F8801484
:10198000022002292146C7F8AC4408BF012003F019
:101990009DFD8BE0F86997F87F5478B1D7F8AC14C7
:1019A000002DA4EB010108BF4FF4FA60814222BF71
:1019B000C7F8AC4485F0010587F87F54002D69D045
:1019C00097F8730497F87114C0B2084318BF002544
:1019D00061E000BF97F8750490BB97F86C0478B38A
:1019E00097F8740460BB40464FF4806100220025E4
:1019F00001F06AF997F86E0487F8715430B1B9892B
:101A0000F889814218BF002940F0728240464FF4A5
:101A10000071002201F058F987F8725487F8825457
:101A200087F87B5442E000BF012087F86B04C7F8B9
:101A3000884438E689B21E29BFF446AE47E600BFA7
:101A400097F8826440464FF400710022002501F0AF
:101A50003BF9012E04BF87F8825487F87B5497F82E
:101A6000736487F872544EB940464FF400710022F7
:101A7000002501F029F987F872540125B6FA86F09D
:101A8000420940464FF4806101F01EF987F8715415
:101A90000CE000BF00252A4640464FF40071002D9F
:101AA00018BF012201F010F987F8725497F87504F5
:101AB000E0B997F88204032818D097F87D0488B31A
:101AC000D7F8A804201A36D497F87C04002800F030
:101AD000B38040464FF480710022002501F0F4F8F5
:101AE00097F87D04013887F87D04ACE044F6D350C4
:101AF000C1F26200A4FB000188094FF47A7100FB77
:101B000011400026962838BF012640464FF48071C8
:101B1000324601F0D9F887F87C6497F8700468B908
:101B20001CE000BF40464FF480710022002501F008
:101B3000CBF887F87C5497F8700478B197F82000B8
:101B4000D7F8A014421F4FF4FA7312F1040FA4EB5C
:101B5000010138BF40F6C413994203D209B0BDE871
:101B6000F08F00BF97F87914C7F8A04439B3D7F8BD
:101B7000A414611A09097C291ED807F14C042046D7
:101B800003F0B2FA0FF27C622046002103F032FC2F
:101B90000FF280622046022103F02CFC45F6B83299
:101BA000C0F600022046042103F024FC204603F086
:101BB000EFFA09B0BDE8F08F002187F879140138F9
:101BC000042800F20B81DFE800F003D15FAF4B0087
:101BD00007F14C04204603F087FA45F68D32C0F633
:101BE00000022046002103F005FC97F86F0400284E
:101BF00000F01481B7F8623445F6B13203ADC0F697
:101C0000000228461821FEF73DFB204602212A4605
:101C100003F0F0FB398A788A814218BF002900F06E
:101C20003C81002800F03981B7F9663445F6472237
:101C3000C0F60002C9E000BF40464FF480710122A7
:101C4000012501F041F804F1780087F87C54C7F8C9
:101C5000A80497F8700400287FF470AF7EE700BFF7
:101C600007F14C04204603F03FFA0FF2BC52204625
:101C7000002103F0BFFB0FF2BC522046022103F00B
:101C8000B9FB0FF2C052C6E007F14C04204603F046
:101C90002BFA0FF2D8522046002103F0ABFB97F845
:101CA0006C04002800F0E280D7F8540444F6D358BE
:101CB0002023C1F26208002844BF2D234042A0FB2C
:101CC000081296094FF47A7906FB190041F27B4A13
:101CD00080B2800800FB0AF00DF10C0B450C0FF2EE
:101CE000985258461821CDE90065FEF7CBFA2046F8
:101CF00002215A4603F07EFBD7F85804A0FB0812D5
:101D0000930903FB19000FF2845280B2800800FB94
:101D10000AF0460C584618210096FEF7B3FA204602
:101D200004215A46B7E000BF07F14C04204603F0F7
:101D3000DBF90FF21C522046002103F05BFB97F801
:101D40006D04002800F0A080D7F85C0448F21F5111
:101D5000C5F2EB11A0FB010103AD4B090FF2FC42F0
:101D600028461821FEF78EFA92E000BF07F14C04D6
:101D7000204603F0B9F945F68332C0F6000220464A
:101D8000002103F037FB97F86E04002846D0B7F81F
:101D9000603445F6B13203ADC0F600022846182182
:101DA000FEF770FA204602212A4603F023FBB98988
:101DB000F889814218BF00296FD000286DD0B7F98B
:101DC000643445F63C22C0F6000203AD28461821D3
:101DD000FEF758FA204604215CE000BF97F875042E
:101DE000002867D007F14C04204603F07DF945F642
:101DF0007332C0F600022046002103F0FBFA45F6DC
:101E0000BD22C0F600022046022103F0F3FA45F697
:101E1000D822C0F60002204604213CE045F62832D4
:101E2000C0F600022DE000BF38680A2100F050FC27
:101E3000B0FA80F14FEA511520B9386800F066FB1E
:101E4000A7F86004386800F0E3FD87F86E5497F84F
:101E50006F54002D7FF486ABFFF79BBB012187F801
:101E60007614C7F89C44FFF732BC00BF97F86804AB
:101E700045F64A310FF22442C0F60001002808BF9F
:101E80000A462046022106E045F64A35C0F600051E
:101E9000204602212A4603F0ADFA07F14C0003F078
:101EA00077F900281CBF002087F8700409B0BDE84E
:101EB000F08F00BF97F86C0440B397F86E040028C9
:101EC00066D097F86F0400286CD097F88204032836
:101ED00078D145F6F22045F6872145F6BD22C0F6B9
:101EE0000000C0F60001C0F60002FFF7FFF8D4E7DB
:101EF00000283FF48BADB7F964042D2816DB40466B
:101F00004FF400710022002584E500BF45F61C3027
:101F100045F6BD2145F60332C0F60000C0F60001CB
:101F2000C0F60002FFF7E2F8B7E700BF97F88214A7
:101F3000022969D001293FF4B9AD002976D11D28C5
:101F40003FF7B4ADF86900283FF4B0AD97F87304DB
:101F500000287FF4ABAD97F87B040125013087F8AA
:101F60007B0440464FF40071012287F88254C7F881
:101F7000984400F0A9FE97F8750487F87254002879
:101F80007FF494AD97F8820403287FF453AC8DE579
:101F900045F6323045F67921C0F60000C0F6000162
:101FA00008E000BF45F6443045F65731C0F6000062
:101FB000C0F6000145F6B832C0F60002FFF796F809
:101FC0006BE700BF07F14C04204603F08DF897F84B
:101FD0007A0488B3B989F889814218BF00294BD1A6
:101FE00000208DF8180044F22030C4F641400590DE
:101FF00044F65370C4F64940049044F25350C2F280
:102000005400039044E000BFD7F8980444F62061E0
:10201000201A8842FFF44AAD97F87B040328C0F0E9
:102020008F80032087F8820440E500BF40464FF4CC
:1020300000710022002535E503AD2846FFF776F84C
:10204000204600212A4603F0D5F997F86D040028B0
:102050007AD0D7F85C0448F21F51C5F2EB11A0FB0F
:10206000010145F668224B09C0F6000203A81821B9
:10207000FEF708F97DE000BF0028B1D0B7F964345D
:1020800045F65322C0F6000203A81821FEF7FAF81D
:1020900003AD204600212A4603F0ACF945F611367F
:1020A00097F87114C0F6000697F8722445F6C2201E
:1020B00000293346C0F6000008BF0346002A45F653
:1020C000983208BF0646C0F600022846182100963E
:1020D000FEF7D8F8204602212A4603F08BF997F83C
:1020E000800445F6143245F69921C0F60002C0F688
:1020F0000001012808BF0A466BA3022818BF134637
:1021000045F6A732C0F6000228461821FEF7BAF8B5
:10211000204604212A4603F06DF903F0B9F948B1CD
:10212000F86945F6A02145F6AE22C0F60001C0F6DA
:10213000000258E045F6E422C0F6000256E000BF77
:10214000204603F01BFAB1E444F65270C0F252008C
:10215000CDF8170044F22050C5F25220059045F208
:102160005350C4F25250049045F25020C5F245300D
:10217000039003AA2046022103F03CF9398A788AA9
:10218000814218BF002913D14C20ADF8180042F24B
:102190005400C4F24310059044F64C10C4F64700B6
:1021A000049044F25350C2F2540003900CE000BF7C
:1021B0000028E9D0B7F9663445F65D22C0F6000282
:1021C00003A81821FEF75EF803AA2046042103F0B5
:1021D00011F997F8770445F6C62145F66932C0F63D
:1021E0000001C0F60002002808BF0A46204606216A
:1021F00003F000F997F87A0480F0010087F87A0478
:102200004BE600BF53595354454D20524541445964
:10221000000000004D4F4E49544F52494E47204157
:1022200043544956450000004F4C45442054455303
:1022300054000000313238205820363420493243CF
:1022400000000000444953504C4159204F4B0000BE
:10225000424D50323830205445535400505245536B
:10226000533A20256C752068506100004148543273
:10227000302054455354000054454D503A256325B1
:102280006C752E256C7520430000000048554D3AB2
:1022900020256C752E256C7520252500524541445E
:1022A000494E472E2E2E00004F50454E0000000094
:1022B00070B582B004460020019094F824000128F3
:1022C00002D1022002B070BD012084F82400204613
:1022D000FEF7BEFA2046FEF7E5FA28B1002184F8A1
:1022E000241002B070BD00BF0646A06A41F2021180
:1022F00088430230A06240F20800C2F20000056884
:10230000022001F0C5FCB5FBF0F0400001900198FF
:10231000A8B100BF019801380190019878B10198E7
:1023200001380190019850B101980138019001984D
:1023300028B101980138019001980028EAD120685D
:10234000816841F00801816000F0C4FC21688A685E
:1023500012070FD4886840F00400886000F0BAFCCF
:1023600021688968490715D401216FF003023046BE
:1023700022E000BF054602E088680007EAD500F0C9
:10238000A9FC401B21680B28F6D388680007F3D509
:102390000EE000BF054602E080684007E4D500F08B
:1023A00099FC411B20680B29F6D381684907F3D5B6
:1023B000012010216FF01202A36A1A401143A1629A
:1023C000002184F8241002B070BD000070B581B007
:1023D0000022009290F82420012A03D1022108460D
:1023E00001B070BD4A680123062A02EB820E80F814
:1023F000243007D8D0F800C06FF004030CF1340685
:102400000CE000BFD0F800C00C2A87BF0CF12C06EE
:102410006FF040030CF130066FF022030EEB030265
:102420001F23346803FA02F50B6824EA050503FA52
:1024300002F22A433260092B03EB43021AD9DCF87B
:102440000C601E3A072589689540AE43914023F001
:1024500001023143102ACCF80C1015D142F2004190
:10246000C4F201018C4517D0816A41F020018162DC
:1024700001210AE0DCF81030072689689640B34352
:1024800091401943CCF810100021002280F824203C
:10249000084601B070BD00BF89680902F4D4DCF8B9
:1024A0000810102B41F40001CCF80810ECD140F2D8
:1024B0000801C2F2000109684DF68362C4F21B32C2
:1024C000A1FB0212910C01EB8101490000910099DE
:1024D0000029D9D000990139009100990029D3D061
:1024E00000990139009100990029CDD00099013956
:1024F000009100990029C7D00099013900910099F5
:1025000000294FF00001E5D1BFE700000068C06C72
:1025100070470000002804BF01207047B0B5044692
:10252000806A28B121688868C0070CD115E000BF17
:102530000020E06284F82400204600F097F821682B
:102540008868C00709D0886820F00100886000F022
:10255000C1FB21688A68D20726D1A06AC0063AD496
:10256000A06A41F2021290430230A062E069D4E90D
:10257000013240EA030C531EB3FA83F35D0913469C
:10258000B2F5807F18BF2B02207D257B01284CEA05
:1025900045002CD135B3A56A45F02005A562E56A52
:1025A00045F00105E56222E0054602E08868C007C3
:1025B000D3D000F08FFB401B21680328F6D3886836
:1025C000C007F3D0A06A40F01000A062E06A40F0BB
:1025D0000100E062A06AA06A40F01000A062012041
:1025E000B0BD00BFA56903EB4533A3F5C0534D68EB
:1025F000B2F5807F25F4694543EA05034B608B689B
:102600004FF2FD75CFF6E17503EA050343EA0003D7
:102610008B6001D0012A07D122690023CFF6F07325
:1026200003EB025201E000BF0022CB6A23F47003E7
:102630001A43CA62896840F6FE62CFF61F721140E3
:10264000814207D10020E062A16A012262F3010108
:10265000A162B0BDA06A40F0100020F00200A062AC
:10266000E06A40F00100E0620120B0BD80B586B0B4
:10267000014640F60000C4F20100096800F5E0528E
:1026800091424FF00001CDE90411CDE9021101D0D2
:1026900006B080BD41F21801C4F202010A6842F49A
:1026A00000720A600A6802F400720192019A0A68D4
:1026B00042F004020A60096801F0040101910199E5
:1026C0000321CDE9021102A900F0F6F906B080BDA0
:1026D0002DE9F04182B000270D460446019700F035
:1026E000F9FA21688A68D20544D406464868C005CC
:1026F00003D4C86A10F4700F46D040F20800C2F24A
:102700000000076842F292480220C1F2492801F015
:10271000BFFA216844F624130A69B7FBF0F0C2F24D
:1027200092431A4206D1CA6844F62413C0F29203B7
:102730001A425BD00A6912EA080F07D1CA6842F24E
:102740009243C0F249031A4200F0C0800A6949F27C
:102750004923C0F224031A424FF0FC0254D1CF683F
:102760001F4208BF5422019B02FB00F7BB4250D31B
:10277000C3E000BFA06A40F02000A06284F824708B
:10278000012002B0BDE8F0810868800700F1B58043
:10279000681C00F0A880FDB90868800770D508683B
:1027A000800700F1AA800868800769D5086880075B
:1027B00000F1A3800868800762D50868800700F1EF
:1027C0009C80086880075BD508688007E4D594E0A2
:1027D0000868800700F1918000F07CFA801B216876
:1027E000A842F5D908688007F2D449E00A6912EADC
:1027F000080F4FF0290207D1CB6842F29247C0F28E
:1028000049073B4208BF1422019B02FB00F7BB4271
:1028100073D2681C52D05DBB0198B84230D3019886
:10282000013001900198B84267D20198B84227D38D
:102830000198013001900198B8425ED20198B842E7
:102840001ED30198013001900198B84255D20198E9
:10285000B84215D30198013001900198B842DBD3FA
:102860004BE000BF0198013001900198B84235D289
:1028700000F030FA801BA842F4D90198B842F1D296
:10288000A06A40F00400A062002084F82400032025
:1028900002B0BDE8F08100BF0198013001900198BD
:1028A000B8422AD20198013001900198B84224D24E
:1028B0000198013001900198B8421ED20198013070
:1028C00001900198B842E7D317E000BF5422019B62
:1028D00002FB00F7BB429CD30FE000BF21680CE075
:1028E0000868800709D40868800706D4086880074C
:1028F0005CBF08685FEA8070F2D56FF01200086074
:10290000A06A40F40070A062886800F46020B0F50E
:10291000602F01D1207B18B1002002B0BDE8F0810A
:10292000A06A20F48070A062A06AC004F4D4A06AF7
:1029300040F00100A062002002B0BDE8F08100007C
:1029400010B5044690F82400012804BF022010BDF1
:10295000012084F824002046FDF7A4FF20B10020C8
:1029600084F82400012010BD42F2044C2068A16AC2
:10297000C4F2010C40F2013291430CF57F7201F573
:1029800080719042A16229D0A16A21F48011A162D4
:102990004168490504D5A16A012363F30D31A162A1
:1029A000A16A0023C9044FF0000144BFE16A21F08D
:1029B0000601E1626FF0020184F824300160816851
:1029C00001F46021B1F5602F1BD1904214D08168D1
:1029D00041F4A0018160002010BD00BFDCF80010B0
:1029E00011F4702FD0D0A16A41F48011A162DCF8FB
:1029F00000104905CFD4D3E7DCF8001011F4702F94
:102A0000E5D0816841F480118160002010BD000094
:102A1000B0B5044690F82400012804BF0220B0BDE0
:102A20000121206884F824108168C90709D08168D1
:102A300021F00101816000F04DF921688968C90722
:102A40000ED1214651F8280F41F2011220EA02026C
:102A5000002042F001020A60002184F82410B0BD79
:102A6000054602E08068C007EBD000F033F9411B57
:102A700020680329F6D38168C907F3D0A06A2146EC
:102A800040F01000A06251F82C2F0120E1E7000077
:102A9000B0B5044600F01EF9054640F20000C2F24F
:102AA00000000078611C18BF044400BF00F012F958
:102AB000401BA042FAD3B0BD2DE9F04F82B00E68A2
:102AC000002E00F0FD8041F20042C4F20102042316
:102AD00040F2004E904208BF03234FF6FF7CC4F241
:102AE000010E009300240123C1F2100C4FF0000AE4
:102AF0004FF000094BE000BF41F20002C4F20102B6
:102B0000009F904208BF022704F00C030F229A4056
:102B10002BEA020207FA03F34FEA9A051A4346F832
:102B200025204E6840F20C45F202DEF8082054BF22
:102B300022EA080242EA0802C4F20105CEF808209F
:102B40002A68B30254BF22EA080242EA08022A6055
:102B5000B303DEF8042054BF22EA080242EA080266
:102B6000F303CEF80420DEF800204FF0010354BF39
:102B700022EA080242EA0802CEF800200E680AF1B2
:102B8000010A36FA0AF204F1040400F0998003FA0B
:102B90000AFB16EA0B08F1D04E68664512DC122ECD
:102BA00056D8DFE806F0350B4D4955555555555566
:102BB0005555555555555545510000BFD1F80C9008
:102BC00046E000BF4FF6FF72C1F2210296420FDCD1
:102BD0000022C1F2110296421AD00022C1F2120262
:102BE000964215D00022C1F22102964210D02FE069
:102BF0000022C1F2220296420AD00022C1F2310222
:102C0000964205D00022C1F23202964220D100BF86
:102C10008A684AB1012A14BFC0F814B0C0F810B0D5
:102C20004FF0080914E000BF4FF0040910E000BFA6
:102C3000CA6802F104090BE04FF0000908E000BF88
:102C4000CA6802F1080903E0CA6802F10C0900BF72
:102C500002462646B8F5807F24BF0432203E17681E
:102C60000F25B54027EA050509FA06F63543156034
:102C7000CA79D2067FF582AF41F21803C4F202038B
:102C80001A68AEF57E7642F001021A601A6802F008
:102C900001020192019A2AF0030256F802B040F6AE
:102CA0000002C4F20102904208D040F60042C4F291
:102CB000010290427FF420AF012725E7002723E798
:102CC00002B0BDE8F08F0000002A08BF09040161CE
:102CD0007047000040F2EC50C2F2000000687047FC
:102CE000002804BF01207047F0B581B0044690F879
:102CF0003D0028B9002084F83C00204600F0EEFE9C
:102D0000242084F83D002068016821F00101016061
:102D1000016841F400410160016821F40041016053
:102D200001F092F9636848F2A16CC0F2010C40F620
:102D30000011C0F23D0163453CBF48F28041C0F242
:102D40001E01884202D2012001B0F0BD4DF6836120
:102D5000C4F21B31A0FB01122168970CD1F804E0EA
:102D60004FF496762EF03F0545EA92454D60774345
:102D700048F638160D6AC0F24106A7FB067625F024
:102D80003F07634538BF960C721C3A430A62CA6912
:102D900048F2A0664CF6FF77C0F20106B34222EA81
:102DA00007020BD801385B00B0FBF3F001306FF382
:102DB0001F30042898BF04201BE000BFA76801381B
:102DC00057B119277B43B0FBF3F001306FF31F308D
:102DD00070B100F5804007E003EB4303B0FBF3F074
:102DE00001306FF31F3018B100F5004001E000BF63
:102DF00001201043C8610868D4E9072320F0C0000F
:102E0000104318430860886848F2FF3204F10C0749
:102E100090438CCF18431043A6698860C86820F09F
:102E2000FF0038433043C860086840F00100086084
:102E300000202021206484F83D10206384F83E00A7
:102E400001B0F0BD2DE9F04F83B01E469246884692
:102E50000446FFF73FFF94F83D10202924D1216854
:102E6000054600BF886980071AD5FFF733FF401B6E
:102E700021681A28F6D388698007F3D5002020211D
:102E8000206384F83D1084F83E00216C41F020015D
:102E9000216484F83C00022003B0BDE8F08F00BF3D
:102EA00094F83C00012803D1022003B0BDE8F08F64
:102EB0004FF0010984F83C900868C00703D1086806
:102EC00040F0010008600868002720F400600860F6
:102ED000242084F83D000020CFF6FF702764E062D4
:102EE00008F0FE08BAF1010F88BFD1464FF0A00AE2
:102EF0004FF0200B04E000BF01374F4500F0A280E7
:102F00000868002240F48070086020464FF00111EC
:102F10003346009501F0EAFE2168002856D1C1F839
:102F20001080FFF7D7FE21684B694A6994F83D503D
:102F3000A02D054605D013F0020008BF12F48060F2
:102F40001AD084F83DB048690A68800742F40072DC
:102F50000A6045D46FF48060486100BF88698007CB
:102F6000CAD5FFF7B7FE401B21681A28F6D3886937
:102F70008007F3D54AE000BFB6B100BFFFF7AAFE55
:102F8000401BB04288BF84F83DA021684A69486967
:102F900094F83D30A02BD4D012F0020208BF10F4F8
:102FA0008060EBD0CDE700BFFFF794FE84F83DA032
:102FB00021684A69486994F83D30A02BC1D012F0CD
:102FC0000202BED110F48060EED0BAE70868C005F6
:102FD00044BF4FF400702064032003B0BDE8F08FBD
:102FE00000200290486902908869029002988869DE
:102FF00001E000BF806980071AD5FFF76BFE411B17
:1030000020681A29F6D381698907F3D50020202189
:10301000206384F83D1084F83E00216C41F02001CB
:10302000216484F83C00012003B0BDE8F08F00BFAC
:10303000202084F83D00002084F83C0003B0BDE867
:10304000F08F00BF202084F83D00002084F83C0071
:10305000012003B0BDE8F08F2DE9F04784B00446AD
:1030600000201F46164689460290FFF733FE94F86B
:103070003D10202924D10546206800BF81698907B9
:103080001AD5FFF727FE411B20681A29F6D381695C
:103090008907F3D500202021206384F83D1084F8AF
:1030A0003E00216C41F02001216484F83C000220A4
:1030B00004B0BDE8F08700BF94F83C10012903D1AB
:1030C000022004B0BDE8F087012184F83C100168BB
:1030D000C90703D1016841F0010101600168DDF811
:1030E000308021F400610160222184F83D1010211C
:1030F00084F83E100021216466626785618D022795
:10310000C0F201072185A7F10211E162E16A0268BC
:1031100011F5803F42F48062026018BF01293DD161
:10312000016841F48071016020464FF001110022D6
:103130004346009501F0DAFD50B120680068C005F3
:1031400044BF4FF400702064012004B0BDE8F08754
:103150002069B0F5804F27D149F00100C0B2216845
:1031600042460861204639462B4601F0A5FE00285C
:10317000EAD1208D022861D0012849D0002840F0F2
:103180007380002003902068416903918169039155
:103190000399016841F40071016071E00829BFD012
:1031A000216B1129BCD0BFE7062000EAD9162068A0
:1031B00006F1F0010161B91D204642462B4601F09F
:1031C0007BFE0028C0D120685FFA89F101612046AA
:1031D000394642462B4601F06FFE0028B4D100204C
:1031E000039020680022416943460391816903915D
:1031F0000399016841F48071016020464FF001118C
:10320000009501F073FD002897D146F0F100A6E784
:103210002068016821F480610160EFF3108072B6CC
:10322000002003902068416903918169039103990B
:10323000016841F40071016062B621E02068016814
:1032400041F400610160EFF3108072B6002003903A
:10325000206841690391816903910399016821F410
:103260008061016062B60BE02068016841F4806112
:1032700001600021039141690391806903900398E3
:10328000208D002800F0CA8040F208094BF2895ACC
:103290000237C2F20009C1F2F84A23260EE000BF4D
:1032A00010690870606A218D01306062481E2085B7
:1032B000618D01396185010400F0B08080B203287E
:1032C0000CD802282CD001284AD1204641462A4653
:1032D00001F05EFE002800F09C8035E72046414664
:1032E0002A4601F055FE00287FF42EAF2068616A5F
:1032F00000690870606A2268411C208D6162013893
:103300002085638D013B638553695B07D3D580B20C
:103310000328C5D1106820F480601060C0E700BFAA
:103320002046394600224346009501F0DFFC002884
:103330007FF40AAFEFF3108072B62068616A02680A
:1033400042F40072026000690870606A218D0130E9
:103350006062481E2085608D0138608562B658E045
:103360002046394600224346009501F0BFFC002864
:103370007FF4EAAE2068016821F480610160EFF318
:10338000108072B62068616A00690870606A218DD9
:103390000130013960622185618D01396185D9F87B
:1033A0000010C908A1FB0A12110A71430291029987
:1033B00001390291029900293CD021684A695207DB
:1033C00017D4029A013A0292029A9AB34A695207B2
:1033D0000FD4029A013A0292029A5AB34A695207EA
:1033E00007D4029A013A0292029A1AB34A69520722
:1033F000DDD50A6842F400720A6009690170606AEA
:10340000218D01306062481E2085608D0138608505
:1034100062B62068616A006943E700BF202084F833
:103420003D00002084F83E0084F83C0004B0BDE874
:10343000F08700BF00202021206384F83D1084F82D
:103440003E00216C41F02001216462B684F83C000A
:10345000012004B0BDE8F0872DE9F04383B01E469B
:10346000174689460446FFF735FC94F83D1020299D
:1034700024D10546206800BF816989071AD5FFF766
:1034800029FC411B20681A29F6D381698907F3D5E5
:1034900000202021206384F83D1084F83E00216C38
:1034A00041F02001216484F83C00022003B0BDE813
:1034B000F08300BF94F83C10012903D1022003B02F
:1034C000BDE8F083012184F83C100168C90703D1ED
:1034D000016841F001010160016840F2020821F435
:1034E00000610160212184F83D10102184F83E1014
:1034F0000021216467626685618DC0F20108218523
:10350000A8F10211E162E16A0A9E11F5803F18BF3D
:1035100001291DD1016841F48071016020464FF0FE
:10352000011100223346009501F0E0FB50B1206804
:103530000068C00544BF4FF400702064012003B050
:10354000BDE8F0832069B0F5804F07D1FE2015E07B
:103550000829DFD0216B1229DCD0DFE7062000EA42
:10356000D9102168F030086108F106012046324682
:103570002B4601F0A1FC0028E0D1FF20216800EAE1
:10358000090008612046414632462B4601F094FC72
:103590000028D3D1002002902068416902918069FF
:1035A0000290029806E000BF204631462A4601F00C
:1035B0003FFB18BB208D68B3204631462A4601F0F8
:1035C0002FFDD8B9606A2168024612F8013B0B61F1
:1035D0006262628D013A6285228D531E23854F6996
:1035E0007F07E1D51B04DFD0437802300B616062B6
:1035F000608D01386085901E2085D5E7206C0428F9
:103600009CD12068016841F400710160012003B081
:10361000BDE8F0832068016841F40071016020205A
:1036200084F83D00002084F83E0084F83C0003B09C
:10363000BDE8F0832DE9F04F85B00446002099469F
:1036400016460F460490FFF745FB94F83D102029DD
:1036500027D10546206800BF816989071CD5FFF77F
:1036600039FB411B20681A29F6D381698907F3D5F4
:1036700000202021206384F83D1084F83E00206C57
:1036800004F13C0A40F020002064022000218AF866
:10369000001005B0BDE8F08FA2461AF83C1F0129C2
:1036A00004D1022005B0BDE8F08F00BF01228AF8E6
:1036B00000200368DDE90F180E9ADB0703D10368C9
:1036C00043F001030360036823F4006303602220D6
:1036D00084F83D00402084F83E00002020646262AF
:1036E0006185608D394620850020CFF6FF70E0624D
:1036F000204632464B46CDE9008501F0ABF918B1C2
:10370000012005B0BDE8F08F208D022826D00128C9
:103710000ED0002838D10020039020684169039121
:10372000816903910399016841F40071016037E0F8
:103730002068016821F480610160EFF3108072B6A7
:1037400000200390206841690391816903910399E6
:10375000016841F40071016062B621E020680168EF
:1037600041F400610160EFF3108072B60020039015
:10377000206841690391816903910399016821F4EB
:103780008061016062B60BE02068016841F48061ED
:1037900001600021039141690391806903900398BE
:1037A000208D002800F0CC80042740F208094BF25D
:1037B000895BC0F20107C2F20009C1F2F84B23266F
:1037C0000EE000BF10690870606A218D01306062F0
:1037D000481E2085618D01396185010400F0B080AB
:1037E00080B203280CD802282CD001284AD12046C8
:1037F00041462A4601F0CCFB002800F09C807FE780
:10380000204641462A4601F0C3FB00287FF478AFEA
:103810002068616A00690870606A2268411C208D16
:10382000616201382085638D013B638553695B07C5
:10383000D3D580B20328C5D1106820F48060106011
:10384000C0E700BF2046394600224346009501F0FC
:103850004DFA00287FF454AFEFF3108072B6206861
:10386000616A026842F40072026000690870606A6E
:10387000218D01306062481E2085608D0138608591
:1038800062B658E02046394600224346009501F0D2
:103890002DFA00287FF434AF2068016821F480619C
:1038A0000160EFF3108072B62068616A00690870E9
:1038B000606A218D0130013960622185618D013995
:1038C0006185D9F80010C908A1FB0B12110A7143D8
:1038D0000491049901390491049900293CD021688C
:1038E0004A69520717D4049A013A0492049A9AB387
:1038F0004A6952070FD4049A013A0492049A5AB3BF
:103900004A69520707D4049A013A0492049A1AB3F6
:103910004A695207DDD50A6842F400720A600969F3
:103920000170606A218D01306062481E2085608DC3
:103930000138608562B62068616A006943E700BFAC
:10394000202084F83D00002084F83E0000218AF801
:10395000001005B0BDE8F08F00202021206384F81E
:103960003D1084F83E00206C40F02000206462B6D8
:10397000012000218AF8001005B0BDE8F08F00009A
:103980002DE9F04383B0994616460F460446FFF7EB
:10399000A1F994F83D10202924D10546206800BFE4
:1039A000816989071AD5FFF795F9411B20681A2903
:1039B000F6D381698907F3D500202021206384F89C
:1039C0003D1084F83E00216C41F02001216484F810
:1039D0003C00022003B0BDE8F08300BF94F83C1027
:1039E000012903D1022003B0BDE8F083012284F84D
:1039F0003C200368DDE90B180A9ADB0703D1036852
:103A000043F001030360036823F400630360212093
:103A100084F83D00402084F83E000020206462626B
:103A20006185608D394620850020CFF6FF70E06209
:103A3000204632464B46CDE9008501F095F818B195
:103A4000012003B0BDE8F083208D98B9204641469F
:103A50002A4601F0EDF888B3206C0428F0D12068E4
:103A6000016841F400710160012003B0BDE8F083FA
:103A70000004EBD0204641462A4601F0D1FA002846
:103A8000EAD1616A2268084610F8013B1361238D70
:103A90006062581E2085678D013F678557697F07E3
:103AA000E6D50704E4D048781061881C6062981E4F
:103AB0002085618D01396185DAE700BF20680168E2
:103AC00041F400710160202084F83D00002084F85A
:103AD0003E0084F83C0003B0BDE8F08310B586B02A
:103AE000016845F20040C4F2000081424FF000013D
:103AF000CDE90411CDE9021102D006B010BD00BF1E
:103B000041F21804C4F20204216800F5384041F083
:103B100008012160216801F0080101910199C0218B
:103B20000291122103910321059102A9FEF7C4FF1E
:103B3000606840F400106060606800F4001001905C
:103B4000019806B010BD000040F2000040F2EC51B8
:103B5000C2F20000C2F2000100780A681044086056
:103B60007047000080B542F20000C4F20200016814
:103B700041F010010160032000F07AF80F2000F0FE
:103B800005F800F027F8002080BD000070B540F275
:103B90000006C2F2000640F208013278C2F20001CB
:103BA0004FF47A730968B3FBF2F20446B1FBF2F109
:103BB000084600F071FC0F2C4FF0010508D838B909
:103BC0004FF0FF3021460022002500F025F87460F8
:103BD000284670BD82B041F21800C4F202000168AC
:103BE000022241F001010160016801F0010101912F
:103BF0000199416841F080514160406800F0805077
:103C0000009000980420C4F20100016862F31A6178
:103C1000016002B07047000010B54EF60C5CCEF2A9
:103C2000000CDCF80030C3F3022E8EF00704042CE5
:103C300028BF0424BEF103034FF0FF3E0EFA04F444
:103C400038BF0023A14399400EFA03F39A4311436E
:103C500000F00F0200F160430901043A03F56443E8
:103C60006244002848BF02F10C03197010BD000027
:103C70004EF60C51CEF200010A684FF6FF031A40CF
:103C800060F30A2242F0806040F0FD7008607047E7
:103C9000012821D002280DD0102808D141F20401BA
:103CA000C4F202010A6851F8040CC00134D40020A7
:103CB000704700BF80B500F0DBF941F20401C4F2A7
:103CC000020109680222C1F3813102EB4101B0FB1C
:103CD000F1F0BDE88040704741F20400C4F20200F8
:103CE000C16940F202320A40B2F5817F04BF4FF44D
:103CF0000040704701F44071B1F5407F18D0B1F534
:103D0000007F1CBF00207047006A49F640418007D1
:103D100001EAE070704700BFC2F3834015A3185C4E
:103D2000D2030DD440F60012C0F23D02504313E01E
:103D300050F8040C4FF22441800301EAE070704710
:103D40000A6810A3C2F340429A5C41F20023C0F219
:103D50007A03B3FBF2F250430968490248BF704747
:103D60004AF6AB214000CAF6AA21A0FB010148088F
:103D7000704700BF02030405060708090A0B0C0D73
:103D80000E0F1010010200002DE9F04182B0044630
:103D9000007841F21C06C007C4F202064AD030681F
:103DA0005FEAC00808D4306840F080503060306866
:103DB00000F080500190019847F20007C4F200071C
:103DC0003868C00512D4386840F480703860FEF757
:103DD00081FF05463868C00508D4FEF77BFF401B0D
:103DE0006428F7D9032002B0BDE8F081706810F4B0
:103DF000407012D0616801F4407188420DD0706843
:103E000040F24042C4F24222012320F44071136088
:103E10000023C0071360716026D17068616820F4C8
:103E200040700843B8F1000F706003D4306820F090
:103E3000805030602068810707D556F8181CA268AA
:103E400021F44041114346F8181CC00607D556F826
:103E5000180CE16820F48000084346F8180C002094
:103E600002B0BDE8F08100BFFEF734FF054641F225
:103E7000883700BF70688007CFD4FEF72BFF401B48
:103E8000B8424FF00300F5D9EAE70000002804BF6C
:103E9000012070472DE9F04381B042F20008C4F2DE
:103EA00002080446D8F800000D4600F007008142E1
:103EB0000CD9D8F8000020F007002843C8F800000B
:103EC000D8F8000000F00700A8426CD1206841F249
:103ED00004098107C4F2020917D5410705D5D9F8AD
:103EE000001041F4E061C9F80010010705D5D9F8C8
:103EF000001041F46051C9F80010D9F80010A26810
:103F000021F0F0011143C9F80010C00742D1D8F8E0
:103F1000000000F0070085420CD2D8F8000020F025
:103F200007002843C8F80000D8F8000000F0070098
:103F3000A84238D12068410707D5D9F80010E268B7
:103F400021F4E0611143C9F80010000708D5D9F841
:103F50000000216920F4605040EAC100C9F8000067
:103F6000D9F8002002F00C00082841F20020C0F22D
:103F70007A004DD145F63803C2F38341C0F6000301
:103F8000595CD20338D440F60010C0F23D004843DB
:103F90003EE000BF606859F8041C022808D00128E0
:103FA00026D1890306D4012001B0BDE8F08300BF0B
:103FB0008901F8D5D9F8001021F003010843C9F8A8
:103FC0000000FEF787FE064641F28837D9F8000068
:103FD000616800F00C00B0EB810F98D0FEF77AFE1C
:103FE000801BB842F2D9032001B0BDE8F08300BFC6
:103FF0008907D8D5DEE700BFD9F8002045F636039B
:10400000C2F34042C0F600039A5C4843B0FBF2F0B2
:10401000D9F8001045F61E02C1F30311C0F60002E4
:10402000515C40F2080220FA01F140F20400C2F2B1
:1040300000000068C2F200021160FFF7A7FD002037
:1040400001B0BDE8F083000040F2080041F2040135
:10405000C2F20000C4F202010068096845F62E02AF
:10406000C1F30221C0F60002515CC8407047000055
:1040700040F2080041F20401C2F20000C4F2020161
:104080000068096845F62E02C1F3C221C0F600029D
:10409000515CC84070470000002804BF01207047F1
:1040A0002DE9F04182B00446007841F20006C007D5
:1040B000C4F202060CD0706800F00C00042840F036
:1040C00081803068800303D56068002800F0468155
:1040D000207880071BD5706810F00C0F09D070682D
:1040E00000F00C00082840F087807068C00300F1E1
:1040F00083803068800703D52069012840F02E8135
:104100003068616920F0F80040EAC1003060207832
:10411000000713D4207840072CD4E569002D00F067
:104120001881706800F00C00082840F0A780012D6D
:1041300040F00481012002B0BDE8F081A0690028B0
:1041400000F084800020C4F242200121C0F88014D5
:10415000FEF7C0FD054600BF706A800700F1B2801F
:10416000FEF7B8FD401B0228F6D9032002B0BDE8D7
:10417000F08100BFF0695FEAC00808D4F06940F040
:104180008050F061F06900F080500090009847F294
:104190000007C4F200073868C00549D4386840F405
:1041A00080703860FEF796FD054600BF3868C00590
:1041B0003ED4FEF78FFD401B6428F7D9032002B0E0
:1041C000BDE8F081706800F00C00082803D1706829
:1041D000C0033FF576AF61683068002900F00C81BC
:1041E000B1F5A02F00F00081B1F5803F40F01A81B9
:1041F00040F480301CE100BF2069002840F200003C
:10420000C4F2422000F0888001210160FEF762FDC7
:10421000054600BF306880073FF572AFFEF75AFDD4
:10422000401B0228F6D9032002B0BDE8F08100BF90
:10423000E168306A002900F09D80052900F0928035
:10424000012940F0AF8040F00100B1E00020C4F24D
:1042500042200021C0F88014FEF73CFD054600BF57
:10426000706A80077FF556AFFEF734FD401B0228C9
:10427000F6D9032002B0BDE8F08100BF0027C4F2E8
:10428000422700203866FEF725FD022D05460DD198
:104290003068800140F1DE80FEF71CFD401B0228E3
:1042A0004FF00300F4D902B0BDE8F081306880011E
:1042B0004FD5FEF70FFD401B02284FF00300F5D944
:1042C000F1E700BF40F20800C2F20000006844F6C7
:1042D000D351C1F26201A0FB0101480A019000BF65
:1042E00000BF0198411E002801913FF413AF00BFA9
:1042F0000198411E002801913FF40CAF00BF0198C6
:10430000411E002801913FF405AF00BF0198411EF6
:1043100000280191E4D1FDE600210160FEF7DAFCFE
:10432000054600BF306880077FF5F1AEFEF7D2FC8E
:10433000401B02284FF00300F4D9B4E77068216AEB
:1043400000F480328A4209D1616A00F47010884218
:1043500004D1002002B0BDE8F08100BF012002B00E
:10436000BDE8F08140F004003062306A40F00100A6
:104370001EE000BF20F001003062306A20F004002F
:104380003062FEF7A7FC054641F28837306A8007A5
:1043900020D5FEF79FFC401BB8424FF00300F5D933
:1043A00081E700BF20F001003062306A20F0040095
:1043B0003062FEF78FFC054641F28837306A80078D
:1043C00008D4FEF787FC401BB842F7D9032002B09F
:1043D000BDE8F081B8F1000F3FF59FAEF06920F025
:1043E0008050F06199E600BF40F480203060306872
:1043F00040F480301CE000BF20F480303060306832
:1044000020F480203060FEF765FC054630688003AC
:104410007FF55EAEFEF75EFC401B64284FF00300A4
:10442000F4D940E720F480303060306820F48020F8
:104430003060FEF74FFC0546306880033FF548AE1C
:10444000FEF748FC401B6428F6D9032002B0BDE803
:10445000F08100BF206AB0F5803F05D17168A26885
:1044600021F40031114371607168626A21F47411A2
:1044700011430843706001203866FEF72BFC0446A8
:10448000306880013FF565AFFEF724FC001B022871
:104490004FF00300F4D906E7411E0020B0EB116F86
:1044A0001CBF012070474EF21002CEF20002516094
:1044B0004EF62351CEF20001F0230B7007219060DD
:1044C0001160704790F83C20012A4FF0020236D06C
:1044D00010B580F83D200268D2F804E0D2F808C098
:1044E0000C682EF07003234340F2FF74C4F2000402
:1044F000A24253600ADCB2F1804F13D040F2004375
:10450000C4F200039A420DD011E000BF42F600430E
:10451000C4F201039A4205D040F60003C4F200033E
:104520009A4204D149682CF080031943916001211B
:10453000002280F83D1080F83C20BDE81040104675
:104540007047000080B586B0016840F20040C4F2B8
:10455000000081424FF00001CDE90411CDE90211C4
:1045600002D006B080BD00BF41F21801C4F20201C2
:104570000A6800F5823042F004020A60096801F01E
:1045800004010191019940210291022103910591B9
:1045900002A9FEF791FA06B080BD000090F83C3009
:1045A000012B04BF022070474FEAB202032A00F237
:1045B000F1802DE9F043DFE802F003A53B7500BF71
:1045C000036842F600461D6A1A6AC4F2010622F028
:1045D00001021A621A465C6852F818CFB3428E681C
:1045E000D1F800E025F0020545EA06050CD1CE68B9
:1045F000D1E9057824F4407425F00C0526F0040672
:104600003C43354344EA08042CF0730747EA0E079D
:104610005C609F614F6809695F631D629F6947F035
:1046200008079F619F6927F004079F61A6E000BF0C
:10463000036842F600461D6A1A6AC4F2010622F4B3
:1046400080721A621A46D3F804C052F81CEFB342C3
:104650008E680C6825F4007545EA06250FD1CE68F2
:10466000D1E90598360240F2FF4725F44065BE4384
:1046700035432CF4405748EA090647EA061C2EF059
:1046800073072743C3F804C0DF614F680969DF631C
:104690001D62DF6947F00807DF61DF6927F0040763
:1046A000DF616BE0036842F60047D3F820C01A6A66
:1046B000C4F2010722F480521A621A465C6852F86A
:1046C0001C5FD1F800E08E68BB4204D14F6924F42E
:1046D000804444EA87142CF4005747EA063725F44F
:1046E000E64646EA0E265C60DE614E6809691E6495
:1046F0001F62DF6947F40067DF61DF6927F48067C5
:10470000DF613AE0036842F600461D6A1A6AC4F2A5
:10471000010622F010021A621A46D3F804C052F8B9
:10472000184FB3428E68D1F800E025F0200545EA25
:1047300006150FD1CE68D1E905986FF0400725F036
:10474000C00507EA061635432CF4406748EA090617
:1047500047EA860C24F4E64444EA0E27C3F804C072
:104760009F614F6809699F631D629F6947F40067F5
:104770009F619F6927F480679F610902136819434D
:1047800011600021BDE8F043002280F83C2008467B
:10479000704700BF0121002280F83C200846704786
:1047A000002804BF0120704710B590F83D1031B9C2
:1047B000002180F83C10044600F070F820460221E9
:1047C00080F83D10016840F2FF740B68C4F20004E9
:1047D00042F6004CA142C4F2010C15DCB1F1804F4D
:1047E0001AD040F20042C4F20002914214D0A14219
:1047F00018DCB1F1804F1DD040F20042C4F200023B
:10480000914217D01AE000BF614505D040F6000282
:10481000C4F200029142EAD1826823F0700313438C
:10482000A142E6DD614505D040F60002C4F2000277
:10483000914203D1026923F440731343846923F046
:104840008002D0F804E0C368224361450A60CB626D
:10485000C1F828E002D14269CCF8302001224A6137
:104860000B69DB0703D00B6923F001030B6180F8B0
:10487000462080F83E2080F83F2080F8402080F8D5
:10488000412080F8422080F8432080F8442080F8BE
:10489000452080F83D20002010BD0000006840F257
:1048A0000041C4F20001884218BF704781B041F254
:1048B0001C00C4F20200016841F0020101600068BE
:1048C00000F002000090009801B07047C1B10429C7
:1048D00008D0082914BF41224022825C012A05D059
:1048E00016E000BF3F22825C012A11D10222082972
:1048F00010D0042914BF80F8412080F83F200BE03D
:1049000090F83E20012A03D1022280F83E2003E0E5
:104910000120704780F84020006801F01F0101224B
:10492000036A8A4023EA02010162036A42F64441B3
:10493000C4F201011A43A1F14403984202620FD06C
:1049400040F2FF71C4F20001884213DCB0F1804FE5
:104950001CD040F20041C4F20001884216D01CE095
:104960000A6842F400420A6040F2FF71C4F200019A
:104970008842EBDD42F60041C4F20101884205D0D5
:1049800040F60001C4F20001884206D1816801F0BE
:104990000701062904BF00207047016841F00101AA
:1049A000016000207047000080B5026801F01F0C14
:1049B000012303FA0CFE136A42F6004C23EA0E03AD
:1049C0001362C4F2010C136A6245136211D1DCF860
:1049D00020C041F211131CEA030F0AD1D2F820C003
:1049E00040F244431CEA030F03D1536C23F4004309
:1049F0005364D2F820C041F211131CEA030F06D110
:104A0000D2F820C040F244431CEA030F14D0082916
:104A100018D004290AD000294FF0010114BF80F8F2
:104A2000411080F83E10002080BD00BF012180F8B9
:104A30003F10002080BD00BF136823F00103136006
:104A40000829E6D1012180F84010002080BD000037
:104A5000FEE700002DE9F04782B0044600689A4660
:104A60000B9D0A9E0368914643F4806202600268CF
:104A70000F4642F48071016020464FF00111002280
:104A80003346009500F032F950B120680068C00547
:104A900044BF4FF400702064032002B0BDE8F087EB
:104AA00040F202082068C0F2010807F0FE07076123
:104AB0002046414632462B4600F0FEF920B1012047
:104AC00002B0BDE8F08700BF0020019020682A46B0
:104AD000416901918069314601900198204600F0BA
:104AE0009FFAB0B92068BAF1010F09D04FEA192135
:104AF0000161204631462A4600F092FA48B9206802
:104B00005FFA89F10161204631462A4600F088FAB1
:104B100060B1206C0428D2D12068016841F4007192
:104B20000160012002B0BDE8F08700BF20680022CC
:104B30000168334641F48071016020464FF0011155
:104B4000009500F0D3F800289FD147F0010C2768AA
:104B50002046414632462B46C7F810C002B0BDE899
:104B6000F04700F0A9B900002DE9F04383B00446F6
:104B700000680F4601680A9D0B9E41F480719946BA
:104B80009046016020464FF0011100222B4600960E
:104B900000F0ACF850B120680068C00544BF4FF485
:104BA00000702064032003B0BDE8F083206807F0A4
:104BB000FE0101610221C0F2010120462A4633466E
:104BC00000F07AF920B1012003B0BDE8F08300BF06
:104BD000002002902068324641690291806929468E
:104BE00002900298204600F01BFA58B1206C04286D
:104BF000E9D12068016841F400710160012003B02F
:104C0000BDE8F0832068B9F1010F0AD04FEA1821FE
:104C1000016120462946324600F002FA0028E5D11B
:104C200020685FFA88F10161002003B0BDE8F083DD
:104C300070B50368044653F8140F400711D40E46AC
:104C4000481C29D086BB00BF1868400527D4FEF752
:104C500041F8236853F8140F400737D51868400708
:104C6000F2D5002070BD00BF18684007F9D418685D
:104C7000400514D418684007F3D4186840050ED4D2
:104C800018684007EDD41868400508D41868400734
:104C90004FF0000048BF70BD18684005E4D56FF4C0
:104CA00080601860042012E0154603E053F8140FEA
:104CB0004007D6D418684005F1D4FEF70BF8401B26
:104CC0002368B042F2D958694007EFD42020002170
:104CD0002022216384F83D2084F83E10226C10438A
:104CE0002064012084F83C1070BD00002DE9F041E3
:104CF000054600681E46144601F47F0201338FB258
:104D000042D0DDF81880B2F5803F40F087804069DE
:104D10003840C01BB0FA80F04009844240F0C8809F
:104D20004EB924E040693840C01BB0FA80F0400919
:104D3000844240F0BD80FDF7CDFFA0EB080128685C
:104D4000B142EFD941693940C91BB1FA81F1490932
:104D50008C42E7D19BE000BF40693840C01BB0FAED
:104D600080F0400984424FF0000040F0A280FDF73F
:104D7000B1FF286841693940C91BB1FA81F149097D
:104D80008C42E9D183E000BFB2F5803F24D100BF5F
:104D900041693940C91BB1FA81F149098C4240F09F
:104DA000878041693940C91BB1FA81F149098C42B8
:104DB00040F07E8041693940C91BB1FA81F149094F
:104DC0008C4275D141693940C91BB1FA81F1490959
:104DD0008C42DDD06CE000BF81693940C91BB1FA5B
:104DE00081F149098C4263D181693940C91BB1FA0B
:104DF00081F149098C425BD181693940C91BB1FA03
:104E000081F149098C4253D181693940C91BB1FAFA
:104E100081F149098C42DFD04AE000BF8069384007
:104E2000C01BB0FA80F04009844241D146B923E06A
:104E300080693840C01BB0FA80F04009844237D105
:104E4000FDF748FFA0EB08012868B142F0D981695D
:104E50003940C91BB1FA81F149098C42E8D116E009
:104E600080693840C01BB0FA80F0400984424FF09E
:104E7000000018BFBDE8F081FDF72CFF28688169AC
:104E80003940C91BB1FA81F149098C42E8D10020AF
:104E90002021286385F83D1085F83E00296C41F0FB
:104EA0002001296485F83C000120BDE8F08100BFA5
:104EB0000020BDE8F0810000F0B581B00446006834
:104EC0001D4643698FB203EA0701B94202D10020AF
:104ED00001B0F0BD4169164601323CD0490512D4FB
:104EE0007EB300BFFDF7F6FE411B2068B14203D937
:104EF00041693940B9422BD141693940B942E6D0C4
:104F000041694905EED5016841F4007101606FF413
:104F100080614161042000212022216384F83D202A
:104F200084F83E10226C1043206484F83C10012069
:104F300001B0F0BD41693940B942C8D04169490565
:104F4000E1D4FDF7C7FE206841693940B942F1D08C
:104F50002020E0E741694905D5D441693940B9428B
:104F6000B5D041694905CED441693940B942AED086
:104F700041694905C7D441693940B942A7D041695F
:104F80004905C0D441693940B942E3D19FE70000E7
:104F900070B504460068154650F8143F5A063DD4D3
:104FA0000E4629B926E000BF50F8141F490635D433
:104FB0000168C90621D4FDF78DFE411B2068B1426E
:104FC000F2D941694906EFD400202021206384F8FA
:104FD0003D1084F83E00206C40F0200018E000BF37
:104FE000FDF778FE206850F8141F4906ECD50168DB
:104FF000490613D40168C906F2D56FF010010160AB
:1050000000202021206384F83D1084F83E00206CAD
:105010002064002084F83C00012070BD002070BD99
:1050200070B50368044653F8140F000611D40E46F9
:10503000481C29D086BB00BF1868400527D4FDF75F
:1050400049FE236853F8140F000637D51868000688
:10505000F2D5002070BD00BF18680006F9D41868AA
:10506000400514D418680006F3D4186840050ED41F
:1050700018680006EDD41868400508D418680006C2
:105080004FF0000048BF70BD18684005E4D56FF4CC
:1050900080601860042012E0154603E053F8140FF6
:1050A0000006D6D418684005F1D4FDF713FE401B66
:1050B0002368B042F2D958690006EFD420200021BD
:1050C0002022216384F83D2084F83E10226C104396
:1050D0002064012084F83C1070BD0000FEE7000051
:1050E000FEE7000070470000002808BF704780B549
:1050F00004304FF48061FBF70EFA80BDF0B589B043
:10510000044600284FF0010018BF002902D109B061
:10511000F0BD00BF2160002608467821022214233A
:1051200084F804641427FDF78DFE18B1012009B03E
:10513000F0BD00BF8DF8046001AE2568701C0DA1A4
:105140001C22FBF781F92846782132461D2300975F
:10515000FEF782F900284FF00100D8D184F804044A
:10516000201D4FF48061FBF7D6F9204600F010F8BF
:1051700009B0F0BDAE2002B0C8001040817FA1A6EA
:10518000A83FA4D300D580D9F1DA12DB408D14AF4B
:10519000E0B101460068C8B191F80424B2B170B51D
:1051A000AAB00D4640218DF807104BF20001C1F264
:1051B00000012291142622AA782104230096FEF7EA
:1051C0004BF928B101202AB070BD00BF0120704703
:1051D0000DF10700441C291D20468022FBF734F9FD
:1051E00028680DF10702782181230096FEF734F933
:1051F00010B101202AB070BD4BF200112868C1F235
:1052000000012291142622AA782104230096FEF799
:1052100023F918B101202AB070BD00BF05F1840147
:1052200020468022FBF710F928680DF1070278214B
:1052300081230096FEF710F910B101202AB070BD4D
:105240004BF200212868C1F200012291142622AA03
:10525000782104230096FEF7FFF818B101202AB048
:1052600070BD00BF05F5827120468022FBF7ECF887
:1052700028680DF10702782181230096FEF7ECF8EB
:1052800010B101202AB070BD4BF200312868C1F284
:1052900000012291142622AA782104230096FEF709
:1052A000DBF818B101202AB070BD00BF05F5C2714E
:1052B00020468022FBF7C8F828680DF10702782104
:1052C00081230096FEF7C8F810B101202AB070BD06
:1052D0004BF200412868C1F200012291142622AA53
:1052E000782104230096FEF7B7F818B101202AB000
:1052F00070BD00BF05F5017120468022FBF7A4F8C0
:1053000028680DF10702782181230096FEF7A4F8A2
:1053100010B101202AB070BD4BF200512868C1F2D3
:1053200000012291142622AA782104230096FEF778
:1053300093F818B101202AB070BD00BF05F52171A6
:1053400020468022FBF780F828680DF107027821BB
:1053500081230096FEF780F810B101202AB070BDBD
:105360004BF200612868C1F200012291142622AAA2
:10537000782104230096FEF76FF818B101202AB0B7
:1053800070BD00BF05F5417120468022FBF75CF837
:1053900028680DF10702782181230096FEF75CF85A
:1053A00010B101202AB070BD4BF200712868C1F223
:1053B00000012291142622AA782104230096FEF7E8
:1053C0004BF818B101202AB070BD00BF05F561711E
:1053D00020468022FBF738F828680DF10702782173
:1053E00081230096FEF738F8002818BF01202AB064
:1053F00070BD0000072948D8002808BF70472DE974
:10540000F0411446002A3ED0061D0D4606EBC110A1
:105410008021FBF75EF82378ABB3691CC9B26FF04B
:10542000050202EBC11245F6480CE801611C1FFAA7
:1054300082F8C0F6000C4FF0000E00BF84B2A04509
:1054400021D35DB2202DB8BF3F2303EB8303634418
:1054500033F8A05C3553841CC51C13F89E7C13F8EC
:105460009D2CA4B2ADB213F89C3C3755041D725567
:10547000421DA4B292B2335506F802E011F8013B86
:105480000630002BDAD1BDE8F041704770470000CC
:1054900040F2E80CC2F2000CDCF808000068C26AB6
:1054A000BCF8143000207BB1BCF8161061B18B42FF
:1054B0000AD001329A4207D38A4238BF7047DCF8DB
:1054C0001800002818BF0120704700002DE9F041A6
:1054D00040F2E805C2F2000595F87324002A1CBFCB
:1054E0000020BDE8F0810746A868AA690068C36A81
:1054F000AE8A0020CEB3EC8ABCB3A64235D00133CD
:10550000B34232D3A34230D37AB340F60004C4F29C
:105510000104884620464FF4806100220026FDF7F2
:10552000D3FB20464FF40071002285F87164FDF72B
:10553000CBFB05F1140185F87264022F08BF05F159
:105540001601A8680988026851630021FFF7BEF9B7
:1055500001460020002918BFBDE8F081012085F830
:10556000817485F87304C5F89484BDE8F081000067
:10557000FEF7EABA70470000FEE7000070B540F29F
:10558000E805C2F20005E96979B3044695F87104AB
:1055900058BB95F8730440BB95F87B040126013095
:1055A00085F87B0440F60000C4F201004FF400715E
:1055B000012285F88264C5F89844FDF785FB95F8CB
:1055C000750485F8726480B995F88204032808BFD1
:1055D00070BD95F87D0440B995F87C040121002840
:1055E00085F87D1408BFC5F8A84470BD96B0FEF7D5
:1055F000B9FA00240120CDE91144CDE90F440C9003
:1056000010904FF4E0104FF48031022515900CA853
:105610000594CDE90344CDE90D14CDE91351FEF70E
:105620003BFD28B1EFF3108072B600BFFEE700BF6C
:105630000F20CDE906054FF48060CDE9090406A8E6
:1056400002210894FEF722FC20B1EFF3108072B61D
:10565000FEE700BF4FF400400226049002A8029625
:10566000FEF792FB20B1EFF3108072B6FEE700BFA9
:10567000002441F21800CDE90E44CDE90C44C4F2F7
:105680000200016840F6000541F020010160016858
:10569000C4F2010501F0200106910699016800227B
:1056A00041F00401016001684FF4E06701F004017A
:1056B00006910699016841F00801016000684FF405
:1056C000E06100F00800069006982846FDF7FCFA15
:1056D0000C9701270CA92846CDE90D740F96FDF70C
:1056E000EBF940F2700005F5E051C2F200004FF412
:1056F000602204730475C261C0E90014846007610C
:10570000FCF708FF20B1EFF3108072B6FEE700BF90
:10571000CDE90C4740F270040520C2F200040E905F
:105720000CA92046FCF752FE20B1EFF3108072B6B0
:10573000FEE700BF40F29850A5F53441C2F20000E8
:1057400041F6802200264FF48043C0F2060280E832
:105750004600C0E90363C0E90566C0E90766FDF7D6
:10576000BFFA28B1EFF3108072B600BFFEE700BFAA
:10577000A5F58231204640F8301F472144F61F62CC
:10578000CDE90666CDE91166CDE90F66C0E90116DF
:10579000C0E903268661FFF703F828B1EFF3108014
:1057A00072B600BFFEE700BF04F1300506A9284627
:1057B000FEF788FE20B1EFF3108072B6FEE700BF5F
:1057C00060200C9040F2DC500D9000200E90109064
:1057D0000CA928460022FEF7E1FE28B1EFF3108065
:1057E00072B600BFFEE700BF2846FEF7ABFE40F2F0
:1057F000985145F628230927C2F20001C0F600039C
:1058000020462A460097FBF7D3FC28B1EFF310801F
:1058100072B600BFFEE700BFFBF7BEFDFCE700006D
:105820000000000000000102030406070809000050
:10583000000001020304010202030405060708092F
:105840000A0B0C0D0E0F1010000000000000005F8E
:1058500000000007000700147F147F14242A7F2A09
:1058600012231308646236495522500005030000D4
:10587000001C2241000041221C0014083E081408AC
:10588000083E0808005030000008080808080060BA
:1058900060000020100804023E5149453E00427F4E
:1058A000400042615149462141454B311814127F55
:1058B0001027454545393C4A4949300171090503DE
:1058C0003649494936064949291E00363600000046
:1058D0005636000008142241001414141414004118
:1058E0002214080201510906324979413E7E111104
:1058F000117E7F494949363E414141227F41412243
:105900001C7F494949417F090909013E4149497ABA
:105910007F0808087F00417F41002040413F017F10
:10592000081422417F404040407F020C027F7F04E8
:1059300008107F3E4141413E7F090909063E415121
:10594000215E7F09192946464949493101017F01F4
:10595000013F4040403F1F2040201F3F4038403F14
:105960006314081463070870080761514945430030
:105970007F41410002040810200041417F000402E1
:105980000102044040404040000102040020545401
:1059900054787F4844443838444444203844444888
:1059A0007F3854545418087E0901020C5252523E5A
:1059B0007F0804047800447D40002040443D007F7F
:1059C0001028440000417F40007C041804787C08C3
:1059D00004047838444444387C141414080814141B
:1059E000187C7C080404084854545420043F444064
:1059F000203C4040207C1C2040201C3C4030403C4F
:105A000044281028440C5050503C4464544C4400EA
:105A10000836410000007F000000413608000804FD
:105A20000810080000000000000000000000000056
:105A3000000000000000000000000000534F494C2F
:105A40003A2025642525004C494748543A202564CE
:105A5000252500534F494C3A25642525004C4947DC
:105A600048543A2564252500505245535355524514
:105A70003A256C75204850410050554D50204449FE
:105A80005341424C4544003320415454454D5054F9
:105A900053204641494C454400434C4F5345440034
:105AA0005345542050554D502054494D4500434FC7
:105AB0004E54524F4C204143544956450050554D89
:105AC00050204F46460053595354454D204D4F4E9C
:105AD00049544F52494E470056454E54494C415443
