:020000040800F2
:1000000040070020B5010008D9150008D1150008E7
:10001000D515000871020008ED1500080000000069
:10002000000000000000000000000000E1150008D2
:100030007502000800000000DD150008E515000845
:10004000CF010008CF010008CF010008CF01000850
:10005000CF010008CF010008CF010008CF01000840
:10006000CF010008CF010008CF010008CF01000830
:10007000CF010008CF010008CF010008CF01000820
:10008000CF010008CF010008CF010008CF01000810
:10009000CF010008CF010008CF010008CF01000800
:1000A000CF010008CF010008CF010008CF010008F0
:1000B000CF010008CF010008CF010008CF010008E0
:1000C000CF010008CF010008CF010008CF010008D0
:1000D000CF010008CF010008CF010008CF010008C0
:1000E000CF010008CF010008CF01000800F002F89E
:1000F00000F050F814A696E8000CB244B344DA4578
:1001000001D100F047F8BAE80F000FA696E83000DA
:10011000A5EB040504EB0607AAEB0704A7F101070A
:100120004FEA15154FEA3414A4F10104AC4201D38F
:1001300000F030F813F0010F18BFFB1A43F0010371
:1001400000F001F8DBE71847D8160000F8160000A9
:10015000103A24BF78C878C1FAD8520724BF30C8F3
:1001600030C144BF04680C60704700007047000055
:100170000023002400250026103A28BF78C1FBD8B0
:10018000520728BF30C148BF0B6070471FB51FBD65
:1001900010B510BD00F031F81146FFF7F7FF01F080
:1001A00027FA00F04FF803B4FFF7F2FF03BC00F0AA
:1001B00057F800000948804709480047FEE7FEE776
:1001C000FEE7FEE7FEE7FEE7FEE7FEE7FEE7FEE707
:1001D00004480549054A064B70470000E915000828
:1001E000ED000008400100204007002040030020EF
:1001F00040030020704770477047754600F02CF8A8
:10020000AE4605006946534620F00700854618B003
:1002100020B5FFF7DDFFBDE820404FF000064FF0AE
:1002200000074FF000084FF0000BAC46ACE8C009E7
:10023000ACE8C009ACE8C009ACE8C00921F007018E
:100240008D46704710B50446AFF300802046BDE8E8
:100250001040FFF7A8BF00000048704710000020C2
:1002600001491820ABBEFEE72600020070470000DF
:10027000FEE700007047000070B581B000220092D8
:1002800090F82420012A03D10221084601B070BD54
:100290004A680123062A02EB820E80F8243007D830
:1002A000D0F800C06FF004030CF134060CE000BF7E
:1002B000D0F800C00C2A87BF0CF12C066FF0400369
:1002C0000CF130066FF022030EEB03021F2334689B
:1002D00003FA02F50B6824EA050503FA02F22A4341
:1002E0003260092B03EB43021AD9DCF80C601E3A8A
:1002F000072589689540AE43914023F001023143C0
:10030000102ACCF80C1015D142F20041C4F20101C0
:100310008C4517D0816A41F02001816201210AE0F9
:10032000DCF81030072689689640B34391401943A2
:10033000CCF810100021002280F82420084601B0DB
:1003400070BD00BF89680902F4D4DCF80810102BD6
:1003500041F40001CCF80810ECD140F20801C2F2DF
:10036000000109684DF68362C4F21B32A1FB021240
:10037000910C01EB81014900009100990029D9D02D
:1003800000990139009100990029D3D000990139D1
:10039000009100990029CDD0009901390091009970
:1003A0000029C7D0009901390091009900294FF028
:1003B0000001E5D1BFE70000002804BF012070471D
:1003C000B0B50446806A28B121688868C0070CD19E
:1003D00015E000BF0020E06284F82400204600F011
:1003E00097F821688868C00709D0886820F0010064
:1003F000886000F0CDF921688A68D20726D1A06A0A
:10040000C0063AD4A06A41F2021290430230A062C0
:10041000E069D4E9013240EA030C531EB3FA83F3D6
:100420005D091346B2F5807F18BF2B02207D257B26
:1004300001284CEA45002CD135B3A56A45F02005CA
:10044000A562E56A45F00105E56222E0054602E0A5
:100450008868C007D3D000F09BF9401B21680328AF
:10046000F6D38868C007F3D0A06A40F01000A062FD
:10047000E06A40F00100E062A06AA06A40F010006B
:10048000A0620120B0BD00BFA56903EB4533A3F511
:10049000C0534D68B2F5807F25F4694543EA0503F2
:1004A0004B608B684FF2FD75CFF6E17503EA0503EB
:1004B00043EA00038B6001D0012A07D1226900239F
:1004C000CFF6F07303EB025201E000BF0022CB6ACB
:1004D00023F470031A43CA62896840F6FE62CFF6BD
:1004E0001F721140814207D10020E062A16A0122FF
:1004F00062F30101A162B0BDA06A40F0100020F0DB
:100500000200A062E06A40F00100E0620120B0BD9C
:1005100080B586B0014640F60000C4F201000968CB
:1005200000F5E05291424FF00001CDE90411CDE910
:10053000021101D006B080BD41F21801C4F20201DF
:100540000A6842F400720A600A6802F400720192BA
:10055000019A0A6842F004020A60096801F0040185
:10056000019101990321CDE9021102A900F002F8DD
:1005700006B080BD2DE9F04F82B00E68002E00F06D
:10058000FD8041F20042C4F20102042340F2004E19
:10059000904208BF03234FF6FF7CC4F2010E009384
:1005A00000240123C1F2100C4FF0000A4FF00009A3
:1005B0004BE000BF41F20002C4F20102009F9042F2
:1005C00008BF022704F00C030F229A402BEA020214
:1005D00007FA03F34FEA9A051A4346F825204E68B6
:1005E00040F20C45F202DEF8082054BF22EA08026D
:1005F00042EA0802C4F20105CEF808202A68B302D4
:1006000054BF22EA080242EA08022A60B303DEF875
:10061000042054BF22EA080242EA0802F303CEF89B
:100620000420DEF800204FF0010354BF22EA080244
:1006300042EA0802CEF800200E680AF1010A36FAF2
:100640000AF204F1040400F0998003FA0AFB16EAA6
:100650000B08F1D04E68664512DC122E56D8DFE842
:1006600006F0350B4D49555555555555555555556C
:1006700055555545510000BFD1F80C9046E000BFDC
:100680004FF6FF72C1F2210296420FDC0022C1F246
:10069000110296421AD00022C1F21202964215D0DF
:1006A0000022C1F22102964210D02FE00022C1F2B6
:1006B000220296420AD00022C1F23102964205D0AF
:1006C0000022C1F23202964220D100BF8A684AB1AC
:1006D000012A14BFC0F814B0C0F810B04FF00809D8
:1006E00014E000BF4FF0040910E000BFCA6802F137
:1006F00004090BE04FF0000908E000BFCA6802F1EE
:10070000080903E0CA6802F10C0900BF0246264648
:10071000B8F5807F24BF0432203E17680F25B5400E
:1007200027EA050509FA06F635431560CA79D206A7
:100730007FF582AF41F21803C4F202031A68AEF5E6
:100740007E7642F001021A601A6802F001020192FC
:10075000019A2AF0030256F802B040F60002C4F2F1
:100760000102904208D040F60042C4F201029042D9
:100770007FF420AF012725E7002723E702B0BDE87B
:10078000F08F0000002A08BF0904016170470000D3
:1007900040F23C10C2F2000000687047002804BF1D
:1007A00001207047F0B581B0044690F83D0028B9AB
:1007B000002084F83C00204600F0A2F8242084F8B1
:1007C0003D002068016821F001010160016841F4E9
:1007D00000410160016821F40041016000F0CAFAA3
:1007E000636848F2A16CC0F2010C40F60011C0F23F
:1007F0003D0163453CBF48F28041C0F21E01884282
:1008000002D2012001B0F0BD4DF68361C4F21B316C
:10081000A0FB01122168970CD1F804E04FF4967602
:100820002EF03F0545EA92454D60774348F638166D
:100830000D6AC0F24106A7FB067625F03F07634527
:1008400038BF960C721C3A430A62CA6948F2A06625
:100850004CF6FF77C0F20106B34222EA07020BD83A
:1008600001385B00B0FBF3F001306FF31F30042858
:1008700098BF04201BE000BFA768013857B11927B3
:100880007B43B0FBF3F001306FF31F3070B100F524
:10089000804007E003EB4303B0FBF3F001306FF35C
:1008A0001F3018B100F5004001E000BF01201043E7
:1008B000C8610868D4E9072320F0C000104318433A
:1008C0000860886848F2FF3204F10C0790438CCF2F
:1008D00018431043A6698860C86820F0FF003843B9
:1008E0003043C860086840F0010008600020202103
:1008F000206484F83D10206384F83E0001B0F0BD10
:1009000010B586B0016845F20040C4F20000814293
:100910004FF00001CDE90411CDE9021102D006B07B
:1009200010BD00BF41F21804C4F20204216800F5B2
:10093000384041F008012160216801F0080101916F
:100940000199C0210291122103910321059102A96D
:10095000FFF710FE606840F400106060606800F40B
:1009600000100190019806B010BD000040F2000098
:1009700040F23C11C2F20000C2F2000100780A68A5
:10098000104408607047000080B542F20000C4F2D5
:100990000200016841F010010160032000F07AF8C4
:1009A0000F2000F005F800F027F8002080BD0000BF
:1009B00070B540F20006C2F2000640F2080132783B
:1009C000C2F200014FF47A730968B3FBF2F20446F5
:1009D000B1FBF2F1084600F0E1FB0F2C4FF00105EE
:1009E00008D838B94FF0FF3021460022002500F02A
:1009F00025F87460284670BD82B041F21800C4F238
:100A000002000168022241F001010160016801F069
:100A1000010101910199416841F0805141604068B4
:100A200000F08050009000980420C4F2010001689A
:100A300062F31A61016002B07047000010B54EF613
:100A40000C5CCEF2000CDCF80030C3F3022E8EF00A
:100A50000704042C28BF0424BEF103034FF0FF3E1B
:100A60000EFA04F438BF0023A14399400EFA03F3B1
:100A70009A43114300F00F0200F160430901043A68
:100A800003F564436244002848BF02F10C03197067
:100A900010BD00004EF60C51CEF200010A684FF670
:100AA000FF031A4060F30A2242F0806040F0FD70BC
:100AB000086070472DE9F04182B00446007841F2A9
:100AC0001C06C007C4F202064AD030685FEAC008BC
:100AD00008D4306840F080503060306800F08050BA
:100AE0000190019847F20007C4F200073868C0057A
:100AF00012D4386840F480703860FFF749FE05462C
:100B00003868C00508D4FFF743FE401B6428F7D9B6
:100B1000032002B0BDE8F081706810F4407012D07C
:100B2000616801F4407188420DD0706840F2404223
:100B3000C4F24222012320F4407113600023C00755
:100B40001360716026D17068616820F440700843BA
:100B5000B8F1000F706003D4306820F0805030602E
:100B60002068810707D556F8181CA26821F4404177
:100B7000114346F8181CC00607D556F8180CE16852
:100B800020F48000084346F8180C002002B0BDE8AD
:100B9000F08100BFFFF7FCFD054641F2883700BF3A
:100BA00070688007CFD4FFF7F3FD401BB8424FF0C9
:100BB0000300F5D9EAE70000002804BF01207047D0
:100BC0002DE9F04381B042F20008C4F20208044665
:100BD000D8F800000D4600F0070081420CD9D8F883
:100BE000000020F007002843C8F80000D8F80000F3
:100BF00000F00700A8426CD1206841F20409810787
:100C0000C4F2020917D5410705D5D9F8001041F4FF
:100C1000E061C9F80010010705D5D9F8001041F4CA
:100C20006051C9F80010D9F80010A26821F0F00155
:100C30001143C9F80010C00742D1D8F8000000F0F5
:100C4000070085420CD2D8F8000020F007002843A6
:100C5000C8F80000D8F8000000F00700A84238D11A
:100C60002068410707D5D9F80010E26821F4E06157
:100C70001143C9F80010000708D5D9F80000216910
:100C800020F4605040EAC100C9F80000D9F8002003
:100C900002F00C00082841F20020C0F27A004DD189
:100CA00041F61003C2F38341C0F60003595CD2033E
:100CB00038D440F60010C0F23D0048433EE000BF8B
:100CC000606859F8041C022808D0012826D189033D
:100CD00006D4012001B0BDE8F08300BF8901F8D53A
:100CE000D9F8001021F003010843C9F80000FFF70C
:100CF0004FFD064641F28837D9F80000616800F0E0
:100D00000C00B0EB810F98D0FFF742FD801BB8427A
:100D1000F2D9032001B0BDE8F08300BF8907D8D520
:100D2000DEE700BFD9F8002041F60E03C2F34042CF
:100D3000C0F600039A5C4843B0FBF2F0D9F800100B
:100D400041F2F672C1F30311C0F60002515C40F2A9
:100D5000080220FA01F140F20400C2F2000000682B
:100D6000C2F200021160FFF723FE002001B0BDE8CF
:100D7000F083000040F2080041F20401C2F20000DA
:100D8000C4F202010068096841F60602C1F30221BB
:100D9000C0F60002515CC84070470000002804BF44
:100DA000012070472DE9F04182B00446007841F2FD
:100DB0000006C007C4F202060CD0706800F00C00F8
:100DC000042840F081803068800303D560680028E3
:100DD00000F04681207880071BD5706810F00C0F5A
:100DE00009D0706800F00C00082840F08780706817
:100DF000C00300F183803068800703D52069012893
:100E000040F02E813068616920F0F80040EAC100AE
:100E100030602078000713D4207840072CD4E5698F
:100E2000002D00F01881706800F00C00082840F0D8
:100E3000A780012D40F00481012002B0BDE8F081BF
:100E4000A069002800F084800020C4F24220012123
:100E5000C0F88014FFF79CFC054600BF706A80074D
:100E600000F1B280FFF794FC401B0228F6D9032062
:100E700002B0BDE8F08100BFF0695FEAC00808D4A5
:100E8000F06940F08050F061F06900F0805000900F
:100E9000009847F20007C4F200073868C00549D43B
:100EA000386840F480703860FFF772FC054600BF78
:100EB0003868C0053ED4FFF76BFC401B6428F7D9A7
:100EC000032002B0BDE8F081706800F00C00082833
:100ED00003D17068C0033FF576AF616830680029C0
:100EE00000F00C81B1F5A02F00F00081B1F5803F3A
:100EF00040F01A8140F480301CE100BF20690028D6
:100F000040F20000C4F2422000F08880012101601C
:100F1000FFF73EFC054600BF306880073FF572AF23
:100F2000FFF736FC401B0228F6D9032002B0BDE8CB
:100F3000F08100BFE168306A002900F09D8005293A
:100F400000F09280012940F0AF8040F00100B1E054
:100F50000020C4F242200021C0F88014FFF718FCE2
:100F6000054600BF706A80077FF556AFFFF710FC9B
:100F7000401B0228F6D9032002B0BDE8F08100BF73
:100F80000027C4F2422700203866FFF701FC022D3B
:100F900005460DD13068800140F1DE80FFF7F8FB97
:100FA000401B02284FF00300F4D902B0BDE8F081E5
:100FB000306880014FD5FFF7EBFB401B02284FF054
:100FC0000300F5D9F1E700BF40F20800C2F20000CB
:100FD000006844F6D351C1F26201A0FB0101480A46
:100FE000019000BF00BF0198411E002801913FF40D
:100FF00013AF00BF0198411E002801913FF40CAFD0
:1010000000BF0198411E002801913FF405AF00BFC9
:101010000198411E00280191E4D1FDE60021016004
:10102000FFF7B6FB054600BF306880077FF5F1AEDD
:10103000FFF7AEFB401B02284FF00300F4D9B4E7E2
:101040007068216A00F480328A4209D1616A00F432
:101050007010884204D1002002B0BDE8F08100BFCA
:10106000012002B0BDE8F08140F004003062306A37
:1010700040F001001EE000BF20F001003062306A45
:1010800020F004003062FFF783FB054641F2883709
:10109000306A800720D5FFF77BFB401BB8424FF03A
:1010A0000300F5D981E700BF20F001003062306A0B
:1010B00020F004003062FFF76BFB054641F28837F1
:1010C000306A800708D4FFF763FB401BB842F7D9AA
:1010D000032002B0BDE8F081B8F1000F3FF59FAEEC
:1010E000F06920F08050F06199E600BF40F4802064
:1010F0003060306840F480301CE000BF20F4803065
:101100003060306820F480203060FFF741FB0546F6
:10111000306880037FF55EAEFFF73AFB401B642822
:101120004FF00300F4D940E720F48030306030689D
:1011300020F480203060FFF72BFB054630688003E9
:101140003FF548AEFFF724FB401B6428F6D9032087
:1011500002B0BDE8F08100BF206AB0F5803F05D144
:101160007168A26821F40031114371607168626A8C
:1011700021F4741111430843706001203866FFF7B1
:1011800007FB0446306880013FF565AFFFF700FBC1
:10119000001B02284FF00300F4D906E7411E00208F
:1011A000B0EB116F1CBF012070474EF21002CEF25F
:1011B000000251604EF62351CEF20001F0230B7075
:1011C000072190601160704790F83C20012A4FF091
:1011D000020236D010B580F83D200268D2F804E053
:1011E000D2F808C00C682EF07003234340F2FF745D
:1011F000C4F20004A24253600ADCB2F1804F13D063
:1012000040F20043C4F200039A420DD011E000BF47
:1012100042F60043C4F201039A4205D040F60003AF
:10122000C4F200039A4204D149682CF080031943A8
:1012300091600121002280F83D1080F83C20BDE83B
:10124000104010467047000080B586B0016840F23B
:101250000040C4F2000081424FF00001CDE90411CA
:10126000CDE9021102D006B080BD00BF41F21801E5
:10127000C4F202010A6800F5823042F004020A60FA
:10128000096801F0040101910199402102910221B4
:101290000391059102A9FFF76DF906B080BD00002A
:1012A00090F83C30012B04BF022070474FEAB20295
:1012B000032A00F2F1802DE9F043DFE802F003A5F4
:1012C0003B7500BF036842F600461D6A1A6AC4F205
:1012D000010622F001021A621A465C6852F818CF21
:1012E000B3428E68D1F800E025F0020545EA060514
:1012F0000CD1CE68D1E9057824F4407425F00C05B2
:1013000026F004063C43354344EA08042CF07307F6
:1013100047EA0E075C609F614F6809695F631D6261
:101320009F6947F008079F619F6927F004079F6145
:10133000A6E000BF036842F600461D6A1A6AC4F2BE
:10134000010622F480721A621A46D3F804C052F8D9
:101350001CEFB3428E680C6825F4007545EA06253B
:101360000FD1CE68D1E90598360240F2FF4725F447
:101370004065BE4335432CF4405748EA090647EA26
:10138000061C2EF073072743C3F804C0DF614F68C3
:101390000969DF631D62DF6947F00807DF61DF6904
:1013A00027F00407DF616BE0036842F60047D3F8DB
:1013B00020C01A6AC4F2010722F480521A621A4647
:1013C0005C6852F81C5FD1F800E08E68BB4204D123
:1013D0004F6924F4804444EA87142CF4005747EA08
:1013E000063725F4E64646EA0E265C60DE614E6866
:1013F00009691E641F62DF6947F40067DF61DF6906
:1014000027F48067DF613AE0036842F600461D6A10
:101410001A6AC4F2010622F010021A621A46D3F8C0
:1014200004C052F8184FB3428E68D1F800E025F09E
:10143000200545EA06150FD1CE68D1E905986FF071
:10144000400725F0C00507EA061635432CF440672F
:1014500048EA090647EA860C24F4E64444EA0E27E3
:10146000C3F804C09F614F6809699F631D629F694B
:1014700047F400679F619F6927F480679F610902B5
:101480001368194311600021BDE8F043002280F881
:101490003C200846704700BF0121002280F83C2014
:1014A00008467047002804BF0120704710B590F827
:1014B0003D1031B9002180F83C10044600F070F86E
:1014C0002046022180F83D10016840F2FF740B684D
:1014D000C4F2000442F6004CA142C4F2010C15DC37
:1014E000B1F1804F1AD040F20042C4F200029142A2
:1014F00014D0A14218DCB1F1804F1DD040F200425F
:10150000C4F20002914217D01AE000BF614505D035
:1015100040F60002C4F200029142EAD1826823F050
:1015200070031343A142E6DD614505D040F6000299
:10153000C4F20002914203D1026923F440731343C1
:10154000846923F08002D0F804E0C3682243614537
:101550000A60CB62C1F828E002D14269CCF83020A1
:1015600001224A610B69DB0703D00B6923F00103F9
:101570000B6180F8462080F83E2080F83F2080F8FC
:10158000402080F8412080F8422080F8432080F8F5
:10159000442080F8452080F83D20002010BD000048
:1015A000006840F20041C4F20001884218BF704751
:1015B00081B041F21C00C4F20200016841F0020156
:1015C0000160006800F002000090009801B07047D0
:1015D000FEE70000FEE70000FEE7000070470000A5
:1015E00070470000FFF7C2B970470000FEE7000037
:1015F00094B0FFF7C9F900240120CDE90F44CDE9EB
:101600000D440A900E904FF4E0104FF48031022503
:1016100013900AA80394CDE90144CDE90B14CDE958
:101620001151FFF7BBFB28B1EFF3108072B600BF7A
:10163000FEE700BF0F20CDE904054FF48060CDE93F
:10164000070404A802210694FFF7B6FA20B1EFF3CD
:10165000108072B6FEE700BF4FF4004002260290F1
:1016600068460096FFF726FA20B1EFF3108072B6B5
:10167000FEE700BF002541F21800CDE90C55CDE989
:101680000A55C4F20200016840F6000441F020014E
:1016900001600168C4F2010401F020010491049981
:1016A0000168002241F00401016001684FF4E06725
:1016B00001F0040104910499016841F008010160FE
:1016C00000684FF4E06100F00800049004982046A0
:1016D000FFF758F80A9701270AA92046CDE90B75AC
:1016E0000D96FEF747FF40F2700004F5E051C2F29C
:1016F00000004FF4602205730575C261C0E9001552
:1017000085600761FEF758FE20B1EFF3108072B6D6
:10171000FEE700BFCDE90A5740F270050520C2F28E
:1017200000050C900AA92846FEF7A6FD20B1EFF3AC
:10173000108072B6FEE700BF40F2E800A4F5344125
:10174000C2F2000041F6802200264FF48043C0F22E
:10175000060280E84600C0E90363C0E90566C0E907
:101760000766FFF71BF828B1EFF3108072B600BFD1
:10177000FEE700BFA4F58231284640F8301F47211C
:1017800044F61F62CDE90466CDE90F66CDE90D662A
:10179000C0E90116C0E903268661FFF783FE28B180
:1017A000EFF3108072B600BFFEE700BF05F1300412
:1017B00004A92046FFF708FD20B1EFF3108072B6B0
:1017C000FEE700BF60200A9040F2DC500B90002042
:1017D0000C900E900AA920460022FFF761FD28B167
:1017E000EFF3108072B600BFFEE700BF2046FFF7A0
:1017F0002BFD00BFFEE7000000000000000001021A
:1018000003040607080900000000010203040102A6
:1018100002030405060708090A0B0C0D0E0F101031
:1018200040180008000000201000000050010008CF
:101830005018000810000020300700007001000858
:10184000010000001000000000127A0000000000FB
:04000005080000ED02
:00000001FF
