:020000040800F2
:10000000F80B0020B501000865610008D55A00080A
:1000100061610008E90D0008C167000800000000E8
:100020000000000000000000000000001165000852
:10003000ED0D00080000000069610008516500082E
:10004000CF010008CF010008CF010008CF01000850
:10005000CF010008CF010008CF010008CF01000840
:10006000CF010008CF010008CF010008CF01000830
:10007000CF010008CF010008CF010008CF01000820
:10008000CF010008CF010008CF010008CF01000810
:10009000CF010008CF010008CF010008CF01000800
:1000A000CF010008CF010008CF010008CF010008F0
:1000B000CF010008CF010008CF010008CF010008E0
:1000C000CF010008CF010008CF010008CF010008D0
:1000D000CF010008CF010008CF010008CF010008C0
:1000E000CF010008CF010008CF01000800F002F89E
:1000F00000F050F814A696E8000CB244B344DA4578
:1001000001D100F047F8BAE80F000FA696E83000DA
:10011000A5EB040504EB0607AAEB0704A7F101070A
:100120004FEA15154FEA3414A4F10104AC4201D38F
:1001300000F030F813F0010F18BFFB1A43F0010371
:1001400000F001F8DBE71847606B0000806B0000EF
:10015000103A24BF78C878C1FAD8520724BF30C8F3
:1001600030C144BF04680C60704700007047000055
:100170000023002400250026103A28BF78C1FBD8B0
:10018000520728BF30C148BF0B6070471FB51FBD65
:1001900010B510BD00F0A3F91146FFF7F7FF06F008
:1001A00011FB00F0C1F903B4FFF7F2FF03BC00F04C
:1001B000C9F900000948804709480047FEE7FEE703
:1001C000FEE7FEE7FEE7FEE7FEE7FEE7FEE7FEE707
:1001D00004480549054A064B70470000556500086C
:1001E000ED000008F8050020F80B0020F8070020BB
:1001F000F807002053EA020C23D010B54C1084EA13
:10020000530404D54042C1F1000138BF491E1B42CE
:1002100004D55242C3F1000338BF5B1E00F0B5F8AD
:1002200014F0804F04D04042C1F1000138BF491E94
:1002300014F0004F04D05242C3F1000338BF5B1EDC
:1002400010BD13B540424FF0000070EB0104B8BF81
:10025000012001F0004100281CBF6FF000414FF069
:10026000FF30AFF300801CBD032A40F2308010F055
:10027000030C00F0158011F8013BBCF1020F624441
:1002800098BF11F801CB00F8013B38BF11F8013BD2
:10029000A2F1040298BF00F801CB38BF00F8013B7F
:1002A00011F0030300F0E980083AC0F0088051F82B
:1002B000043B083A51F804CBA0E80810F5E7121DFA
:1002C0005CBF51F8043B40F8043BAFF30080D20719
:1002D00024BF11F8013B11F801CB48BF11F8012BE5
:1002E00024BF00F8013B00F801CB48BF00F8012B08
:1002F00070474FF000020429C0F0128010F0030C88
:1003000000F01B80CCF1040CBCF1020F18BF00F808
:10031000012BA8BF20F8022BA1EB0C0100F00DB8B7
:100320005FEAC17C24BF00F8012B00F8012B48BF15
:1003300000F8012B70474FF0000200B513469446B9
:100340009646203922BFA0E80C50A0E80C50B1F12D
:100350002001BFF4F7AF090728BFA0E80C5048BF41
:100360000CC05DF804EB890028BF40F8042B08BFDF
:10037000704748BF20F8022B11F0804F18BF00F8DB
:10038000012B704770477047704753EA020C00F02A
:1003900069802DE9F04B4FF00006002B1FBFB3FA28
:1003A00083F503FA05F424FA05F65E4012BF1643FE
:1003B000B2FA82F502FA05F4C5F120051EBF22FA51
:1003C00005FC44EA0C04203556EA044C4FEA144478
:1003D00018BF641C4FF000084FF00009904271EB09
:1003E000030C39D3002919BFB1FA81F701FA07F6D6
:1003F000B0FA80F700FA07F6C7F120071EBF20FA0F
:1004000007FC46EA0C062037B6FBF4FCA7EB050711
:10041000103F07F01F0BCBF120062CFA06F60CFA62
:100420000BFB44BFB3460026202FA4BF5E464FF00F
:10043000000B5BEA060C08BF4FF0010B19EB0B0930
:1004400048EB0608ABFB027C06FB02CC0BFB03CCA3
:10045000C01B71EB0C01C1E70B4602464146484602
:10046000BDE8F08B13B5084318BF4FF0FF300146CD
:10047000AFF30080BDE81C40704710B5203AC0F0D3
:100480000B80B1E81850A0E81850B1E81850A0E867
:100490001850203ABFF4F5AF5FEA027C24BFB1E800
:1004A0001850A0E8185044BF18C918C0BDE8104043
:1004B0005FEA827C24BF51F8043B40F8043B08BF4C
:1004C0007047D20728BF31F8023B48BF11F8012B13
:1004D00028BF20F8023B48BF00F8012B7047754643
:1004E00000F02CF8AE4605006946534620F00700A0
:1004F000854618B020B5FFF76BFEBDE820404FF0F1
:1005000000064FF000074FF000084FF0000BAC461C
:10051000ACE8C009ACE8C009ACE8C009ACE8C00967
:1005200021F007018D46704710B50446AFF30080F7
:100530002046BDE81040FFF736BE00000048704777
:100540001000002001491820ABBEFEE72600020083
:1005500070470000B0B5044600688168C90709D03B
:10056000816821F00101816003F0F6FB2168896850
:10057000C90701D10020B0BD054602E08068C00770
:10058000F8D003F0E9FB411B20680329F6D381680A
:10059000C907F3D0A06A40F01000A062E06A40F002
:1005A0000100E0620120B0BDB0B582B00446002079
:1005B000019021688A68D2074BD1886840F0010019
:1005C000886040F20800C2F2000000684DF68361C6
:1005D000C4F21B31A0FB0101880C01900198A0B16D
:1005E000019801380190019878B101980138019083
:1005F000019850B1019801380190019828B10198F3
:100600000138019001980028EAD103F0A5FB216888
:100610008968C9071CD1054603E000BF8068C00790
:1006200016D103F099FB411B20680329F6D381689A
:10063000C907F3D1A06A40F01000A062E06A40F060
:100640000100E062002084F82400012002B0B0BD67
:10065000002002B0B0BD000070B584B0054600288F
:100660004FF001001AD00C46C1B128202C6003F0D5
:1006700051FA2046702102221423142603F024FC90
:1006800058B9712128688DF80F100DF10F027021F3
:100690000123009603F022FF10B1012004B070BDC9
:1006A0002868142100910DF10B027021012303F041
:1006B00015FD014601200029F0D19DF80B0000072F
:1006C0004FF00000EAD440F6BE01ADF80C108DF8F2
:1006D0000E00142603AA204670210323009603F07F
:1006E000FDFE0028D9D10A2003F014FA0DF10B0108
:1006F000284600F0A1F918B99DF80B0000070BD4AB
:10070000BA208DF80C001420009003AA2046702116
:10071000012303F0E3FEC0E7002004B070BD000039
:1007200040B10346002A4FF0020018BF002903D150
:10073000704700BF022070471B68002B08BF70473E
:100740002DE9F04184B016460D4614240DF109023E
:10075000184670210723009403F0C0FC20B102204A
:1007600004B0BDE8F08100BF9DF90900002800F148
:100770005F81C04381004AB241064FF0530158BF28
:10078000622181EA800043003121002A48BF81EACA
:10079000400358B25A00002848BF81EA430250B2D1
:1007A0005300002848BF81EA420358B25A0000288B
:1007B00048BF81EA430250B25300002848BF81EA93
:1007C000420358B25C00002848BF81EA43049DF808
:1007D0000A80AC4684EA080465B267009DF80B30D5
:1007E0009DF80C209DF80DE0002D48BF81EA4407DC
:1007F0007CB27D00002C48BF81EA47056CB26F00D7
:10080000002C48BF81EA45077CB27D00002C48BF20
:1008100081EA47056CB26F00002C48BF81EA4507AA
:100820007CB27D00002C48BF81EA47056CB26F00A6
:10083000002C48BF81EA45077CB27D00002C48BFF0
:1008400081EA470585EA030465B26700002D48BFC9
:1008500081EA44077CB27D00002C48BF81EA47054D
:100860006CB26F00002C48BF81EA45077CB27D0066
:10087000002C48BF81EA47056CB26F00002C48BFCE
:1008800081EA45077CB27D00002C48BF81EA47051C
:100890006CB26F00002C48BF81EA45077CB27D0036
:1008A000002C48BF81EA470585EA020465B267006B
:1008B000002D48BF81EA44077CB27D00002C48BF70
:1008C00081EA47056CB26F00002C48BF81EA4507FA
:1008D0007CB27D00002C48BF81EA47056CB26F00F6
:1008E000002C48BF81EA45077CB27D00002C48BF40
:1008F00081EA47056CB26F00002C48BF81EA4507CA
:100900007CB27D00002C48BF81EA470585EA0E04D1
:1009100065B26700002D48BF81EA44077CB27D00C4
:10092000002C48BF81EA47056CB26F00002C48BF1D
:1009300081EA45077CB27D00002C48BF81EA47056B
:100940006CB26F00002C48BF81EA45077CB27D0085
:10095000002C48BF81EA47056CB26F00002C48BFED
:1009600081EA45077CB278009DF80E50002C48BF04
:1009700081EA4700684044B24700002C48BF81EA42
:10098000400778B27C00002848BF81EA470460B283
:100990006700002848BF81EA440778B27C0000283D
:1009A00048BF81EA470460B26700002848BF81EA77
:1009B000440778B27C00002848BF81EA470460B24F
:1009C0006700002848BF81EA440778B27C0000280D
:1009D00048BF81EA47049DF80F00E1B281427FF4ED
:1009E000BEAE180140EA083048F2A0614FEA0E237B
:1009F00040EA1210C0F2010162F31343A0FB0101AF
:100A00005A1940F64053C0F20303000DA2FB032322
:100A100040EA01303060100D40EA03304CF25031B2
:100A2000401ACCF80000002004B0BDE8F08100BFFF
:100A3000012004B0BDE8F081F0B583B00C46054656
:100A4000712100688DF80B1014270DF10B02702135
:100A500001230097012603F041FD18B1304603B091
:100A6000F0BD00BF2868702122460123009703F0E3
:100A700035FB0646304603B0F0BD0000B0B100685B
:100A8000A0B180B582B043F2AC31ADF805100021C1
:100A90008DF807104FF0140C0DF10502702103239F
:100AA000CDF800C003F01AFD02B080BD01207047F0
:100AB000F0B58BB04FF00105B8B10E46A9B10446B0
:100AC0000660EC20A0803046EC210222142314277B
:100AD00003F0FAF960B1EE20A0803046EE21022248
:100AE000142303F0F1F918B1012528460BB0F0BD2D
:100AF0002068A1880DF12A0201250092D02201234D
:100B00000297019503F0D8FD0028EED19DF82A0048
:100B10005828EAD12068A188B6228DF81220142620
:100B200001250DF11207E0220123CDE9007502969F
:100B300003F068FF0028D8D1032002F0EBFF206803
:100B4000A1881822CDE9007288220123029601258E
:100B500003F0B2FD0028C8D1BDF81200DDF81A106C
:100B6000E0800598DDF81E20A060BDF81800DDF8D3
:100B70002230C4F80E10DDF8261000284FF00105D1
:100B8000A081C4F81220C4F81630C4F81A10ACD0F2
:100B90002068A188A0228DF82B2014260DF12B07A8
:100BA000F5220123CDE90075029603F02BFF002802
:100BB0009BD127222068A1888DF82B200122CDE926
:100BC0000072F4220123029603F01CFF054628461A
:100BD0000BB0F0BD40B10346002A4FF0010018BF32
:100BE000002903D1704700BF012070472DE9F04F65
:100BF0008BB008921A688AB10E469988142006278D
:100C00000DF1260502901C461046F7220123CDE97E
:100C1000005703F051FD0146012019B10BB0BDE8AA
:100C2000F08F00BF9DF82A009DF829109DF82B2019
:100C3000000140EA0130D109E28841EAD001C2EB6B
:100C40001010B4F90A704043B4F90830000BA1EB5E
:100C5000420178435943801300EBE120206200EB0E
:100C60008000803000123060226AB4F91070B2F552
:100C7000FA304FEAE272A0FB00A662F1000800FB26
:100C80000862AAFB075100FB082EFA170AFB0211A3
:100C9000B4F90E600EFB07112F0AA0FB062C47EAE1
:100CA0000167A58917EB0237A7FB05734FEAE677C3
:100CB00000FB07C79DF826B008FB06769DF8277055
:100CC0004FEA063646EA125242EB212101F5004175
:100CD00001FB05359DF828306A1052EAE571079747
:100CE0007ED00493B4F91630B4F91410AAFB03763D
:100CF0004FEAE379CDE905727246A0FB01CE0AFB0B
:100D00000966CF1700FB07E002FB036E049A08FB9D
:100D100001004FEA0B3141EA1211079A400441EAFF
:100D20000211C1F58011CF0740EADC30B7EB4C4728
:100D30004FEA5101B4F91260814105980EEBC606E5
:100D4000381A40F63547A0FB0703B14101FB0731D4
:100D5000069AB4F91880EB17FFF74CFA420B42EAF7
:100D6000C142A2FB02374E13B4F91C5002FB0677B6
:100D7000A3FB05CE02FB0672EE1703FB06E302FBA4
:100D80000532B4F91A304FEA5C64A0FB0376DD1734
:100D900000FB05664FEA626E01FB036344EAC21280
:100DA000FF0C47EA4337801841EB0E01C01941EBB5
:100DB000E341000A0A1240EA01604FEAE8710901C2
:100DC00041EA187110EB0810514109D4000A40EAB9
:100DD00001610898016000200BB0BDE8F08F00BFF2
:100DE00001200BB0BDE8F08FFEE700007047000067
:100DF000F0B583B01D461646044605F027FC012ECB
:100E00001CD8204605F0A8FB172800F2258223D025
:100E10005721162821541FD02118412215284A7025
:100E20001AD0492214288A700FBF17200430542288
:100E3000CA700021215403B0F0BD00BF032E11D1B0
:100E4000204605F089FB172800F2068204D04521D0
:100E50001628215440F0DC8017200021215403B0D3
:100E6000F0BD00BF002D69D0099D204605F074FB40
:100E70004CF6CD41CCF6CC41A5FB0112D20802EBD9
:100E80008201A5EB410141F030010A2D8DF80210DD
:100E9000C0F0B88049F69A11C1F69911A2FB01364B
:100EA00006EB8603A2EB430242F03002642D8DF87C
:100EB0000320C0F0AB8048F21F52C5F2EB12A5FB35
:100EC00002235A09A2FB013606EB8603A2EB43027A
:100ED00042F03002B5F57A7F8DF80420C0F0A6808C
:100EE00044F6D352C1F26202A5FB02239A09A2FB87
:100EF000013606EB8603A2EB430242F2107342F086
:100F000030029D428DF80520C0F0948041F2597264
:100F1000CDF2B712A5FB02235A0BA2FB011303EB80
:100F20008301A2EB410141F03001B5F1FF3F8DF8A3
:100F3000061040F3CF80052125E100BF089D204623
:100F400005F00AFB17280CD808D052211628215486
:100F500004D02118412215284A706DD11720002194
:100F60002154204605F0F8FA4CF6CD416943CA0CED
:100F700002EB8201A5EB410141F030010A2D8DF811
:100F8000021041D341F69A1102FB01F31B0C03EB53
:100F90008303A2EB430242F03002642D8DF803205C
:100FA00042D3AA0841F27B435A43520C5143090CE5
:100FB00001EB8101A2EB410141F03001B5F57A7FEF
:100FC0008DF8041034D3E90842F2C5025143090DEB
:100FD00067224A43920A02EB8202A1EB420142F2EB
:100FE000107241F0300195428DF805102ED3290979
:100FF00040F247325143C90C30318DF806100521BB
:1010000025E000BF0121BEE0012120E00221BAE07D
:101010002118522215284A700EBF172003308A70FB
:101020000021215403B0F0BD022110E00321AAE009
:1010300003210CE00421A6E0572214288A700FBF78
:10104000172004302022CA7089E700BF0421421C07
:10105000172A0DD84B1EDFB20DF10203DF5D2754B6
:1010600018BF172A0CD10020A05403B0F0BD00BF58
:10107000172800F2F18017220020A05403B0F0BD21
:101080008F1EFFB2DF5D00F10206A7541CD0162EA2
:101090001AD8CA1ED2B29F5C00F10302A755E2D053
:1010A000162AE0D80F1FFFB2DF5D00F10406A75437
:1010B0000AD0162E08D80539C9B2595C421DA1556F
:1010C0000020A05403B0F0BD32460020A05403B06D
:1010D000F0BD00BF45F6C5226909C0F67C22A1FB20
:1010E000022C4DF68362C4F21B32A5FB023E4CF685
:1010F0006B23C6F65F33A5FB036743F68936C5F25B
:10110000E656A5FB0616690A44F68335C0F20405C7
:10111000A1FB05154FEADC114CF6CD424A43D20C37
:1011200002EB8202A1EB420141F030018DF8071081
:101130004FEA9E4141F69A1201FB02F31B0C03EBAE
:101140008303A1EB430141F030018DF80810B90D84
:101150004A43120C02EB8202A1EB420141F0300142
:101160008DF80910710E1A224A43120A02EB82020C
:10117000A1EB420141F030018DF80A10E90930314C
:101180008DF80B100A21421C172A59D84B1EDFB2CA
:101190000DF10203DF5D275418BF172A55D08F1EAB
:1011A000FFB2DF5D00F10206A7544DD0162E4BD8DA
:1011B000CA1ED2B29F5C00F10302A75545D0162A81
:1011C00043D80F1FFFB2DF5D00F10406A7543BD0E8
:1011D000162E39D84A1FD2B29F5C00F10502A755DE
:1011E00033D0162A31D88F1FFFB2DF5D00F106061B
:1011F000A75429D0162E27D8CA1FD2B29F5C00F15F
:101200000702A75521D0162A1FD8B1F10807FFB24F
:10121000DF5D00F10806A75416D0162E14D8B1F1E0
:101220000902D2B29F5C00F10902A7550DD0162A1F
:101230000BD80A39C9B2595CA15400F10A0204E082
:10124000172804D8172200E032460020A054204678
:1012500005F082F9172801D903B0F0BD03D0202191
:101260001628215404D117210020605403B0F0BD8A
:10127000811C2044252242700020605403B0F0BD40
:101280002DE9F04184B040F2E806C2F2000696F87B
:10129000681421B1012909D196F8702432B9B5A199
:1012A00004B0BDE8F04105F0D1B900BF032905D174
:1012B000AEA104B0BDE8F04105F0C8B9A9A105464A
:1012C00005F0C4F9D6F8587428462C4605F044F9C0
:1012D00044F6D358C1F26208A7FB081249F69A11E6
:1012E0009209C1F69911A2FB013505EB8503A2EB2A
:1012F000430242F2107342F030029F428DF8062002
:10130000C0F0888041F25972CDF2B712A7FB0223D8
:101310005A0BA2FB011303EB8301A2EB410148F23C
:10132000A06241F03001C0F2010297428DF807102F
:10133000214673D345F6C5237A09C0F67C23A2FB68
:101340000323DA094CF6CD435343DB0C03EB830351
:10135000A2EB430244F24023C0F20F0342F03002FA
:101360009F428DF808205BD34DF68362C4F21B3296
:10137000A7FB02239B0C41F69A1203FB02F52D0CEE
:1013800005EB8505A3EB450349F28065C0F298059E
:1013900043F03003AF428DF8093043D34CF66B2352
:1013A000C6F65F33A7FB0335AB0D5A43120C02EBB5
:1013B0008202A3EB42024EF20013C0F2F55342F058
:1013C00030029F428DF80A202ED343F68932C5F2AF
:1013D000E652A7FB02235A0E1A2353431B0A03EBC0
:1013E0008303A2EB43024CF60023C3F69A3342F088
:1013F00030029F428DF80B2018D344F683337A0ACB
:10140000C0F20403A2FB0323DA0930328DF80C206A
:1014100007220CE00122214609E000BF022206E07B
:10142000032204E0042202E0052200E00622431C1D
:10143000172B43D8571EFDB20DF1060C1CF80550B2
:101440000D5418BF172B3ED0951EEDB21CF8057039
:1014500000F10205CF5435D0162D33D8D31EDBB2A0
:101460001CF8037000F103034F552CD0162B2AD81B
:10147000171FFFB21CF8077000F10405CF5421D0EC
:10148000162D1FD8531FDBB21CF8037000F10503A3
:101490004F5518D0162B16D8971FFFB21CF807709F
:1014A00000F10605CF540DD0162D0BD8073AD2B255
:1014B0001CF80220C31D4A5505E000BF172804D8B8
:1014C000172300E02B460020C854204605F044F8BE
:1014D0002146172806D80FBF1722421C2E230B5473
:1014E00000208854084605F037F8411C182911D20D
:1014F000D6F85824A2FB0837BB094FF47A7703FBD0
:1015000017224FF424735A43302343EA12432246EE
:10151000235403E01828224612D2172100205054E9
:10152000104605F019F817280FD803D020211628E7
:1015300021540DD117210020605404B0BDE8F08182
:10154000104605F009F81728EFD904B0BDE8F0817E
:10155000811C2044252242700020605404B0BDE864
:10156000F08100BF48554D3A0000000048554D3A03
:101570004552520048554D3A574149540000000029
:1015800070B584B040F2E805C2F2000595F8691420
:10159000012905D8B4A104B0BDE8704005F056B8E3
:1015A000032905D1ADA104B0BDE8704005F04EB8E7
:1015B000A8A1044605F04AF8D5F85C642046254603
:1015C00004F0CAFF48F21F51C5F2EB11A6FB01124D
:1015D000510949F69A12C1F69912A1FB023404EBA3
:1015E0008403A1EB430141F03001B6F57A7F8DF819
:1015F0000610C0F09F8044F6D351C1F26201A6FBF1
:1016000001139909A1FB023404EB8403A1EB43010C
:1016100041F0300142F210739E428DF807102946C6
:10162000C0F08C8041F25973CDF2B713A6FB03349E
:10163000630BA3FB022404EB8402A3EB420248F2F7
:10164000A063C0F2010342F030029E428DF80820F0
:1016500076D345F6C5237209C0F67C23A2FB03238B
:10166000DA094CF6CD435343DB0C03EB8303A2EBC7
:10167000430244F24023C0F20F0342F030029E4284
:101680008DF809205ED34DF68362C4F21B32A6FBAF
:1016900002239B0C41F69A1203FB02F4240C04EB88
:1016A0008404A3EB440349F28064C0F2980443F03D
:1016B0003003A6428DF80A3046D34CF66B23C6F6AB
:1016C0005F33A6FB0334A30D5A43120C02EB8202D4
:1016D000A3EB42024EF20013C0F2F55342F0300287
:1016E0009E428DF80B2031D343F68932C5F2E65283
:1016F000A6FB02235A0E1A2353431B0A03EB830350
:10170000A2EB43024CF60023C3F69A3342F03002B8
:101710009E428DF80C201BD344F68333720AC0F22C
:101720000403A2FB0323DA0930328DF80D200822CE
:101730000FE000BF012229460BE000BF022208E0B3
:10174000032206E0042204E0052202E0062200E073
:101750000722431C172B4DD8561EF4B20DF1060C70
:101760001CF804400C5418BF172B50D0941EE4B240
:101770001CF8046000F10204CE5447D0162C45D862
:10178000D31EDBB21CF8036000F103030E553ED0FC
:10179000162B3CD8161FF6B21CF8066000F10404A4
:1017A000CE5433D0162C31D8531FDBB21CF8036053
:1017B00000F105030E552AD0162B28D8961FF6B235
:1017C0001CF8066000F10604CE541FD0162C1DD85C
:1017D000D31FDBB21CF8036000F107030E5516D0CF
:1017E000162B14D8083AD2B21CF80220CA5400F1C1
:1017F00008030CE0172801D8172308E0084604F076
:10180000ABFE17280AD904B070BD00BF23460020E4
:10181000C854084604F0A0FE1728F4D808D02021A8
:101820001628295404D02918482215284A7005D1B1
:1018300017200021295404B070BD00BF5022142885
:101840008A700FBF172004304122CA70002129542A
:1018500004B070BD50524553533A000050524553A6
:10186000533A45525200000050524553533A5741A3
:101870004954000040F2E801C2F2000191F86824E6
:1018800022B1012A06D191F870341BB9BBA104F032
:10189000DDBE00BF032A03D1B5A104F0D7BE00BF4F
:1018A0002DE9F04184B0D1F85424AFA1002A1646A6
:1018B00048BF5642AAA3002A48BF1946054604F06D
:1018C000C5FE28462C4604F047FE44F6D351C1F22B
:1018D0006201A6FB011249F69A114FEA9218C1F66D
:1018E0009911A8FB012303EB8302A8EB420242F209
:1018F000107342F030029E428DF80620C0F08A80BC
:1019000041F25972CDF2B712A6FB02235A0BA2FB89
:10191000011303EB8301A2EB410148F2A06241F005
:101920003001C0F2010296428DF80710214675D3AE
:1019300045F6C5237209C0F67C23A2FB0323DA090E
:101940004CF6CD435343DB0C03EB8303A2EB430282
:1019500044F24023C0F20F0342F030029E428DF861
:1019600008205DD34DF68362C4F21B32A6FB02232E
:101970009A0C41F69A1353431B0C03EB8303A2EB1F
:10198000430249F28063C0F2980342F030029E4263
:101990008DF8092046D34CF66B22C6F65F32A6FBC3
:1019A00002239A0DC3F38753CD256B43DB0A03EB68
:1019B0008303A2EB43024EF20013C0F2F55342F050
:1019C00030029E428DF80A202ED343F68932C5F2AA
:1019D000E652A6FB02235A0E1A2353431B0A03EBBB
:1019E0008303A2EB43024CF60023C3F69A3342F082
:1019F00030029E428DF80B2018D344F68333720ACE
:101A0000C0F20403A2FB0323DA0930328DF80C2064
:101A100007220CE00122214609E000BF022206E075
:101A2000032204E0042202E0052200E00622431C17
:101A3000172B43D8551EEDB20DF1060C1CF80550BE
:101A40000D5418BF172B3ED0951EEDB21CF8057033
:101A500000F10205CF5435D0162D33D8D31EDBB29A
:101A60001CF8037000F103034F552CD0162B2AD815
:101A7000171FFFB21CF8077000F10405CF5421D0E6
:101A8000162D1FD8531FDBB21CF8037000F105039D
:101A90004F5518D0162B16D8971FFFB21CF8077099
:101AA00000F10605CF540DD0162D0BD8073AD2B24F
:101AB0001CF80220C31D4A5505E000BF172804D8B2
:101AC000172300E02B460020C854204604F044FDB4
:101AD0002146172806D80FBF1722421C2E230B546D
:101AE00000208854084604F037FD411C18290FD205
:101AF0004FF47A7208FB126241F27B4392B2920871
:101B00005A43302343EA52432246235404E000BFA1
:101B10001828224612D2172100205054104604F0F3
:101B20001BFD17280FD803D02021162821540DD1D2
:101B300017210020605404B0BDE8F081104604F085
:101B40000BFD1728EFD904B0BDE8F081811C2044BB
:101B5000432242700020605404B0BDE8F08100BF11
:101B600054454D503A2D000054454D503A00000068
:101B700054454D503A4552520000000054454D50D6
:101B80003A574149540000002DE9F04781460028AA
:101B90004FF0010000F0B1808846002900F0AD80D0
:101BA0001546002A00F0A9801F46002B08BFBDE89B
:101BB000F08740F2E804C2F20004DDF820A004F14E
:101BC0000C0040F2AC41FEF7B6FBC4E90098A560FA
:101BD0003B6987CFE36104F10C0387C340F600073C
:101BE000C4F20107002638464FF48061012284F8D0
:101BF00020A084F86C64C4E90988C4F84C8002F021
:101C0000A5F838464FF40071002284F8746402F09D
:101C10009DF838464FF48071002284F8756402F014
:101C200095F82846002184F87E6403F0FFFE4846BC
:101C300001F080FBB0FA80F0400984F8720402F0F1
:101C40008BF894F820100546092901D0032914D1F6
:101C5000616804F12400FEF7FFFCB0FA80F1490945
:101C600084F86F1438B1032084F86804002084F8E5
:101C70007004C4F88C5494F82010092901D0042968
:101C80000ED1616804F12800FEF712FFB0FA80F16E
:101C90004909002884F871141CBF032084F86904E2
:101CA00094F820004FF60C61CFF6FF7105380A4614
:101CB00010F1040F38BFA2F2DC522A44C4F8842485
:101CC000C4F88C54C4F89054C4F89454C4F89C5488
:101CD00010F1040F38BFA1F5FA614819C4F8AC043B
:101CE00004F14C004146C4F8B45404F049FA002809
:101CF00004BF012084F873040020BDE8F0870000D1
:101D00002DE9F04F99B002F027F840F2E807C2F24F
:101D1000000797F87314044621BBD7F8940442F2E5
:101D20001071201A88421DD3796807F14C00C7F85A
:101D3000944404F025FAA8B997F82010012087F8F8
:101D40007304481F4FF23C61CFF6FF7101F5FA6151
:101D500010F1040F3CBF4FF23C61CFF6FF71081940
:101D6000C7F8AC0497F8760480B1D7F89804B9693D
:101D7000201A88420AD3B8680021002503F056FED5
:101D800097F86D0487F8765487F86C0497F86E041A
:101D900040F600090128C4F2010913D1D7F8A004C4
:101DA000F969201A88420DD348464FF40071002289
:101DB000002501F0CBFF022087F8755487F86E04E8
:101DC000C7F8A04497F86804012824D1D7F88804FC
:101DD000201A55281FD307F1240007F2544107F5B4
:101DE0008B62FEF79DFC02280DD038B9022087F8DF
:101DF0006804012087F870040DE000BFD7F888045C
:101E0000201AFA2807D3032087F868040020A7F8CF
:101E10006F04C7F88C4497F82000D7F88414421F49
:101E20004FF4FA7312F1040FA4EB010138BF4FF421
:101E3000FA639942C0F0C98000F0F7010129C7F8A0
:101E4000844421D197F87204C8B100201390012076
:101E5000149005213868159113A901F0F9FA70B9A9
:101E6000386801F0AFFD50B938680A2101F072FC02
:101E700001463868002900F0D18201F00BFE0320F2
:101E800087F86B0497F82000092801D002281ED19A
:101E900097F87204C0B10120CDE91300052138681C
:101EA000159113A901F0D4FA70B9386801F08AFDD0
:101EB00050B938680A2101F04DFC01463868002904
:101EC00000F07C8201F0E6FD032087F86A0497F8B1
:101ED0002000092801D0042831D197F8710488B175
:101EE00007F1280007F25C4213A9FEF773FE18B34E
:101EF000032087F86904002087F87104C7F890442C
:101F00001DE000BF97F8690430B1D7F8900442F2A1
:101F10001071201A884212D3796807F12800FEF761
:101F2000C7FDB0FA80F14909002887F87114C7F895
:101F30009044D5D0032000E0022087F8690497F888
:101F40002000B0F1090118BF0121033818BF01209A
:101F5000014238D197F86804012834D097F86F14FB
:101F600071B107F12400FEF789FD38B3032087F82B
:101F700068040020A7F86F04C7F88C4423E000BF72
:101F800030B1D7F88C0442F21071201A88421AD36B
:101F9000796807F12400FEF75FFBB0FA80F1490988
:101FA000002887F86F14C7F88C44DAD0032087F82C
:101FB0006804002087F8700405E000BF012087F85E
:101FC0006804C7F8884497F82000092848D197F892
:101FD0006B04022840F03F81398A002900F03B81E0
:101FE0007A8A002A00F03781914200F0348111434F
:101FF000B1F5805F80F02F81B7F96614132900F3E3
:10200000278197F87A14002900F0D28197F87B1481
:10201000002940F02381D7F8A81447F23052611A02
:102020009142C0F01B8197F879140122002987F8AA
:102030007B2440F0138197F86E14032900F00E8181
:1020400097F87F14012900F2098197F87E14022283
:10205000002987F87F2408BFC7F8B044FEE000BF1E
:10206000002548464FF48061012287F8805401F032
:102070006DFE48464FF40071002287F8745401F059
:1020800065FE97F8201087F8755487F87954B9B32E
:1020900097F87604062908BF002853D0082900F0D5
:1020A000B580072940F04A81D7F8B41497F88154D5
:1020B000611AB1F5FA6F22BFC7F8B44485F0010583
:1020C00087F881544FF000064DB140B948464FF4AF
:1020D0000071002201F03AFE87F875642E46B6FAC8
:1020E00086F0420948464FF4806101F02FFE87F8E0
:1020F000746497F87904002800F02581CBE100BFD3
:10210000D7F8B404201AB0F5FA6FC0F0178197F829
:102110006E04C7F8B444032800F0108197F87F04D8
:10212000002840F00B8197F87E040121002887F8F1
:102130007F1408BFC7F8B04497F87904002800F06E
:102140000281A8E1D7F8B404201AB0F5FA6FC0F004
:10215000F580B868C7F8B444016897F86C84B8692A
:10216000C96ABA8A0226B8F1020F08BF0126002AFE
:1021700000F0E480FB8A002B00F0E0809A4200F03F
:10218000DD8001319142C0F0D9809942C0F0D68003
:10219000002800F0D38097F8770438B1D7F89C0472
:1021A00042F21071201A8842C0F0C88048464FF4AD
:1021B0008061012201F0CAFD002548464FF40071FC
:1021C000002287F8745401F0C1FD97F86E0487F877
:1021D0007554012802BF022087F86E04C7F8A04496
:1021E00007F11601B8F1020F08BF07F11401B86832
:1021F000098802685163002103F0AAFB00284FF010
:10220000010000F0398107F29C413CE1F9690029A5
:1022100000F0848097F88164D7F8B424002EA4EBF2
:10222000020208BF4FF4FA618A4222BFC7F8B444E1
:1022300086F0010687F88164002E73D097F8741435
:10224000002818BF0026002918BF00266BE000BF39
:1022500089B21E2902D30021A7F87A1497F86924BD
:1022600097F86814D2B20339033A97F86A34B1FA8E
:1022700081F1B2FA82F2490952091143DAB2033A02
:10228000B2FA82F203385209B0FA80F011434009E1
:10229000084316D097F8801499B997F8791481B942
:1022A00097F86E1403290CD097F87F14022908D8E8
:1022B00097F87E140322002987F87F2408BFC7F807
:1022C000B04487F8800448464FF48061012201F051
:1022D0003DFD002648464FF40071002287F87464E3
:1022E00001F034FD48464FF48071002287F8756490
:1022F00001F02CFD97F8760487F87F640028A7F892
:10230000786487F86E64A7F87D6400F0DB80B868B5
:10231000002103F08BFB87F87664D3E0002687F872
:10232000816400E00026324648464FF40071002EDA
:1023300018BF012201F00AFD87F8756497F8790447
:10234000002840F0A88097F86E04032800F0A380CE
:1023500097F87F04A0B1D7F8B004201A00F1B2803A
:1023600097F87E04B0B148464FF4807100220025F2
:1023700001F0ECFC97F87F04013887F87F0410E047
:1023800048464FF480710022002501F0DFFC87F8F9
:102390007E5497E048464FF480710122012501F0F8
:1023A000D5FC04F1780087F87E54C7F8B00489E0C2
:1023B000012187F87A14C7F8A8444FE701F0E8F83C
:1023C0003968A7F86004084601F064FBB889022167
:1023D000002887F86A14C7F8A4443FF478ADF98957
:1023E00000293FF474AD81423FF471AD41EA00022F
:1023F0000023B3EB123F7FF46AADB7F86024642387
:10240000121A5A43081A92FBF0F0642838BF0346A8
:10241000002848BF0023A7F8643458E501F0B8F855
:102420003968A7F86204084601F034FB388A0221B3
:10243000002887F86B143FF425AD798A00293FF412
:1024400021AD81423FF41EAD41EA00020023B3EB0F
:10245000123F7FF417ADB7F862246423121A5A436F
:10246000081A92FBF0F0642838BF0346002848BFE2
:102470000023A7F8663405E587F8760407F593612D
:10248000002087F86D6487F877040C6097F879046A
:1024900000283FF458AF44F6D350C1F26200A4FBC9
:1024A000000188094FF47A7100FB1140002696283C
:1024B00038BF012648464FF48071324601F046FC91
:1024C00087F87E6497F87304002800F0CC8097F8B2
:1024D0002000D7F8AC14421F4FF4FA7312F1040F26
:1024E000A4EB010138BF40F6C4139942C0F0BB8091
:1024F00001380428C7F8AC4400F2B880DFE800F0E7
:102500000472445E2E0000BF07F14C0A504603F0EF
:102510002DFE0FF65C52504600214FF0000903F0EB
:10252000ABFF388A97F86B2470B1798A61B1431A8E
:1025300040EA01004FF0000118BF0123B0F5805FB1
:1025400038BF012103EA0109B7F86264B7F966549C
:1025500046F63241C0F600016CE000BF07F14C05C1
:10256000284603F003FE0FF614522846002103F01C
:1025700083FF0FF614522846022103F07DFF0FF669
:1025800018522846042160E007F14C05284603F064
:10259000EDFD0FF61C522846002103F06DFF13AE2F
:1025A0003046FFF767F928460221324603F064FF00
:1025B0003046FEF765FE2846042110E007F14C0581
:1025C000284603F0D3FD0FF6DC422846002103F035
:1025D00053FF13AE3046FEF7D3FF284602213246A2
:1025E00033E000BF07F14C0A504603F0BFFD0FF681
:1025F000CC42504600214FF0000903F03DFFB8895E
:1026000097F86A2470B1F98961B1431A40EA010070
:102610004FF0000118BF0123B0F5805F38BF0121E2
:1026200003EA0109B7F86064B7F9645446F62C412F
:10263000C0F600010DF14C0840464B46CDE900655F
:10264000FEF7D6FB50460221424603F015FF07F184
:102650004C0003F0DFFD30B1002087F8730487F8E9
:102660005004C7F8944419B0BDE8F08F07F14C0945
:10267000484603F07BFD97F87C04002800F01081A9
:10268000B88997F86A240DF14C084FF0000358B14F
:10269000F98949B1431A18BF012308430021B0F555
:1026A000805F38BF01210B4008F11100039008F151
:1026B0001000049008F10F00059008F10E0006903C
:1026C00008F10D00079008F10C00089008F10B00CC
:1026D000099008F10A000A9008F109000B9008F12E
:1026E00008000C9008F107000D9008F106000E900C
:1026F00008F105000F9008F10400109008F10300A4
:10270000119008F10200B7F86054B7F9646446F616
:102710002C410DF14C0A1290C0F60001504608F110
:10272000010BCDE90056FEF763FB484600215246F7
:102730004FF0000A03F0A0FE388A97F86B2470B1BE
:10274000798A61B1431A40EA01004FF0000118BFD5
:102750000123B0F5805F38BF012103EA010AB7F811
:102760006254B7F9666446F63241C0F6000113A818
:102770005346CDE900560546FEF73AFB484602218E
:102780002A4603F079FE0FF64031284603F05EFF3B
:1027900097F8740446F66C4200289DF84C0046F603
:1027A0003941C0F60002C0F6000108BF0A46002801
:1027B00000F096809DF84D00002800F093809DF871
:1027C0004E00002800F09A809DF84F00002800F08D
:1027D0009F809DF85000002800F09C809DF85100DB
:1027E000002800F0A3809DF85200002800F0AA8085
:1027F0009DF85300002800F0B1809DF85400002897
:1028000000F0AE809DF85500002800F0B5809DF8DE
:102810005600002800F0B2809DF85700002800F014
:10282000BF809DF85800002800F0BC809DF859003A
:10283000AE46002800F0B8809DF85A00002800F04D
:10284000B5809DF85B00002800F0B2809DF85C0028
:10285000002800F0AF809DF85D00002800F0AC80FB
:102860009DF85E00002800F0A9809DF85F00002818
:1028700000F0A6809DF86000002800F0A3809DF87D
:102880006100002800F0A0809DF86200002800F0A0
:102890009D809DF863007546002840F0D680BBE01F
:1028A00013AE3046FEF7E6FF48460021324603F0FD
:1028B000E3FD3046FEF7E4FC48460221324603F0D1
:1028C000DBFD3046FEF75CFE48460421324603F04D
:1028D000D3FD97F8790438B10FF63C2800F068BCB6
:1028E000002375E0012373E097F86E04032807D1F5
:1028F00046F65B48C0F6000800F05ABC022367E0C9
:1029000097F86804032807D10FF61C2800F050BC84
:1029100003235DE004235BE097F86904032807D1F3
:1029200046F66F48C0F6000800F042BC05234FE0B1
:1029300097F86A04032807D146F67C48C0F60008D9
:1029400000F036BC062343E097F86B04032809D156
:1029500046F68B48C0F6000800F02ABC072337E093
:10296000082335E097F87B0450B146F69B48C0F643
:10297000000800F01DBC00BF092329E00A2327E05E
:1029800003F0C8FD46F63D4846F64841C0F600084B
:10299000C0F60001002808BF884600F009BC00BF4F
:1029A0000B2315E00C2313E00D2310E00E230EE0A3
:1029B0000F230CE010230AE0112308E0122306E0A5
:1029C000132304E0142302E0152300E016237546C8
:1029D000AE46E9180026955D05B3981916288D5561
:1029E0001AD002EB060A9AF80150CDB101EB060CA1
:1029F00015288CF801500FD09AF8025095B1142880
:102A00008CF8025008D09AF803506DB1043698192A
:102A100017288CF80350DED1172006E0981904E03F
:102A2000013002E0023000E0033000210EF8001017
:102A30009DF84C007546002862D09DF84D00002896
:102A400062D09DF84E00002862D09DF84F0000280B
:102A500062D09DF85000002862D09DF851000028F7
:102A600062D09DF85200002862D09DF853000028E3
:102A700062D09DF85400002862D09DF855000028CF
:102A800062D09DF85600002862D09DF857000028BB
:102A900062D09DF85800002862D09DF859000028A7
:102AA00062D09DF85A00002862D09DF85B00002893
:102AB00062D09DF85C00002862D09DF85D0000287F
:102AC00062D09DF85E00002800F0F6819DF85F005E
:102AD000002800F001829DF86000002800F00A83C1
:102AE0009DF86100002800F019839DF8620000281D
:102AF00000F028839DF86300002851D125E300BF32
:102B000006222B4642E000BF07225B463EE000BFA4
:102B1000129B08223AE000BF119B092236E000BF59
:102B2000109B0A2232E000BF0F9B0B222EE000BF59
:102B30000E9B0C222AE000BF0D9B0D2226E000BF59
:102B40000C9B0E2222E000BF0B9B0F221EE000BF59
:102B50000A9B10221AE000BF099B112216E000BF59
:102B6000089B122212E000BF079B13220EE000BF59
:102B7000069B14220AE000BF059B152206E000BF59
:102B8000049B162202E000BF039B172245F220009F
:102B9000C4F65550186043F6502098800020A85481
:102BA000F869002800F09280B889002800F08E8033
:102BB000F989002900F08A80884200F08780084364
:102BC000B0F5805F80F0828097F8750446F66C4817
:102BD00000289DF84C00C0F6000846F63941C0F6C2
:102BE000000108BF8846002800F0F2809DF84D00E3
:102BF000002800F0F5809DF84E00002800F0F880D5
:102C00009DF84F00002800F0FB809DF85000002840
:102C100000F0FE809DF85100002800F001819DF831
:102C20005200002800F004819DF85300002800F0B5
:102C300007819DF85400002800F00A819DF8550096
:102C4000002800F00D819DF85600002800F010814A
:102C50009DF85700002800F013819DF858000028C7
:102C600000F016819DF85900002800F019819DF8A8
:102C70005A00002800F01C819DF85B00002800F03D
:102C800027819DF85C00002800F030829DF85D00EF
:102C9000002800F03F829DF85E00002800F04E8280
:102CA0009DF85F00002800F09D829DF860000028DC
:102CB00000F09C829DF86100002800F09B829DF846
:102CC000620000286FD14FF0160C95E29DF84C0081
:102CD00000286FD09DF84D0000286FD09DF84E0061
:102CE00000286DD09DF84F0000286DD09DF8500051
:102CF000002871D09DF85100002875D09DF8520031
:102D0000002800F079809DF85300002800F07C80B6
:102D10009DF85400002800F07F809DF855000028A1
:102D200000F082809DF85600002800F085809DF814
:102D30005700002800F088809DF85800002800F017
:102D40008B809DF85900002800F08E809DF85A0075
:102D5000002800F091809DF85B00002800F094802E
:102D60009DF85C00002800F097809DF85D00002829
:102D700000F09A809DF85E00002800F0A5809DF884
:102D80005F00002800F0B0809DF86000002800F08F
:102D9000BB819DF86100002800F0CA819DF86200A7
:102DA000002800F019829DF86300002840F0A880F8
:102DB0001721A3E003210DF14C0B98E0042196E0CC
:102DC000DDF848B0052192E0DDF844B006218EE040
:102DD0004FF0000C10E200BFDDF840B0072186E0A4
:102DE0004FF0010C08E200BFDDF83CB008217EE0A6
:102DF0004FF0020C00E200BFDDF838B0092176E0A8
:102E00004FF0030CF8E100BFDDF834B00A216EE0AA
:102E10004FF0040CF0E100BFDDF830B00B2166E0AC
:102E20004FF0050CE8E100BFDDF82CB00C215EE0AE
:102E30004FF0060CE0E100BFDDF828B00D2156E0B0
:102E40004FF0070CD8E100BFDDF824B00E214EE0B2
:102E50004FF0080CD0E100BFDDF820B00F2146E0B4
:102E60004FF0090CC8E100BFDDF81CB010213EE0B6
:102E70004FF00A0CC0E100BFDDF818B0112136E0B8
:102E80004FF00B0CB8E100BFDDF814B012212EE0BA
:102E90004FF00C0CB0E100BFDDF810B0132126E0BC
:102EA0004FF00D0CA8E100BFDDF80CB014211EE0BE
:102EB0004FF00E0CA0E100BF45F22000C4F65550C3
:102EC000CDF85E0050203EE108F1120B15210EE016
:102ED0004FF00F0C90E100BF45F22000C4F65550B2
:102EE000CDF85F0031E100BF08F1130B162144F665
:102EF0004410ABF8000053208BF802000020685407
:102F000013AA4846042103F0B7FAB8680FF2C03A92
:102F10000168B869C96ABA8A62B3FB8A53B39A4234
:102F200028D00131914225D3994223D310B397F889
:102F3000770418B10FF2A43A1CE000BF97F87604AA
:102F400050B197F86D040FF2A83A0FF29C310228A5
:102F500008BF8A460EE000BF97F86C040FF2A0325B
:102F600001280FF2A43A0FF2903108BF0A46022856
:102F700018BF92460DF14C080FF29431404603F011
:102F800065FB9DF84C00002860D09DF84D0000289E
:102F900060D09DF84E00002860D09DF84F000028BA
:102FA00060D09DF85000002860D09DF851000028A6
:102FB00060D09DF85200002860D09DF85300002892
:102FC00060D09DF85400002860D09DF8550000287E
:102FD00060D09DF85600002860D09DF8570000286A
:102FE00060D09DF85800002860D09DF85900002856
:102FF00060D09DF85A00002860D09DF85B00002842
:1030000060D09DF85C00002860D09DF85D0000282D
:1030100060D09DF85E00002860D09DF85F00002819
:1030200060D09DF8600000286AD09DF861000028FB
:103030007AD09DF86200002800F08A809DF8630035
:10304000002800F0A7800DF14C08B1E04FF0000C13
:1030500080E000BF4FF0010C7CE000BF4FF0020C9D
:1030600078E000BF4FF0030C74E000BF4FF0040C99
:1030700070E000BF4FF0050C6CE000BF4FF0060C95
:1030800068E000BF4FF0070C64E000BF4FF0080C91
:1030900060E000BF4FF0090C5CE000BF4FF00A0C8D
:1030A00058E000BF4FF00B0C54E000BF4FF00C0C89
:1030B00050E000BF4FF00D0C4CE000BF4FF00E0C85
:1030C00048E000BF4FF00F0C44E000BF4FF0100C81
:1030D00040E000BF4FF0110C3CE000BF4FF0120C7D
:1030E00038E000BF4FF0130C34E000BF4FF0100C7D
:1030F00082E000BF45F22000ADF86000552022E0DC
:103100004FF0140C26E000BF44F64410ADF8600008
:10311000532062E04FF0110C6EE000BF45F220003A
:10312000ADF8610011E000BF4FF0150C12E000BFD8
:1031300044F64410ADF861001721DFE64FF0120CA1
:103140005AE000BF20208DF86200172226E500BF5C
:103150004FF0160C08EB0C0200211AF80160DEB1EA
:103160000CEB0103162B565414D00AEB01056878BA
:10317000B0B15618152B70700CD0A87890B1142BE4
:10318000B07007D0ED787DB104310CEB0100172849
:10319000F570E2D1172008E00CEB010005E000BF5C
:1031A000581C02E0981C00E0D81C002108F8001010
:1031B00048460621424603F05FF997F87C0480F008
:1031C000010087F87C0407F14C0003F023F8002885
:1031D0007FF442AAFFF747BA44208DF86200172116
:1031E0008CE600BF4FF0130C06E000BF4FF0140C4C
:1031F00002E000BF4FF0150C05EB0C0E002318F891
:10320000031029B30CEB030016280EF803103FF44B
:10321000CFAD2E4608EB03056A78EAB10EEB030149
:1032200015284A7010D0AA78D2B114288A700BD011
:10323000EA78CAB104330CEB0300CA7017284FF0C8
:1032400017013546DBD159E61721354656E600BF52
:103250000CEB030152E600BF411C35464EE600BFB1
:10326000811C35464AE600BFC11C354646E600BF14
:103270004C49474854205445535400004F4C454452
:103280002054455354000000313238205820363441
:103290002049324300000000444953504C4159201A
:1032A0004F4B0000424D50323830205445535400AB
:1032B000414854323020544553540000534F494C38
:1032C000205445535400000046414E3A000000008F
:1032D00043414C204D495353494E470053455256A4
:1032E0004F204552524F52004F50454E494E4700D5
:1032F000434C4F53494E4700434C4F534544000005
:10330000554E4B4E4F574E004F50454E000000005B
:1033100057494E444F573A00484947482054454D75
:103320005020414C455254004148543230204552BF
:10333000524F520070B582B004460020019094F8BC
:103340002400012802D1022002B070BD012084F8BF
:1033500024002046FDF7FEF82046FDF725F928B1A8
:10336000002184F8241002B070BD00BF0646A06A98
:1033700041F2021188430230A06240F20800C2F21A
:1033800000000568022001F0C5FCB5FBF0F040002C
:1033900001900198A8B100BF0198013801900198EF
:1033A00078B1019801380190019850B10198013825
:1033B0000190019828B101980138019001980028E6
:1033C000EAD12068816841F00801816000F0C4FC06
:1033D00021688A6812070FD4886840F0040088606A
:1033E00000F0BAFC21688968490715D401216FF003
:1033F0000302304622E000BF054602E0886800076D
:10340000EAD500F0A9FC401B21680B28F6D3886898
:103410000007F3D50EE000BF054602E080684007D4
:10342000E4D500F099FC411B20680B29F6D3816894
:103430004907F3D5012010216FF01202A36A1A4048
:103440001143A162002184F8241002B070BD000075
:1034500070B581B00022009290F82420012A03D197
:103460000221084601B070BD4A680123062A02EB1A
:10347000820E80F8243007D8D0F800C06FF0040323
:103480000CF134060CE000BFD0F800C00C2A87BF56
:103490000CF12C066FF040030CF130066FF02203A4
:1034A0000EEB03021F23346803FA02F50B6824EACB
:1034B000050503FA02F22A433260092B03EB4302AB
:1034C0001AD9DCF80C601E3A072589689540AE438E
:1034D000914023F001023143102ACCF80C1015D191
:1034E00042F20041C4F201018C4517D0816A41F0DB
:1034F0002001816201210AE0DCF81030072689688A
:103500009640B34391401943CCF81010002100229B
:1035100080F82420084601B070BD00BF8968090208
:10352000F4D4DCF80810102B41F40001CCF808109A
:10353000ECD140F20801C2F2000109684DF6836245
:10354000C4F21B32A1FB0212910C01EB8101490074
:10355000009100990029D9D0009901390091009972
:103560000029D3D000990139009100990029CDD0CC
:1035700000990139009100990029C7D000990139BB
:103580000091009900294FF00001E5D1BFE700004C
:103590000068C06C70470000002804BF012070471D
:1035A000B0B50446806A28B121688868C0070CD18C
:1035B00015E000BF0020E06284F82400204600F0FF
:1035C00097F821688868C00709D0886820F0010052
:1035D000886000F0C1FB21688A68D20726D1A06A02
:1035E000C0063AD4A06A41F2021290430230A062AF
:1035F000E069D4E9013240EA030C531EB3FA83F3C5
:103600005D091346B2F5807F18BF2B02207D257B14
:1036100001284CEA45002CD135B3A56A45F02005B8
:10362000A562E56A45F00105E56222E0054602E093
:103630008868C007D3D000F08FFB401B21680328A7
:10364000F6D38868C007F3D0A06A40F01000A062EB
:10365000E06A40F00100E062A06AA06A40F0100059
:10366000A0620120B0BD00BFA56903EB4533A3F5FF
:10367000C0534D68B2F5807F25F4694543EA0503E0
:103680004B608B684FF2FD75CFF6E17503EA0503D9
:1036900043EA00038B6001D0012A07D1226900238D
:1036A000CFF6F07303EB025201E000BF0022CB6AB9
:1036B00023F470031A43CA62896840F6FE62CFF6AB
:1036C0001F721140814207D10020E062A16A0122ED
:1036D00062F30101A162B0BDA06A40F0100020F0C9
:1036E0000200A062E06A40F00100E0620120B0BD8B
:1036F00080B586B0014640F60000C4F201000968BA
:1037000000F5E05291424FF00001CDE90411CDE9FE
:10371000021101D006B080BD41F21801C4F20201CD
:103720000A6842F400720A600A6802F400720192A8
:10373000019A0A6842F004020A60096801F0040173
:10374000019101990321CDE9021102A900F0F6F9D6
:1037500006B080BD2DE9F04182B000270D46044639
:10376000019700F0F9FA21688A68D20544D4064628
:103770004868C00503D4C86A10F4700F46D040F200
:103780000800C2F20000076842F292480220C1F22B
:10379000492801F0BFFA216844F624130A69B7FBEF
:1037A000F0F0C2F292431A4206D1CA6844F62413DA
:1037B000C0F292031A425BD00A6912EA080F07D1DD
:1037C000CA6842F29243C0F249031A4200F0C08034
:1037D0000A6949F24923C0F224031A424FF0FC025D
:1037E00054D1CF681F4208BF5422019B02FB00F74F
:1037F000BB4250D3C3E000BFA06A40F02000A062EB
:1038000084F82470012002B0BDE8F08108688007C8
:1038100000F1B580681C00F0A880FDB90868800739
:1038200070D50868800700F1AA800868800769D50C
:103830000868800700F1A3800868800762D50868DF
:10384000800700F19C80086880075BD508688007C6
:10385000E4D594E00868800700F1918000F07CFADC
:10386000801B2168A842F5D908688007F2D449E096
:103870000A6912EA080F4FF0290207D1CB6842F219
:103880009247C0F249073B4208BF1422019B02FB4A
:1038900000F7BB4273D2681C52D05DBB0198B8429E
:1038A00030D30198013001900198B84267D2019855
:1038B000B84227D30198013001900198B8425ED2F6
:1038C0000198B8421ED30198013001900198B84286
:1038D00055D20198B84215D3019801300190019852
:1038E000B842DBD34BE000BF019801300190019852
:1038F000B84235D200F030FA801BA842F4D90198C2
:10390000B842F1D2A06A40F00400A062002084F81E
:103910002400032002B0BDE8F08100BF019801300F
:1039200001900198B8422AD2019801300190019883
:10393000B84224D20198013001900198B8421ED2B9
:103940000198013001900198B842E7D317E000BF19
:103950005422019B02FB00F7BB429CD30FE000BF47
:1039600021680CE00868800709D40868800706D43D
:10397000086880075CBF08685FEA8070F2D56FF066
:1039800012000860A06A40F40070A062886800F429
:103990006020B0F5602F01D1207B18B1002002B06B
:1039A000BDE8F081A06A20F48070A062A06AC00423
:1039B000F4D4A06A40F00100A062002002B0BDE88B
:1039C000F081000010B5044690F82400012804BFDF
:1039D000022010BD012084F824002046FCF7E4FDFD
:1039E00020B1002084F82400012010BD42F2044CD4
:1039F0002068A16AC4F2010C40F2013291430CF537
:103A00007F7201F580719042A16229D0A16A21F4F0
:103A10008011A1624168490504D5A16A012363F3BD
:103A20000D31A162A16A0023C9044FF0000144BF17
:103A3000E16A21F00601E1626FF0020184F82430AE
:103A40000160816801F46021B1F5602F1BD19042C3
:103A500014D0816841F4A0018160002010BD00BF36
:103A6000DCF8001011F4702FD0D0A16A41F480115D
:103A7000A162DCF800104905CFD4D3E7DCF80010D0
:103A800011F4702FE5D0816841F48011816000202D
:103A900010BD0000B0B5044690F82400012804BF12
:103AA0000220B0BD0121206884F824108168C90774
:103AB00009D0816821F00101816000F04DF9216891
:103AC0008968C9070ED1214651F8280F41F2011229
:103AD00020EA0202002042F001020A60002184F87C
:103AE0002410B0BD054602E08068C007EBD000F0AE
:103AF00033F9411B20680329F6D38168C907F3D045
:103B0000A06A214640F01000A06251F82C2F01203D
:103B1000E1E70000B0B5044600F01EF9054640F2AA
:103B20000000C2F200000078611C18BF044400BF0E
:103B300000F012F9401BA042FAD3B0BD2DE9F04FBE
:103B400082B00E68002E00F0FD8041F20042C4F207
:103B50000102042340F2004E904208BF03234FF6B7
:103B6000FF7CC4F2010E009300240123C1F2100C6B
:103B70004FF0000A4FF000094BE000BF41F2000295
:103B8000C4F20102009F904208BF022704F00C0318
:103B90000F229A402BEA020207FA03F34FEA9A0532
:103BA0001A4346F825204E6840F20C45F202DEF832
:103BB000082054BF22EA080242EA0802C4F20105C2
:103BC000CEF808202A68B30254BF22EA080242EA6B
:103BD00008022A60B303DEF8042054BF22EA080278
:103BE00042EA0802F303CEF80420DEF800204FF08A
:103BF000010354BF22EA080242EA0802CEF800207C
:103C00000E680AF1010A36FA0AF204F1040400F01F
:103C1000998003FA0AFB16EA0B08F1D04E68664554
:103C200012DC122E56D8DFE806F0350B4D495555FB
:103C3000555555555555555555555545510000BF88
:103C4000D1F80C9046E000BF4FF6FF72C1F221029E
:103C500096420FDC0022C1F2110296421AD00022D5
:103C6000C1F21202964215D00022C1F22102964200
:103C700010D02FE00022C1F2220296420AD0002288
:103C8000C1F23102964205D00022C1F232029642C0
:103C900020D100BF8A684AB1012A14BFC0F814B00D
:103CA000C0F810B04FF0080914E000BF4FF004094D
:103CB00010E000BFCA6802F104090BE04FF00009F0
:103CC00008E000BFCA6802F1080903E0CA6802F10F
:103CD0000C0900BF02462646B8F5807F24BF043297
:103CE000203E17680F25B54027EA050509FA06F6B4
:103CF00035431560CA79D2067FF582AF41F21803C9
:103D0000C4F202031A68AEF57E7642F001021A6030
:103D10001A6802F001020192019A2AF0030256F891
:103D200002B040F60002C4F20102904208D040F610
:103D30000042C4F2010290427FF420AF012725E740
:103D4000002723E702B0BDE8F08F0000002A08BF7B
:103D5000090401617047000040F2F450C2F2000013
:103D600000687047002804BF01207047F0B581B09B
:103D7000044690F83D0028B9002084F83C00204615
:103D800000F0EEFE242084F83D002068016821F058
:103D900001010160016841F400410160016821F402
:103DA0000041016001F092F9636848F2A16CC0F231
:103DB000010C40F60011C0F23D0163453CBF48F2E2
:103DC0008041C0F21E01884202D2012001B0F0BD44
:103DD0004DF68361C4F21B31A0FB01122168970CE0
:103DE000D1F804E04FF496762EF03F0545EA92456F
:103DF0004D60774348F638160D6AC0F24106A7FBBE
:103E0000067625F03F07634538BF960C721C3A438F
:103E10000A62CA6948F2A0664CF6FF77C0F2010652
:103E2000B34222EA07020BD801385B00B0FBF3F083
:103E300001306FF31F30042898BF04201BE000BF3F
:103E4000A768013857B119277B43B0FBF3F0013065
:103E50006FF31F3070B100F5804007E003EB4303C0
:103E6000B0FBF3F001306FF31F3018B100F50040E4
:103E700001E000BF01201043C8610868D4E90723AE
:103E800020F0C000104318430860886848F2FF32F1
:103E900004F10C0790438CCF18431043A669886047
:103EA000C86820F0FF0038433043C860086840F01D
:103EB0000100086000202021206484F83D10206368
:103EC00084F83E0001B0F0BD2DE9F04F83B01E46EE
:103ED000924688460446FFF73FFF94F83D1020299C
:103EE00024D12168054600BF886980071AD5FFF7ED
:103EF00033FF401B21681A28F6D388698007F3D561
:103F000000202021206384F83D1084F83E00216CBD
:103F100041F02001216484F83C00022003B0BDE898
:103F2000F08F00BF94F83C00012803D1022003B0B9
:103F3000BDE8F08F4FF0010984F83C900868C00795
:103F400003D1086840F0010008600868002720F4E9
:103F500000600860242084F83D000020CFF6FF7048
:103F60002764E06208F0FE08BAF1010F88BFD1466D
:103F70004FF0A00A4FF0200B04E000BF01374F457F
:103F800000F0A2800868002240F48070086020469B
:103F90004FF001113346009501F0EAFE2168002838
:103FA00056D1C1F81080FFF7D7FE21684B694A69E6
:103FB00094F83D50A02D054605D013F0020008BF2F
:103FC00012F480601AD084F83DB048690A6880070E
:103FD00042F400720A6045D46FF48060486100BF0B
:103FE00088698007CAD5FFF7B7FE401B21681A28E9
:103FF000F6D388698007F3D54AE000BFB6B100BFA9
:10400000FFF7AAFE401BB04288BF84F83DA021689C
:104010004A69486994F83D30A02BD4D012F00202CE
:1040200008BF10F48060EBD0CDE700BFFFF794FE2F
:1040300084F83DA021684A69486994F83D30A02B76
:10404000C1D012F00202BED110F48060EED0BAE707
:104050000868C00544BF4FF400702064032003B01B
:10406000BDE8F08F002002904869029088690290B4
:104070000298886901E000BF806980071AD5FFF7C0
:104080006BFE411B20681A29F6D381698907F3D595
:1040900000202021206384F83D1084F83E00216C2C
:1040A00041F02001216484F83C00012003B0BDE808
:1040B000F08F00BF202084F83D00002084F83C00F1
:1040C00003B0BDE8F08F00BF202084F83D00002041
:1040D00084F83C00012003B0BDE8F08F2DE9F047E3
:1040E00084B0044600201F46164689460290FFF71A
:1040F00033FE94F83D10202924D10546206800BFE6
:10410000816989071AD5FFF727FE411B20681A2904
:10411000F6D381698907F3D500202021206384F834
:104120003D1084F83E00216C41F02001216484F8A8
:104130003C00022004B0BDE8F08700BF94F83C10BA
:10414000012903D1022004B0BDE8F087012184F8E1
:104150003C100168C90703D1016841F00101016009
:104160000168DDF8308021F400610160222184F8CB
:104170003D10102184F83E1000212164666267859D
:10418000618D0227C0F201072185A7F10211E162CA
:10419000E16A026811F5803F42F48062026018BF54
:1041A00001293DD1016841F48071016020464FF042
:1041B000011100224346009501F0DAFD50B120685C
:1041C0000068C00544BF4FF400702064012004B0B3
:1041D000BDE8F0872069B0F5804F27D149F0010094
:1041E000C0B2216842460861204639462B4601F09C
:1041F000A5FE0028EAD1208D022861D0012849D0EF
:10420000002840F0738000200390206841690391EA
:10421000816903910399016841F40071016071E0C3
:104220000829BFD0216B1129BCD0BFE7062000EAC6
:10423000D916206806F1F0010161B91D20464246F9
:104240002B4601F07BFE0028C0D120685FFA89F17F
:1042500001612046394642462B4601F06FFE002898
:10426000B4D10020039020680022416943460391A5
:10427000816903910399016841F4807101602046CE
:104280004FF00111009501F073FD002897D146F021
:10429000F100A6E72068016821F480610160EFF376
:1042A000108072B6002003902068416903918169F3
:1042B00003910399016841F40071016062B621E045
:1042C0002068016841F400610160EFF3108072B66C
:1042D000002003902068416903918169039103994B
:1042E000016821F48061016062B60BE0206801681A
:1042F00041F480610160002103914169039180696B
:1043000003900398208D002800F0CA8040F208092D
:104310004BF2895A0237C2F20009C1F2F84A232649
:104320000EE000BF10690870606A218D0130606284
:10433000481E2085618D01396185010400F0B0803F
:1043400080B203280CD802282CD001284AD120465C
:1043500041462A4601F05EFE002800F09C8035E7C9
:10436000204641462A4601F055FE00287FF42EAF34
:104370002068616A00690870606A2268411C208DAB
:10438000616201382085638D013B638553695B075A
:10439000D3D580B20328C5D1106820F480601060A6
:1043A000C0E700BF2046394600224346009501F091
:1043B000DFFC00287FF40AAFEFF3108072B62068AC
:1043C000616A026842F40072026000690870606A03
:1043D000218D01306062481E2085608D0138608526
:1043E00062B658E02046394600224346009501F067
:1043F000BFFC00287FF4EAAE2068016821F48061E8
:104400000160EFF3108072B62068616A006908707D
:10441000606A218D0130013960622185618D013929
:104420006185D9F80010C908A1FB0A12110A71436D
:104430000291029901390291029900293CD0216828
:104440004A69520717D4029A013A0292029A9AB321
:104450004A6952070FD4029A013A0292029A5AB359
:104460004A69520707D4029A013A0292029A1AB391
:104470004A695207DDD50A6842F400720A60096988
:104480000170606A218D01306062481E2085608D58
:104490000138608562B62068616A006943E700BF41
:1044A000202084F83D00002084F83E0084F83C0081
:1044B00004B0BDE8F08700BF00202021206384F80D
:1044C0003D1084F83E00216C41F02001216462B669
:1044D00084F83C00012004B0BDE8F0872DE9F043EA
:1044E00083B01E46174689460446FFF735FC94F80C
:1044F0003D10202924D10546206800BF8169890725
:104500001AD5FFF729FC411B20681A29F6D38169C7
:104510008907F3D500202021206384F83D1084F81A
:104520003E00216C41F02001216484F83C0002200F
:1045300003B0BDE8F08300BF94F83C10012903D11B
:10454000022003B0BDE8F083012184F83C1001682B
:10455000C90703D1016841F001010160016840F21F
:10456000020821F400610160212184F83D1010212E
:1045700084F83E100021216467626685618DC0F277
:1045800001082185A8F10211E162E16A0A9E11F594
:10459000803F18BF01291DD1016841F4807101607D
:1045A00020464FF0011100223346009501F0E0FB58
:1045B00050B120680068C00544BF4FF4007020640B
:1045C000012003B0BDE8F0832069B0F5804F07D12A
:1045D000FE2015E00829DFD0216B1229DCD0DFE7AF
:1045E000062000EAD9102168F030086108F10601C0
:1045F000204632462B4601F0A1FC0028E0D1FF20E6
:10460000216800EA090008612046414632462B46EF
:1046100001F094FC0028D3D1002002902068416969
:10462000029180690290029806E000BF2046314660
:104630002A4601F03FFB18BB208D68B32046314667
:104640002A4601F02FFDD8B9606A2168024612F8A7
:10465000013B0B616262628D013A6285228D531EBD
:1046600023854F697F07E1D51B04DFD043780230F3
:104670000B616062608D01386085901E2085D5E7F2
:10468000206C04289CD12068016841F4007101600D
:10469000012003B0BDE8F0832068016841F4007197
:1046A0000160202084F83D00002084F83E0084F85A
:1046B0003C0003B0BDE8F0832DE9F04F85B004461F
:1046C0000020994616460F460490FFF745FB94F8E4
:1046D0003D10202927D10546206800BF8169890740
:1046E0001CD5FFF739FB411B20681A29F6D38169D5
:1046F0008907F3D500202021206384F83D1084F839
:104700003E00206C04F13C0A40F0200020640220AE
:1047100000218AF8001005B0BDE8F08FA2461AF813
:104720003C1F012904D1022005B0BDE8F08F00BF75
:1047300001228AF800200368DDE90F180E9ADB07D2
:1047400003D1036843F001030360036823F40063AB
:104750000360222084F83D00402084F83E000020C1
:10476000206462626185608D394620850020CFF625
:10477000FF70E062204632464B46CDE9008501F0ED
:10478000ABF918B1012005B0BDE8F08F208D0228EB
:1047900026D001280ED0002838D1002003902068B0
:1047A00041690391816903910399016841F40071A2
:1047B000016037E02068016821F480610160EFF357
:1047C000108072B6002003902068416903918169CE
:1047D00003910399016841F40071016062B621E020
:1047E0002068016841F400610160EFF3108072B647
:1047F0000020039020684169039181690391039926
:10480000016821F48061016062B60BE020680168F4
:1048100041F4806101600021039141690391806945
:1048200003900398208D002800F0CC80042740F2EC
:1048300008094BF2895BC0F20107C2F20009C1F21C
:10484000F84B23260EE000BF10690870606A218DC6
:1048500001306062481E2085618D01396185010447
:1048600000F0B08080B203280CD802282CD0012898
:104870004AD1204641462A4601F0CCFB002800F0F0
:104880009C807FE7204641462A4601F0C3FB002872
:104890007FF478AF2068616A00690870606A2268F6
:1048A000411C208D616201382085638D013B638549
:1048B00053695B07D3D580B20328C5D1106820F4B3
:1048C00080601060C0E700BF2046394600224346A2
:1048D000009501F04DFA00287FF454AFEFF31080FB
:1048E00072B62068616A026842F400720260006970
:1048F0000870606A218D01306062481E2085608DDD
:104900000138608562B658E02046394600224346A9
:10491000009501F02DFA00287FF434AF206801687B
:1049200021F480610160EFF3108072B62068616A43
:1049300000690870606A218D01300139606221854B
:10494000618D01396185D9F80010C908A1FB0B12EE
:10495000110A7143049104990139049104990029C1
:104960003CD021684A69520717D4049A013A04924C
:10497000049A9AB34A6952070FD4049A013A0492EE
:10498000049A5AB34A69520707D4049A013A049226
:10499000049A1AB34A695207DDD50A6842F40072D4
:1049A0000A6009690170606A218D01306062481EE9
:1049B0002085608D0138608562B62068616A006973
:1049C00043E700BF202084F83D00002084F83E002B
:1049D00000218AF8001005B0BDE8F08F00202021EA
:1049E000206384F83D1084F83E00206C40F02000E5
:1049F000206462B6012000218AF8001005B0BDE8ED
:104A0000F08F00002DE9F04383B0994616460F461B
:104A10000446FFF7A1F994F83D10202924D105465A
:104A2000206800BF816989071AD5FFF795F9411BF6
:104A300020681A29F6D381698907F3D5002020213F
:104A4000206384F83D1084F83E00216C41F0200181
:104A5000216484F83C00022003B0BDE8F08300BF6D
:104A600094F83C10012903D1022003B0BDE8F08383
:104A7000012284F83C200368DDE90B180A9ADB0761
:104A800003D1036843F001030360036823F4006368
:104A90000360212084F83D00402084F83E0000207F
:104AA000206462626185608D394620850020CFF6E2
:104AB000FF70E062204632464B46CDE9008501F0AA
:104AC00095F818B1012003B0BDE8F083208D98B9A6
:104AD000204641462A4601F0EDF888B3206C0428B0
:104AE000F0D12068016841F400710160012003B039
:104AF000BDE8F0830004EBD0204641462A4601F091
:104B0000D1FA0028EAD1616A2268084610F8013B10
:104B10001361238D6062581E2085678D013F678574
:104B200057697F07E6D50704E4D048781061881CF0
:104B30006062981E2085618D01396185DAE700BFCA
:104B40002068016841F400710160202084F83D0074
:104B5000002084F83E0084F83C0003B0BDE8F083F8
:104B600010B586B0016845F20040C4F200008142F1
:104B70004FF00001CDE90411CDE9021102D006B0D9
:104B800010BD00BF41F21804C4F20204216800F510
:104B9000384041F008012160216801F008010191CD
:104BA0000199C0210291122103910321059102A9CB
:104BB000FEF7C4FF606840F400106060606800F4B5
:104BC00000100190019806B010BD000040F20000F6
:104BD00040F2F451C2F20000C2F2000100780A680B
:104BE000104408607047000080B542F20000C4F233
:104BF0000200016841F010010160032000F07AF822
:104C00000F2000F005F800F027F8002080BD00001C
:104C100070B540F20006C2F2000640F20801327898
:104C2000C2F200014FF47A730968B3FBF2F2044652
:104C3000B1FBF2F1084600F071FC0F2C4FF00105BA
:104C400008D838B94FF0FF3021460022002500F087
:104C500025F87460284670BD82B041F21800C4F295
:104C600002000168022241F001010160016801F0C7
:104C7000010101910199416841F080514160406812
:104C800000F08050009000980420C4F201000168F8
:104C900062F31A61016002B07047000010B54EF671
:104CA0000C5CCEF2000CDCF80030C3F3022E8EF068
:104CB0000704042C28BF0424BEF103034FF0FF3E79
:104CC0000EFA04F438BF0023A14399400EFA03F30F
:104CD0009A43114300F00F0200F160430901043AC6
:104CE00003F564436244002848BF02F10C031970C5
:104CF00010BD00004EF60C51CEF200010A684FF6CE
:104D0000FF031A4060F30A2242F0806040F0FD7019
:104D100008607047012821D002280DD0102808D142
:104D200041F20401C4F202010A6851F8040CC00106
:104D300034D40020704700BF80B500F0DBF941F2A9
:104D40000401C4F2020109680222C1F3813102EBBD
:104D50004101B0FBF1F0BDE88040704741F2040032
:104D6000C4F20200C16940F202320A40B2F5817F0A
:104D700004BF4FF40040704701F44071B1F5407F2B
:104D800018D0B1F5007F1CBF00207047006A49F6BB
:104D90004041800701EAE070704700BFC2F38340E2
:104DA00015A3185CD2030DD440F60012C0F23D02E8
:104DB000504313E050F8040C4FF22441800301EA01
:104DC000E07070470A6810A3C2F340429A5C41F257
:104DD0000023C0F27A03B3FBF2F2504309684902A0
:104DE00048BF70474AF6AB214000CAF6AA21A0FB93
:104DF00001014808704700BF0203040506070809BF
:104E00000A0B0C0D0E0F1010010200002DE9F041ED
:104E100082B00446007841F21C06C007C4F20206C4
:104E20004AD030685FEAC00808D4306840F080504B
:104E30003060306800F080500190019847F2000720
:104E4000C4F200073868C00512D4386840F4807096
:104E50003860FEF781FF05463868C00508D4FEF7C4
:104E60007BFF401B6428F7D9032002B0BDE8F08126
:104E7000706810F4407012D0616801F4407188428B
:104E80000DD0706840F24042C4F24222012320F467
:104E9000407113600023C0071360716026D17068F1
:104EA000616820F440700843B8F1000F706003D4CB
:104EB000306820F0805030602068810707D556F8B0
:104EC000181CA26821F44041114346F8181CC00682
:104ED00007D556F8180CE16820F48000084346F81E
:104EE000180C002002B0BDE8F08100BFFEF734FFCF
:104EF000054641F2883700BF70688007CFD4FEF7BF
:104F00002BFF401BB8424FF00300F5D9EAE7000041
:104F1000002804BF012070472DE9F04381B042F220
:104F20000008C4F202080446D8F800000D4600F05C
:104F3000070081420CD9D8F8000020F00700284370
:104F4000C8F80000D8F8000000F00700A8426CD1B3
:104F5000206841F204098107C4F2020917D541070C
:104F600005D5D9F8001041F4E061C9F80010010737
:104F700005D5D9F8001041F46051C9F80010D9F8EE
:104F80000010A26821F0F0011143C9F80010C00719
:104F900042D1D8F8000000F0070085420CD2D8F8C2
:104FA000000020F007002843C8F80000D8F80000EF
:104FB00000F00700A84238D12068410707D5D9F88A
:104FC0000010E26821F4E0611143C9F80010000705
:104FD00008D5D9F80000216920F4605040EAC100EA
:104FE000C9F80000D9F8002002F00C00082841F2AE
:104FF0000020C0F27A004DD146F62823C2F3834147
:10500000C0F60003595CD20338D440F60010C0F259
:105010003D0048433EE000BF606859F8041C022888
:1050200008D0012826D1890306D4012001B0BDE8AB
:10503000F08300BF8901F8D5D9F8001021F00301F1
:105040000843C9F80000FEF787FE064641F288379C
:10505000D9F80000616800F00C00B0EB810F98D027
:10506000FEF77AFE801BB842F2D9032001B0BDE8FA
:10507000F08300BF8907D8D5DEE700BFD9F800204C
:1050800046F62623C2F34042C0F600039A5C48432A
:10509000B0FBF2F0D9F8001046F60E22C1F303116E
:1050A000C0F60002515C40F2080220FA01F140F221
:1050B0000400C2F200000068C2F200021160FFF7B3
:1050C000A7FD002001B0BDE8F083000040F2080019
:1050D00041F20401C2F20000C4F202010068096852
:1050E00046F61E22C1F30221C0F60002515CC84000
:1050F0007047000040F2080041F20401C2F20000D3
:10510000C4F202010068096846F61E22C1F3C221FA
:10511000C0F60002515CC84070470000002804BF80
:10512000012070472DE9F04182B00446007841F239
:105130000006C007C4F202060CD0706800F00C0034
:10514000042840F081803068800303D5606800281F
:1051500000F04681207880071BD5706810F00C0F96
:1051600009D0706800F00C00082840F08780706853
:10517000C00300F183803068800703D520690128CF
:1051800040F02E813068616920F0F80040EAC100EB
:1051900030602078000713D4207840072CD4E569CC
:1051A000002D00F01881706800F00C00082840F015
:1051B000A780012D40F00481012002B0BDE8F081FC
:1051C000A069002800F084800020C4F24220012160
:1051D000C0F88014FEF7C0FD054600BF706A800766
:1051E00000F1B280FEF7B8FD401B0228F6D903207B
:1051F00002B0BDE8F08100BFF0695FEAC00808D4E2
:10520000F06940F08050F061F06900F0805000904B
:10521000009847F20007C4F200073868C00549D477
:10522000386840F480703860FEF796FD054600BF90
:105230003868C0053ED4FEF78FFD401B6428F7D9BF
:10524000032002B0BDE8F081706800F00C0008286F
:1052500003D17068C0033FF576AF616830680029FC
:1052600000F00C81B1F5A02F00F00081B1F5803F76
:1052700040F01A8140F480301CE100BF2069002812
:1052800040F20000C4F2422000F088800121016059
:10529000FEF762FD054600BF306880073FF572AF3C
:1052A000FEF75AFD401B0228F6D9032002B0BDE8E4
:1052B000F08100BFE168306A002900F09D80052977
:1052C00000F09280012940F0AF8040F00100B1E091
:1052D0000020C4F242200021C0F88014FEF73CFDFB
:1052E000054600BF706A80077FF556AFFEF734FDB4
:1052F000401B0228F6D9032002B0BDE8F08100BFB0
:105300000027C4F2422700203866FEF725FD022D53
:1053100005460DD13068800140F1DE80FEF71CFDAE
:10532000401B02284FF00300F4D902B0BDE8F08121
:10533000306880014FD5FEF70FFD401B02284FF06B
:105340000300F5D9F1E700BF40F20800C2F2000007
:10535000006844F6D351C1F26201A0FB0101480A82
:10536000019000BF00BF0198411E002801913FF449
:1053700013AF00BF0198411E002801913FF40CAF0C
:1053800000BF0198411E002801913FF405AF00BF06
:105390000198411E00280191E4D1FDE60021016041
:1053A000FEF7DAFC054600BF306880077FF5F1AEF6
:1053B000FEF7D2FC401B02284FF00300F4D9B4E7FB
:1053C0007068216A00F480328A4209D1616A00F46F
:1053D0007010884204D1002002B0BDE8F08100BF07
:1053E000012002B0BDE8F08140F004003062306A74
:1053F00040F001001EE000BF20F001003062306A82
:1054000020F004003062FEF7A7FC054641F2883721
:10541000306A800720D5FEF79FFC401BB8424FF052
:105420000300F5D981E700BF20F001003062306A47
:1054300020F004003062FEF78FFC054641F2883709
:10544000306A800708D4FEF787FC401BB842F7D9C2
:10545000032002B0BDE8F081B8F1000F3FF59FAE28
:10546000F06920F08050F06199E600BF40F48020A0
:105470003060306840F480301CE000BF20F48030A1
:105480003060306820F480203060FEF765FC05460F
:10549000306880037FF55EAEFEF75EFC401B64283B
:1054A0004FF00300F4D940E720F4803030603068DA
:1054B00020F480203060FEF74FFC05463068800302
:1054C0003FF548AEFEF748FC401B6428F6D90320A0
:1054D00002B0BDE8F08100BF206AB0F5803F05D181
:1054E0007168A26821F40031114371607168626AC9
:1054F00021F4741111430843706001203866FEF7EF
:105500002BFC0446306880013FF565AFFEF724FCB4
:10551000001B02284FF00300F4D906E7411E0020CB
:10552000B0EB116F1CBF012070474EF21002CEF29B
:10553000000251604EF62351CEF20001F0230B70B1
:10554000072190601160704790F83C20012A4FF0CD
:10555000020236D010B580F83D200268D2F804E08F
:10556000D2F808C00C682EF07003234340F2FF7499
:10557000C4F20004A24253600ADCB2F1804F13D09F
:1055800040F20043C4F200039A420DD011E000BF84
:1055900042F60043C4F201039A4205D040F60003EC
:1055A000C4F200039A4204D149682CF080031943E5
:1055B00091600121002280F83D1080F83C20BDE878
:1055C000104010467047000080B586B0016840F278
:1055D0000040C4F2000081424FF00001CDE9041107
:1055E000CDE9021102D006B080BD00BF41F2180122
:1055F000C4F202010A6800F5823042F004020A6037
:10560000096801F0040101910199402102910221F0
:105610000391059102A9FEF791FA06B080BD000042
:1056200090F83C30012B04BF022070474FEAB202D1
:10563000032A00F2F1802DE9F043DFE802F003A530
:105640003B7500BF036842F600461D6A1A6AC4F241
:10565000010622F001021A621A465C6852F818CF5D
:10566000B3428E68D1F800E025F0020545EA060550
:105670000CD1CE68D1E9057824F4407425F00C05EE
:1056800026F004063C43354344EA08042CF0730733
:1056900047EA0E075C609F614F6809695F631D629E
:1056A0009F6947F008079F619F6927F004079F6182
:1056B000A6E000BF036842F600461D6A1A6AC4F2FB
:1056C000010622F480721A621A46D3F804C052F816
:1056D0001CEFB3428E680C6825F4007545EA062578
:1056E0000FD1CE68D1E90598360240F2FF4725F484
:1056F0004065BE4335432CF4405748EA090647EA63
:10570000061C2EF073072743C3F804C0DF614F68FF
:105710000969DF631D62DF6947F00807DF61DF6940
:1057200027F00407DF616BE0036842F60047D3F817
:1057300020C01A6AC4F2010722F480521A621A4683
:105740005C6852F81C5FD1F800E08E68BB4204D15F
:105750004F6924F4804444EA87142CF4005747EA44
:10576000063725F4E64646EA0E265C60DE614E68A2
:1057700009691E641F62DF6947F40067DF61DF6942
:1057800027F48067DF613AE0036842F600461D6A4D
:105790001A6AC4F2010622F010021A621A46D3F8FD
:1057A00004C052F8184FB3428E68D1F800E025F0DB
:1057B000200545EA06150FD1CE68D1E905986FF0AE
:1057C000400725F0C00507EA061635432CF440676C
:1057D00048EA090647EA860C24F4E64444EA0E2720
:1057E000C3F804C09F614F6809699F631D629F6988
:1057F00047F400679F619F6927F480679F610902F2
:105800001368194311600021BDE8F043002280F8BD
:105810003C200846704700BF0121002280F83C2050
:1058200008467047002804BF0120704710B590F863
:105830003D1031B9002180F83C10044600F070F8AA
:105840002046022180F83D10016840F2FF740B6889
:10585000C4F2000442F6004CA142C4F2010C15DC73
:10586000B1F1804F1AD040F20042C4F200029142DE
:1058700014D0A14218DCB1F1804F1DD040F200429B
:10588000C4F20002914217D01AE000BF614505D072
:1058900040F60002C4F200029142EAD1826823F08D
:1058A00070031343A142E6DD614505D040F60002D6
:1058B000C4F20002914203D1026923F440731343FE
:1058C000846923F08002D0F804E0C3682243614574
:1058D0000A60CB62C1F828E002D14269CCF83020DE
:1058E00001224A610B69DB0703D00B6923F0010336
:1058F0000B6180F8462080F83E2080F83F2080F839
:10590000402080F8412080F8422080F8432080F831
:10591000442080F8452080F83D20002010BD000084
:10592000006840F20041C4F20001884218BF70478D
:1059300081B041F21C00C4F20200016841F0020192
:105940000160006800F002000090009801B070470C
:10595000C1B1042908D0082914BF41224022825C29
:10596000012A05D016E000BF3F22825C012A11D136
:105970000222082910D0042914BF80F8412080F8A1
:105980003F200BE090F83E20012A03D1022280F84C
:105990003E2003E00120704780F84020006801F0BD
:1059A0001F010122036A8A4023EA02010162036A9D
:1059B00042F64441C4F201011A43A1F14403984262
:1059C00002620FD040F2FF71C4F20001884213DC82
:1059D000B0F1804F1CD040F20041C4F20001884277
:1059E00016D01CE00A6842F400420A6040F2FF71DF
:1059F000C4F200018842EBDD42F60041C4F201012D
:105A0000884205D040F60001C4F20001884206D168
:105A1000816801F00701062904BF00207047016872
:105A200041F00101016000207047000080B502686C
:105A300001F01F0C012303FA0CFE136A42F6004C1E
:105A400023EA0E031362C4F2010C136A6245136267
:105A500011D1DCF820C041F211131CEA030F0AD166
:105A6000D2F820C040F244431CEA030F03D1536C28
:105A700023F400435364D2F820C041F211131CEA0E
:105A8000030F06D1D2F820C040F244431CEA030FB2
:105A900014D0082918D004290AD000294FF0010198
:105AA00014BF80F8411080F83E10002080BD00BF78
:105AB000012180F83F10002080BD00BF136823F053
:105AC000010313600829E6D1012180F8401000206D
:105AD00080BD0000FEE700002DE9F04782B00446DB
